:020000040800F2
:10000000E80B00209D01000899370008FD31000829
:10001000953700087D080008ED3B0008000000004F
:10002000000000000000000000000000A1370008F0
:100030002D090008000000009D370008A5370008C2
:10004000B7010008B7010008B7010008B7010008B0
:10005000B7010008B7010008B7010008B7010008A0
:10006000B7010008B7010008B7010008B701000890
:10007000B7010008B7010008B7010008B701000880
:10008000B7010008B7010008B7010008B701000870
:1000900081080008B7010008B7010008B70100088F
:1000A000B7010008B7010008B7010008B701000850
:1000B0006D380008B701000879380008B70100085A
:1000C000B7010008B7010008B7010008B701000830
:1000D000B7010008BD3B0008B7010008C93B000894
:1000E000B7010008B7010008B7010008B701000810
:1000F000B7010008B7010008B7010008B701000800
:10010000B7010008B7010008B7010008B7010008EF
:10011000B7010008B7010008B7010008B7010008DF
:10012000B7010008B7010008B7010008B7010008CF
:10013000B7010008B7010008B7010008B7010008BF
:10014000B7010008B7010008B7010008B7010008AF
:10015000B7010008B7010008B7010008B70100089F
:10016000B7010008B7010008B7010008B70100088F
:10017000B7010008B7010008B7010008000000003F
:10018000B7010008B7010008DFF80CD000F056FBFB
:100190000048004775410008E80B002006488047EA
:1001A00006480047FEE7FEE7FEE7FEE7FEE7FEE75C
:1001B000FEE7FEE7FEE7FEE7593800088901000880
:1001C0002DE9F05F0546002092469B46884606468C
:1001D000814640241BE0284641464746224600F01F
:1001E00047FA53465A46C01A914110D31146184651
:1001F000224600F02EFA2D1A67EB01084F462246E0
:100200000120002100F025FA17EB00094E41201EC5
:10021000A4F10104DFDC484631462A464346BDE8E6
:10022000F09F2DE9FE4F804681EA0300C00F0C4687
:10023000009021F0004123F00045B8EB0200A941F5
:1002400005D24046214690461C460B46024623F006
:100250000040104347D0270DC7F30A00C3F30A51EB
:100260000290401A019040286BDAC3F3130040F467
:10027000801B0098924620B10023D2EB030A63EB67
:100280000B0B01985946C0F14002504600F0E1F9CD
:1002900006460D4650465946019A00F0F9F910EB12
:1002A00008006141002487EA115284EAE7731A4387
:1002B00040D0009A62B3019A012A4FEA075215DC36
:1002C000001B61EB02014FF0004202EA0752CDE948
:1002D0000042001C41F5801132462B4600F030FAF6
:1002E00003B0BDE8F08F40462146F9E7001B61EB03
:1002F0000201001C41F5801300185B412018A2F593
:10030000001747EB030140EAD570B6196D4111E0C3
:100310006D084FEA360645EAC0754FEA0752001BE2
:1003200061EB0201001C41F5801149084FEA3000E1
:100330000019514132462B4603B0BDE8F04F00F0A2
:10034000F0B90098012240000023D0EB020263EBD9
:10035000E073009821464FEAE074B8EB000061EBCF
:100360000401E9E783F000435BE781F0004158E7CF
:100370002DE9FE4F81EA030404F0004421F000411E
:1003800000944FF0000B23F0004350EA01045ED0CC
:1003900052EA03045BD0C3F30A54C1F30A552C4458
:1003A000A4F2F3340194A0FB0254C1F3130141F40D
:1003B0008011C3F3130343F4801301FB024400FBD9
:1003C000034E840A970A44EA815447EA8357A4FB00
:1003D000076802958D0A05FB07854FEA932C04FBFD
:1003E0000C542705029D4FEA065847EA1637B5EB2D
:1003F00008056EEB070C870E920E47EA811742EA5A
:100400008312A7FB0201B6EB0B0164EB00042B0D7A
:1004100043EA0C335E1844EB1C50DA465146E7FBC6
:100420000201C5F313044FEA0B3343EA14534FEAB6
:100430000432019C43EA0603A4F10C040294009CDC
:10044000CDE900B400F07CF903B0BDE8F08F0020E6
:100450000146F9E72DE9F04D81EA030404F0004B71
:1004600021F0004514464FF0000A23F0004150EA05
:10047000050220D054EA01021DD0C5F30A570246F6
:10048000C5F31303C1F31300C1F30A5640F48015FA
:1004900043F48013A7EB0608101BD64608F2FD387C
:1004A00073EB050002D308F1010801E092185B41EB
:1004B000B8F1000F03DA00200146BDE8F08D0020FE
:1004C0004FF48011064684460EE0171B73EB0507B8
:1004D00005D3121B63EB050306434CEA010C4908E4
:1004E0004FEA300092185B4150EA0107EDD152EA21
:1004F000030012D082EA040083EA0501084305D014
:10050000101BAB4106D20122002306E000224FF06F
:10051000004302E06FF0010253101AEB06004CEBAF
:10052000085110EB0A0041EB0B01BDE8F04D00F063
:10053000F8B830B5041E71F1000404DB4FF000443C
:10054000404264EB0101141E73F1000405DB1C46FC
:100550004FF00043524263EB0403101A8B4101D267
:10056000012030BD002030BD0EB5C10F80EAE07023
:100570000844CA07002140F233438DE80E000A46C2
:100580000B4600F0DDF803B000BD70B5C1F30A52B0
:1005900001F000450024C1F3130140F2FF3341F4A0
:1005A00080119A4201DA002070BD40F233439A4232
:1005B000A2F2334203DC524200F05AF800E09040CD
:1005C0002C43F1D0404270BD00F0004230F00040BA
:1005D0000AD0C10D01F56071C0F3160042EA015165
:1005E000C20840071143704700200146704701F0E0
:1005F000004330B421F0004150EA010206D00A0D58
:10060000A2F56072C1F31301002A02DC30BC0020A5
:100610007047440F44EAC104C100E01830BC00EB4D
:10062000C25000F047B830B50B46014600202022EA
:10063000012409E021FA02F59D4205D303FA02F5EF
:10064000491B04FA02F52844151EA2F10102F1DC4F
:1006500030BD202A04DB203A00FA02F10020704766
:100660009140C2F1200320FA03F3194390407047F0
:10067000202A04DB203A21FA02F00021704721FAF7
:1006800002F3D040C2F1200291400843194670475E
:10069000202A06DBCB17203A41FA02F043EAE07346
:1006A00006E041FA02F3D040C2F120029140084333
:1006B000194670470029A8BF7047401C490008BF71
:1006C00020F00100704710B4B0FA80FC00FA0CF082
:1006D00050EA010404BF10BC704749B1CCF12004BA
:1006E00021FA04F411FA0CF118BF01212143084347
:1006F000A3EB0C01CB1D4FEA00614FEA102042BF73
:10070000002010BC704700EBC35010440029A4BF68
:1007100010BC7047401C490008BF20F0010010BC0D
:10072000704710B5141E73F1000408DA401C41F143
:10073000000192185B411A4301D120F0010010BD65
:100740002DE9F04D92469B4611B1B1FA81F202E0DB
:10075000B0FA80F220329046FFF77BFF04460F4646
:1007600040EA0A0041EA0B0153465A46084313D0B7
:10077000114653EA010019D0C8F140025046FFF774
:1007800077FF05460E46504659464246FFF761FF41
:10079000084305D0012004E020463946BDE8F08D2D
:1007A0000020054346EAE0762C4337430A98630568
:1007B000E40AA0EB08000022FD0A44EA47540A308C
:1007C00002D500200146E9E7010510196941DDE97C
:1007D000084500196941BDE8F04DA2E7C1F30A528E
:1007E000C1F3130140F2FF3341F480119A4202DA5F
:1007F00000200146704740F233439A42A2F233424E
:1008000002DC5242FFF734BFFFF723BF30B5041EAE
:1008100071F1000404DB4FF00044404264EB01013D
:10082000141E73F1000405DB1C464FF000435242D6
:1008300063EB0403994208BF904230BD064C074D5C
:1008400006E0E06840F0010394E8070098471034A0
:10085000AC42F6D3FFF79CFC2C5F00084C5F00080D
:100860000EB540F2334102910021CDE900110A4654
:100870000B46FFF765FF03B000BD0000FEE7000078
:1008800040F23010C2F2000000F004BD80B540F22A
:100890003010C2F2000001210022C0E9111101460E
:1008A00041F8282FC0E90B22C0E90D22C0E90F2230
:1008B00000F0EEFB002818BF00F088F840F230107E
:1008C000C2F2000000F052FF20B10BA004F028F8A3
:1008D00000F07CF840F23010C2F20000022100F07B
:1008E0005FFB002808BF80BD09A004F019F8BDE82F
:1008F000804000F06BB800BF0A43414E315F537433
:10090000617274204661696C6564212100000000F9
:100910000A52585F4649464F305F537461727420E3
:100920004661696C65642121000000007047000089
:1009300070B5002808BF70BD40F2C8650446C2F219
:100940000005002605E000BF2846013C01F062FDDD
:10095000C4B128684662284601F00AFD286800BF35
:10096000416AC9087C29EFD8416AC9087C29EBD8BB
:10097000416AC9087C29E7D8416AB1F57A7FEFD38B
:10098000E2E700BF70BD0000B0B540F2C865C2F23A
:1009900000050446286800214162284601F0E8FC71
:1009A000286800BF416AA14208D2416AA14205D22B
:1009B000416AA14202D2416AA142F3D340F2C86027
:1009C000C2F20000BDE8B04001F024BDEFF310809A
:1009D00072B600BFFEE7000070B581B00022009241
:1009E00090F83C20012A03D10221084601B070BDD5
:1009F0000E6801220A2E80F83C2009D3B2B25200C0
:100A0000D0F800E012FA86F21E3A0EF10C0305E06F
:100A1000D0F800E006EB46020EF110034FF0070C91
:100A20001D680CFA02F4A5431D608D681C6805FA68
:100A300002F222431A60496806290FD801EB8101AE
:100A40004A1F71461F2351F8345F934025EA030380
:100A50000B60B3B203FA02F214E000BF01EB8103B2
:100A60000C29B2B204D8714651F8304F233B03E051
:100A7000714651F82C4F413B1F259D4024EA050546
:100A80009A400D600B6842F2043CC4F2010C1A4318
:100A9000ACF541739E450A603BD1122E06D1DCF8BD
:100AA000001041F48001CCF8001032E026F0010182
:100AB00010292ED1DCF80010102E41F40001CCF8E2
:100AC000001026D140F21C01C2F2000109684DF667
:100AD0008362C4F21B32A1FB0212910C01EB810173
:100AE000490000910099A1B1009901390091009944
:100AF00079B1009901390091009951B100990139FA
:100B00000091009929B100990139009100990029BB
:100B1000EAD1002180F83C10084601B070BD000009
:100B2000006C70470068C06C70470000002804BF6C
:100B30000120704710B50446006C00283ED0206CA0
:100B4000C00645D4206C41F202118843023042F2C3
:100B500004312064C4F20101086820F440300860C8
:100B60000A6894E809101A43D4F810E00A60416852
:100B7000012321F4807141604168C0F6007341EAAD
:100B80000E214160416821F040714160416841EAB5
:100B90000C014160816821F400618160E168826834
:100BA00011438160A16A8268994222F0706282607A
:100BB000826813D122F0405119E000BF204600F0B6
:100BC00065F80020606484F83C00206CC006B9D54C
:100BD0000120002184F83C1010BD00BF114381604A
:100BE000816821F040518160E16A8268114381602F
:100BF000816821F0020181608168227E94F82030B2
:100C000041EA42018160416883B141F40061416081
:100C100041684EF2000221F460414160616ACFF602
:100C2000FF72436802EB4131194301E021F4006196
:100C30004160C16A40F2000C21F47001C162E269B6
:100C40006169CFF6F07CC36A0CEB02521A43C262B0
:100C5000826822F40072826094F83020836843EA4C
:100C600042228260826822F480628260826842EA64
:100C70008121816000206064216C012262F3010106
:100C80002164002184F83C1010BD0000F0B587B04D
:100C900042F200050068C4F201050026A84206964B
:100CA000059601D007B0F0BD43F630000196C4F2BE
:100CB0000200416902AC41F480714161416903273E
:100CC00001F48071019101990196016841F00101DF
:100CD0000160016801F0010101910199019601682B
:100CE00041F0020101600068214600F0020001901D
:100CF00001986020029005F56040CDE9037600F090
:100D0000DFFD05F564402146CDE90277049600F049
:100D1000D7FD07B0F0BD000070B5044600680D4671
:100D20008268520544BF80685FEAC05038D400F042
:100D30009BFE21680A68920749D40646681C3CD08D
:100D4000DDB90868800721D5086880073FD40868A6
:100D500080071BD50868800739D40868800715D537
:100D60000868800733D4086880070FD508688007B3
:100D7000E7D52CE00868800729D400F075FE801BB9
:100D80002168A842F6D908688007F3D4206C40F0A7
:100D900004002064002084F83C00032070BD00BFE4
:100DA000206C40F020002064002084F83C000120EA
:100DB00070BD00BF0868800709D40868800706D4A2
:100DC000086880075CBF08685FEA8070F2D56FF042
:100DD00012000860206C40F400702064886810F0F5
:100DE000405F01D1207E08B1002070BDC86A10F4B8
:100DF000700F02D088684005F6D4206C20F4807013
:100E00002064206CC004EFD4206C40F0010020640A
:100E1000002070BD10B581B00021009190F83C1009
:100E2000012903D1022001B010BD00BF04680121D7
:100E300080F83C10214651F8083FDB0729D10B68A8
:100E40004DF6836243F001030B6040F21C03C2F2D3
:100E500000031B68C4F21B32A3FB02239A0C02EBB3
:100E600042020092009AA2B1009A013A0092009ABE
:100E70007AB1009A013A0092009A52B1009A013A6E
:100E80000092009A2AB1009A013A0092009A002A30
:100E9000EAD10A68036CD2070AD143F01001016459
:100EA00000F1440101200A681043086056E000BFC9
:100EB00040F2017223EA020202F580720264626863
:100EC000520504D5026C012363F30D320264026CF7
:100ED0004FF0000E0023D20444BF426C22F0060300
:100EE00042F2043C436480F83CE06FF02200C4F21C
:100EF000010C2060DCF80000C0060DD0ACF541709C
:100F000084422BD14FF60450CFF6FF705CF80000FE
:100F100010F0405F22D125E042F20000C4F201004F
:100F2000844217D042F20020C4F2010084420DD066
:100F300042F20010C4F2010084420FD1DCF800003C
:100F4000C00607D0ACF58270844207D1DCF80000FF
:100F5000C00603D4086810F0405F03D0002001B041
:100F600010BD00BF4FF080409DE7000090F83C109E
:100F7000012904BF0220704701688A6822F001023B
:100F80008A608968C90705D1016C41F20112914359
:100F900001310164002180F83C10084670470000D0
:100FA00090F82020013A012A08D8006800F11402C4
:100FB0000020136819431160704700BF00F124023C
:100FC00001204FF48021136819431160704700001D
:100FD00010B590F820E0D0F800C0AEF1010EBEF1DF
:100FE000010FDCF808E011D81EF0E05F18D0CEF356
:100FF000016EBEF1030F1DD100F1240101204FF459
:1010000000020B681A430A6010BD00BF00F1240102
:1010100001204FF480220B681A430A6010BD00BF04
:1010200000F1240101204FF400120B681A430A60FA
:1010300010BD00BF012000FA0EF01860886828B1CA
:101040004B68CC6844EAC303034303E00868CB68F9
:1010500043EA40530CEB0E10C0F880310B69C0F826
:101060008431097D012905D100F5C2710B6843F473
:1010700080730B605168C0F88C11126800F5C07164
:10108000C0F88821002001220B681A430A6010BDB5
:10109000B0B590F82020013A012A2FD846F200601E
:1010A000C4F20000026842F001020260026822F409
:1010B0007C520260D1F814E0CC694A6A0368012CC2
:1010C00043EA022202600EF01F024FF0010303FA0E
:1010D00002F2C3696FEA020C23EA0203C36113D070
:1010E0002CBBC36803EA0C03C360CB688C8844EA5A
:1010F000034300EBCE0423640B4611E0416A41F444
:10110000802141620120B0BDC3681343C3600B68F6
:101110008C8844EA034300EBCE04236401F10C0302
:101120008C681B8843EA044300EBCE046364436885
:101130008D6943EA0204D1F810E0096A002D08BF66
:1011400003EA0C0444604369BEF1000F43EA020461
:1011500008BF03EA0C040129446102D1C1691143AB
:10116000C161016821F0010101600020B0BD0000F3
:101170007047000010B590F82040013C012C71D858
:10118000D0F800C0002977D0DCF81040A40777D051
:101190000CEB011CDCF8B0410CF5D87E14F0040413
:1011A0009460DCF8B04119BFE4085460640D146029
:1011B000DEF80040002904F00204D460DCF8B441F9
:1011C00004F00F041461DCF8B441C4F30724946103
:1011D000DCF8B4414FEA14445461DCF8B8211A70C9
:1011E000026802EB0112D2F8B8214FEA12225A70BB
:1011F000026802EB0112D2F8B8214FEA12429A704B
:10120000026802EB0112D2F8B8214FEA1262DA70DA
:10121000026802EB0112D2F8BC211A71026802EBDB
:101220000112D2F8BC214FEA12225A71026802EB75
:101230000112D2F8BC214FEA12429A71026802EB05
:101240000112D2F8BC214FEA1262DA71006814BFB1
:1012500000F1100100F10C01002020220B681A435C
:101260000A6010BD00F1240101204FF480220B68B8
:101270001A430A6010BD00BFDCF80C40A40787D1F8
:1012800000F1240101204FF400120B681A430A6098
:1012900010BD00002DE9F04F81B00446006846699A
:1012A000D0F804908768D0F80CB0D0F810A0D0F82F
:1012B0001880F10704D1002530071DD424E000BFB9
:1012C000F90710D00121BA07816009D4780700F12D
:1012D000AF80380700F1B680204600F075FA02E0D2
:1012E000204600F073FA0025F80500F18780F80326
:1012F00000F1B180300707D51BF0100004D0206842
:1013000045F400751021C160700708D51BF0080076
:1013100005D020680821C160204600F0A3F9B0077D
:1013200006D52068C068800702D0204600F09CF9EE
:10133000700607D51AF0100004D0206845F48065C7
:1013400010210161B00608D51AF0080005D0206808
:1013500008210161204600F003FAF00606D5206856
:101360000069800702D0204600F0FCF9B00308D5E0
:1013700019F0100005D0206810214160204600F0CF
:10138000F3F9F00308D519F0080005D0206808210A
:101390004160204600F024FA300440F19B805FEA6F
:1013A000497040F1948006F4807008EA10202843C8
:1013B0005FEA8871014648BF41F00201B20558BF9B
:1013C00001465FEA48700D4648BF45F004057005C8
:1013D00058BF0D46300540F17A8018F0700000F0DB
:1013E00076801038000905286CD8DFE800F0035932
:1013F0005D61656945F0080564E000BF20684FF451
:101400008071BA0581600BD4780515D438051DD4D8
:10141000204600F0DDF9F8037FF56CAF1BE000BF5C
:10142000204600F0D7F9F8037FF564AF13E000BF62
:101430004FF4006558E700BF05F50055F8037FF548
:1014400059AF08E04FF480554EE700BF05F58045E1
:10145000F8037FF54FAF20684FF48031BA03816005
:101460000AD4780310D4380314D4204600F0B4F919
:1014700030073FF541AF47E7204600F0AFF93007AE
:101480003FF53AAF40E700BF05F5004530073FF5AF
:1014900033AF39E705F5803530073FF52DAF33E73A
:1014A00045F010050EE000BF45F020050AE000BF42
:1014B00045F0400506E000BF45F0800502E000BFB2
:1014C00045F480752068816921F070018161206890
:1014D0000421416055B1606A40EA0501204661621D
:1014E00001B0BDE8F04FFFF743BE00BF01B0BDE85B
:1014F000F08F0000B0B5C8B1044690F8200010B9D4
:10150000204600F071F82068016841F00101016097
:1015100000F0AAFA054600BF20684168C90707D154
:1015200000F0A2FA401B0B28F6D312E00120B0BD58
:10153000016821F00201016000F096FA054600BF43
:101540002068416889070DD500F08EFA401B0B28F2
:10155000F6D3606A052140F400306062012084F80F
:101560002010B0BD217E0268012922F0800208BF50
:1015700080320260617E0268012922F0400208BFC9
:1015800040320260A17E0268012922F0200208BFD9
:1015900020320260E17E0268012922F0100218BFA9
:1015A00010320260217F0268012922F0080208BF80
:1015B00008320260617F0268012922F0040208BF3C
:1015C00004320260D4E901C2D4E9033561691A43E7
:1015D0002A431143ACF101021143C16100200121F2
:1015E000606284F82010B0BD80B586B0016846F214
:1015F0000040C4F20000814202D006B080BD00BFAE
:10160000002143F630020191C4F20202136900F591
:10161000CE3043F000731361136903F0007301933C
:10162000019B0191136843F001031360126802F0FB
:1016300001020192019A4FF4C05201920222CDE9B7
:101640000221032104910921059101A900F038F933
:1016500014200021002200F08BFA142000F074FA0C
:1016600006B080BD7047000080B582B0026846F2C7
:101670000043C4F2000300219A420191009101D07D
:1016800002B080BD40F20462C2F200026B4600214B
:10169000FFF770FD0028F3D19DF801209DF802109E
:1016A0009DF805002B2A08BFE82915D02B2A08BF72
:1016B000E2291DD09DF800009B2825DC332831D07D
:1016C000922843D1DDE9000140F2B812C2F20002D3
:1016D0005160106002B080BDE928E7D1DDE900016A
:1016E00040F29412C2F200025160106002B080BD5C
:1016F000E428DFD1DDE9000140F29C12C2F20002D1
:101700005160106002B080BD9C2815D0A4281DD166
:10171000DDE9000140F2C812C2F20002516010601F
:1017200002B080BDDDE9000140F2D012C2F2000239
:101730005160106002B080BDDDE9000140F2C012CE
:10174000C2F200025160106002B080BDDDE900010C
:1017500040F2B012C2F200025160106002B080BDCF
:10176000704700007047000070470000B0B50446A5
:1017700090F8200001281DD1022084F82000206864
:10178000016821F00101016000F06EF9054600BF1B
:1017900020684068C00713D000F066F9401B0B2892
:1017A000F6D3606A40F400306062052084F82000BF
:1017B0000120B0BD606A40F4002060620120B0BD2D
:1017C00000206062B0BD000070470000704700005C
:1017D000704700007047000070470000704700002D
:1017E0007047000070B5866D044600F03DF994F82E
:1017F0003510022928D105462068216C026822F0A4
:1018000016020260426922F08002426109B9A16CAD
:1018100019B1016821F008010160016821F001019E
:10182000016000BF20680068C00715D000F01CF9F7
:10183000401B0628F6D320206065032084F835007D
:10184000002184F8341070BD8020606501200021E3
:1018500084F8341070BD00BFE06D3F2101FA00F044
:10186000B060012084F835000020002184F8341095
:1018700070BD000090F83510022909D1052180F8CB
:1018800035100068016821F00101016000207047F7
:101890008021416501207047B0B5044600F0E4F8AE
:1018A000054640F21400C2F200000078611C18BF27
:1018B000044400BF00F0D8F8401BA042FAD3B0BDEA
:1018C0002DE9F04F82B000F13E4241F6004502F1B1
:1018D000FF77C4F20205082243F6004E4FEAB7260E
:1018E000A84208BF0722C4F2010E072E38BF4FEAF4
:1018F000B7220125002600274FF00008009208E0DB
:1019000008F101080437B8F1100F06F1020600F0E3
:10191000A7800C6805FA08F914EA090FF0D0D1F88D
:1019200004B003220BF0030CACF10104B240012C13
:101930006FEA020A10D88268CC6802EA0A02B44050
:10194000224382604268CBF3001422EA090204FABF
:1019500008F42243426005E0BCF1030F02D14FF0CE
:10196000030C20E0C2688C6802EA0A02B4402243F9
:10197000BCF1020FC26016D16FF0030202EA5802F6
:101980000244D2F820C007F01C050F230C69AB40BD
:101990002CEA030304FA05F52B431362D1F804B0D3
:1019A00001250BF0030C02680CFA06F302EA0A02A6
:1019B0001A431BF4403F0260A2D0002243F64403C6
:1019C0000192C4F202031A684FF6084C42F48042B6
:1019D0001A601A68CFF6FF7C02F480420192019AE5
:1019E00028F00302724452F80C3007F00C050F2463
:1019F000AC40A343009C04FA05F52B4342F80C309D
:101A0000DEF808204B6842EA090543F60C4CDC027C
:101A100058BF22EA0905CEF80850C4F2010CDCF8E0
:101A200000209C0242EA090558BF22EA0905CCF8C9
:101A30000050DEF804209C0342EA090558BF22EA60
:101A40000905CEF80450DEF80020DB0342EA090560
:101A500058BF22EA0905CEF80050012550E700BF23
:101A600002B0BDE8F08F000040F2E070C2F200006A
:101A70000068704740F2140040F2E071C2F20000CA
:101A8000C2F2000100780A68104408607047000044
:101A900080B543F60040C4F20200016841F40071D1
:101AA0000160016841F480610160016841F4807166
:101AB0000160032000F088F80F2000F005F800F026
:101AC00027F8002080BD000070B540F21406C2F275
:101AD000000640F21C013278C2F200014FF47A7322
:101AE0000968B3FBF2F20446B1FBF2F1084600F0DC
:101AF00043FB0F2C4FF0010508D838B94FF0FF30E9
:101B000021460022002500F033F87460284670BD9D
:101B100082B0002043F640010190C4F202014A68FD
:101B200042F480424A604A6802F480420192019A7B
:101B30000090086840F080500860086800F080500D
:101B40000090009802B07047002848BF7047C1B2AB
:101B500000F01F00012202FA00F04EF20012CEF255
:101B6000000242EAD10121F0030108607047000041
:101B700010B54EF60C5CCEF2000CDCF80030C3F36E
:101B8000022E8EF00704042C28BF0424BEF10303A8
:101B90004FF0FF3E0EFA04F438BF0023A1439940F2
:101BA0000EFA03F39A43114300F00F0200F1604371
:101BB0000901043A03F564436244002848BF02F176
:101BC0000C03197010BD00004EF60C51CEF200014E
:101BD0000A684FF6FF031A4060F30A2242F0806061
:101BE00040F0FD70086070472DE9F041002800F0DA
:101BF0008B8043F60808C4F202080446D8F8F803BC
:101C00000D4600F00700884207D288F8F853D8F84C
:101C1000F80300F00700A84276D12068810717D5A5
:101C2000410705D5D8F8001041F4E051C8F800107C
:101C3000010705D5D8F8001041F46041C8F800103C
:101C4000D8F80010A26821F0F0011143C8F8001084
:101C5000C0073FD1D8F8F80300F00700A84207D921
:101C600088F8F853D8F8F80300F00700A8424BD1E1
:101C70002068410707D5D8F80010E26821F4E05148
:101C80001143C8F80010000708D5D8F800002169F2
:101C900020F4604040EAC100C8F8000000F07CF881
:101CA000D8F8001045F67052C1F30311C0F60002D7
:101CB000515C40F21C0220FA01F140F21800C2F21D
:101CC00000000068C2F200021160FFF7FDFE002074
:101CD000BDE8F0816068811E022907D258F8081C0F
:101CE00089015CBF0120BDE8F08111E0012807D126
:101CF00058F8081C89035CBF0120BDE8F08107E0AB
:101D000058F8081C890703D40120BDE8F08100BF02
:101D1000D8F8001021F003010843C8F80000FFF7CD
:101D2000A3FE064641F28837D8F80000616800F04B
:101D30000C00B0EB810F8DD0FFF796FE801BB842F0
:101D4000F2D90320BDE8F08140F21C0043F60801FF
:101D5000C2F20000C4F202010068096845F6805230
:101D6000C1F38221C0F60002515CC84070470000F8
:101D700040F21C0043F60801C2F20000C4F2020166
:101D80000068096845F68052C1F34231C0F600028E
:101D9000515CC8407047000010B543F60404C4F21B
:101DA0000204606800F00C0008280BD0042819BF5A
:101DB00042F20040C0F2F40047F64000C0F27D104D
:101DC00010BD00BF206821682368490247F6400122
:101DD000C0F27D1100F03F02C3F388105CBF42F2F5
:101DE0000041C0F2F401A1FB00010023FEF7E8F975
:101DF00021680222C1F3014102EB4101B0FBF1F085
:101E000010BD00002DE9F04182B0002868D00446E2
:101E1000007843F60006C007C4F202060BD0B06893
:101E200000F00C00042840F09F803068800302D549
:101E30006068002854D0207880071AD5B06810F068
:101E40000C0F09D0B06800F00C00082840F0A68004
:101E50007068400200F1A2803068800702D5E06817
:101E600001283DD13068216920F0F80040EAC10026
:101E700030602078000737D4207840074CD4A5691B
:101E800055B3B06800F00C00082840F0BB80012D6D
:101E900026D07068E16900F480028A4220D1216A6C
:101EA00000F03F028A421BD147F6C071626A0140CE
:101EB000B1EB821F14D1A16A4FF6FF73C903994396
:101EC00000F44032A1F580318A4209D1E16A00F084
:101ED0007060B0EB016F03D1002002B0BDE8F0816B
:101EE000012002B0BDE8F0816069002840F20000E6
:101EF000C4F2472076D00121C0F8801EFFF7B4FD60
:101F0000054600BF706F8007B6D4FFF7ADFD401BDC
:101F10000228F7D9DDE000BF306C10F080580AD1FC
:101F200000200190306C40F080503064306C00F044
:101F300080500190019847F20007C4F2000738680A
:101F4000C00541D4386840F480703860FFF78CFDDC
:101F5000054600BF3868C00536D4FFF785FD401B35
:101F60000228F7D9B5E000BFB06800F00C000828DF
:101F700003D1706840023FF558AF6068B0F5803F0C
:101F800007D0B0F5A02F40F08D80306840F480205D
:101F90003060306840F4803030608DE0E0680028C8
:101FA00052D00020C4F2472001210160FFF75CFD00
:101FB000054600BF306880073FF554AFFFF754FD7A
:101FC000401B0228F6D984E0A068012805D0052826
:101FD0004ED1306F40F004003067306F40F00100A8
:101FE00030674FE00021C0F8801EFFF73DFD054639
:101FF000706F80077FF540AFFFF736FD401B02286A
:10200000F6D966E00027C4F2472700203866FFF7BC
:102010002BFD022D05460BD1306880015ED5FFF700
:1020200023FD401B02284FF00300F5D955E700BF00
:10203000306880017FF550AFFFF716FD401B022886
:102040004FF00300F4D948E70020C4F247200021F4
:102050000160FFF709FD0546306880077FF509AF8D
:10206000FFF702FD401B02284FF00300F4D934E7CC
:10207000316F002821F001013167316F21F0040137
:1020800031674DD0FFF7F0FC054641F2883700BFBD
:10209000306F800756D4FFF7E7FC401BB842F7D9F2
:1020A00017E000BF3168002821F4803131603168C9
:1020B00021F4802131604FD0FFF7D6FC054600BFE8
:1020C000306880033FF5B7AEFFF7CEFC401B6428B5
:1020D000F6D9032002B0BDE8F08100BF04F11C0571
:1020E0002FCD084340EA8210D9034FF6FF72914387
:1020F000A1F5803140EA0560084370600120386630
:10210000FFF7B2FC044600BF306880013FF5E4AE43
:10211000FFF7AAFC001B02284FF00300F4D9DCE60D
:10212000FFF7A2FC054641F2883700BF306F8007F9
:1021300008D5FFF799FC401BB8424FF00300F5D9D2
:10214000CBE600BFB8F1000F7FF499AE306C20F001
:102150008050306493E600BFFFF786FC054600BF61
:10216000306880037FF567AEFFF77EFC401B642874
:102170004FF00300F4D9B0E6411E0020B0EB116F20
:102180001CBF012070474EF21002CEF200025160D7
:102190004EF62351CEF20001F0230B700721906020
:1021A00011607047704700007047000010B590F84C
:1021B0003C20012A4FF0020251D080F83D200268F5
:1021C000D2F804E0D2F808C00C682EF07003234364
:1021D00041F2FF74C4F20004A24253600EDC40F2EC
:1021E000FF73C4F200039A4216DCB2F1804F2BD089
:1021F00040F20043C4F2000324E000BF40F2FF338A
:10220000C4F201039A4213DC41F60003C4F2000356
:102210009A4219D0002313E040F60003C4F20003F1
:102220009A4211D040F60043C4F200030AE000BF16
:1022300044F20003C4F201039A4205D040F2004385
:10224000C4F201039A4204D149682CF08003194377
:1022500091600121002280F83D1080F83C2010465A
:1022600010BD0000002804BF0120704710B50446CF
:1022700090F83D0028B9002084F83C00204600F08A
:102280001FF8022084F83D002068211D01F0FAFAB1
:10229000012084F8460084F83E0084F83F0084F86A
:1022A000400084F8410084F8420084F8430084F838
:1022B000440084F8450084F83D00002010BD000073
:1022C00080B584B0006840F60001C4F20001884285
:1022D00022D040F20041C4F20001884236D0B0F171
:1022E000804F42D10020039043F64000C4F2020028
:1022F0000168002241F0010101600068022100F044
:102300000100039003981C20FFF732FC1C2004B04E
:10231000BDE88040FFF718BC0020019043F6400064
:10232000C4F202000168002241F00401016000686B
:10233000032100F00400019001981E20FFF718FC13
:102340001E2004B0BDE88040FFF7FEBB00200290D5
:1023500043F64000C4F20200016841F0020101604E
:10236000006800F002000290029804B080BD0000F6
:1023700090F83D1001291CBF01207047022180F810
:102380003D10006841F2FF71C4F2000188420DDC8B
:1023900040F2FF71C4F20001884215DCB0F1804FB9
:1023A0002AD040F20041C4F2000123E040F2FF31A4
:1023B000C4F20101884213DC41F60001C4F20001BD
:1023C000884219D0002113E040F60001C4F2000158
:1023D000884211D040F60041C4F200010AE000BF7B
:1023E00044F20001C4F20101884205D040F20041EC
:1023F000C4F20101884206D1816801F00701062973
:1024000004BF00207047016841F001010160002015
:10241000704700000146006841F21113026A1A4237
:1024200004D00122002081F83D207047026A40F26A
:1024300044431A42F5D1026822F0010202600122EF
:10244000002081F83D2070470146006841F21113D9
:10245000C26822F00102C260026A1A4204D001225C
:10246000002081F83D207047026A40F244431A423E
:10247000F5D1026822F0010202600122002081F8F9
:102480003D20704780B590F83C20012A4FF00202B1
:1024900000F0C28080F83D20D0F800C04FF677727F
:1024A000DCF8083023EA0202CCF808200B684F2B36
:1024B00028DC1F2B44DD202B45D0302B43D0402B74
:1024C00040F0AC80D1F804E0C968DCF82030DCF8DA
:1024D000202022F00102CCF82020DCF8182022F085
:1024E000F00242EA011123F00A0242EA0E02CCF89D
:1024F0001810CCF82020DCF8081041F0470121F03A
:10250000300180E06F2B27DDB3F5005F48D0B3F5D5
:10251000805F7AD0702B40F08180D1E901E3C968F7
:10252000DCF8082043EA0E0322F47F4243EA01214B
:102530001143CCF80810DCF8081041F0770162E094
:102540000BB1102B6AD1DCF8081021F0700119438F
:1025500041F0070157E000BF502B35D0602B5DD113
:10256000D1F804E0C968DCF8203023F01003CCF87F
:102570002030DCF81830DCF8202023F4704322F0FF
:10258000A00243EA013142EA0E12CCF81810CCF84E
:102590002020DCF8081041F0670121F0100132E042
:1025A000D1E901E3C968DCF8082043EA0E0322F40C
:1025B0007F4243EA01211143CCF80810DCF80810EF
:1025C00041F480411FE000BFD1F804E0C968DCF8A5
:1025D0002030DCF8202022F00102CCF82020DCF8AA
:1025E000182022F0F00242EA011123F00A0242EA26
:1025F0000E02CCF81810CCF82020DCF8081041F0BE
:10260000570121F02001CCF808100022012180F8A8
:102610003D10002180F83C10104680BD0122F5E7F6
:102620007047000010B5016804460869800744BF80
:10263000C8685FEA807039D40869400744BFC86839
:102640005FEA40703ED40869000744BFC8685FEA8B
:10265000007045D40869C00644BFC8685FEAC0601E
:102660004AD40869C0071CBFC8685FEAC07051D16E
:102670000869000644BFC8685FEA006052D4086970
:10268000400644BFC8685FEA406053D408698006CA
:1026900046BFC8685FEA806010BD6FF02002204628
:1026A0000A61BDE81040FFF77FBD00BF6FF0020078
:1026B0000861012020778869800743D02046FFF712
:1026C000AFFF45E06FF004000861022020778869C1
:1026D00010F4407F40D02046FFF7A2FF42E000BF49
:1026E0006FF00800086104202077C86980073DD09A
:1026F0002046FFF795FF3FE06FF0100008610820CB
:102700002077C86910F4407F3AD02046FFF788FF51
:102710003CE000BF6FF001000861204600F03EF889
:102720002168A5E76FF0800008612046FFF73AFDB9
:102730002168A4E76FF040000861204600F066F8C9
:102740002168A3E7204600F025F8204600F024F891
:102750002168002020776FE7204600F01BF8204614
:1027600000F01AF82168002020776CE7204600F07E
:1027700011F8204600F010F821680020207769E762
:10278000204600F007F8204600F006F821680020F7
:10279000207766E7704700007047000010B50446D8
:1027A0000068B0F1804F07D040F60001C4F200018C
:1027B00088420AD010BD00BF01F076FE206840F6C6
:1027C0000001C4F200018842F4D140F28210C2F24A
:1027D0000000018841F2111241F40041018040F2F1
:1027E0001070C2F2000000686FF001010161016A1F
:1027F0001142DFD1016A40F24442114218BF10BDBC
:10280000016821F00101016010BD00007047000067
:102810007047000070470000B0B582B00446006801
:102820000168C368426901F02F05202D03F02005DF
:1028300006D12DB1204602B0BDE8B04001F0C6B8C7
:102840005FEA017C1EBF02F0010E03F4907212EBEE
:102850000E0253D1226B012A05D111F0100218BFCC
:1028600013F0100236D10A0622D513F080021FD0D1
:1028700094F83D1021293FD1A168B1F5805F03D1C3
:102880002169002900F07282216A4A1C22620978BB
:102890004160E18C01390A04E1842DD1C16821F045
:1028A0008001C160C16841F04001C16002B0B0BDAB
:1028B000490621D513F040011ED0C16821F0400126
:1028C000C1602021204684F83D1002B0BDE8B04030
:1028D00000F092BC002101910168019141680191D1
:1028E00001994069400613D4A08DE18DE28D002A44
:1028F00018BF884240F0BE8102B0B0BDCA0718BF01
:1029000013F4807240F0BA804A0700F1BD80C2E043
:10291000A16B0868426893B2002BEDD0A08D834272
:10292000EAD2E285C969B1F5807F00F09D80206818
:1029300050E8030F216820F4807041E80302DAB107
:10294000206850E8030F216820F4807041E80302FA
:1029500092B1206850E8030F216820F4807041E8AC
:1029600003024AB1206850E8030F216820F4807008
:1029700041E80302002ADAD1206850E8050F2168F7
:1029800020F0010041E80502DAB1206850E8050FA7
:10299000216820F0010041E8050292B1206850E86A
:1029A000050F216820F0010041E805024AB12068C6
:1029B00050E8050F216820F0010041E80502002AD7
:1029C000DAD1206850E8050F216820F0400041E886
:1029D0000502DAB1206850E8050F216820F04000B8
:1029E00041E8050292B1206850E8050F216820F007
:1029F000400041E805024AB1206850E8050F21680F
:102A000020F0400041E80502002ADAD1202084F8B5
:102A10003E0000202063206850E8030F216820F06A
:102A2000100041E80302DAB1206850E8030F216882
:102A300020F0100041E8030292B1206850E8030F33
:102A4000216820F0100041E803024AB1206850E8F4
:102A5000030F216820F0100041E80302002ADAD1B8
:102A6000A06BFEF7BFFEA08DE18D401A81B220461B
:102A700002B0BDE8B040FFF7CBBE00BF226C42F011
:102A8000010222644A0706D5BEF1000F03D0226C72
:102A900042F0020222648A0706D5BEF1000F03D07D
:102AA000226C42F004022264BCF1000F09D545EA11
:102AB0000E02B2FA82F2520903D1226C42F00802ED
:102AC0002264226C002A3FF417AF11F0200118BFD6
:102AD000002D03D0204600F079FF20684069216C6A
:102AE00000F0400001F00801401800F0B58000BF80
:102AF000206850E8030F216820F4907041E8030239
:102B0000BAB3206850E8030F216820F4907041E8C0
:102B1000030272B3206850E8030F216820F490701C
:102B200041E803022AB3206850E8030F216820F42B
:102B3000907041E80302002ADAD11AE0206850E8D8
:102B4000050F216820F0010041E80502DAB1206894
:102B500050E8050F216820F0010041E8050292B11C
:102B6000206850E8050F216820F0010041E80502C7
:102B70004AB1206850E8050F216820F0010041E8C3
:102B80000502002ADAD1206B012824D1206850E800
:102B9000030F216820F0100041E80302DAB1206839
:102BA00050E8030F216820F0100041E8030292B1C1
:102BB000206850E8030F216820F0100041E803026C
:102BC0004AB1206850E8030F216820F0100041E866
:102BD0000302002ADAD1202084F83E00002020637E
:102BE0002068406940063FD5206850E8050F2168FD
:102BF00020F0400041E80502DAB1206850E8050FF6
:102C0000216820F0400041E8050292B1206850E8B8
:102C1000050F216820F0400041E805024AB1206814
:102C200050E8050F216820F0400041E80502002A25
:102C3000DAD1A06BC0B143F6C111C0F60001016545
:102C4000FEF718FE00283FF457AEA06B016D02B0EE
:102C5000BDE8B040084700BF2046FFF7DBFD00207D
:102C6000206402B0B0BD00BF204602B0BDE8B04055
:102C7000FFF7D0BD401A216851E8031F226821F4F4
:102C8000907142E80313DBB1216851E8031F226809
:102C900021F4907142E8031393B1216851E8031FB6
:102CA000226821F4907142E803134BB1216851E886
:102CB000031F226821F4907142E80313002BDAD13C
:102CC000216851E8051F226821F0010142E805133F
:102CD000DBB1216851E8051F226821F0010142E8BB
:102CE000051393B1216851E8051F226821F0010105
:102CF00042E805134BB1216851E8051F226821F015
:102D0000010142E80513002BDAD1202184F83E109E
:102D100000212163216851E8031F226821F010017E
:102D200042E80313002B3FF4A1AE216851E8031FD2
:102D3000226821F0100142E80313002B3FF496AE05
:102D4000216851E8031F226821F0100142E80313B3
:102D5000002B3FF48BAE216851E8031F226821F05D
:102D6000100142E80313002BD4D17FE6216A31F829
:102D7000022B6FF35F22426021628AE5002804BFC4
:102D80000120704710B5044690F83D0028B9002096
:102D900084F83C00204600F021F8242084F83D000F
:102DA0002068C16821F40051C160204600F08EFE09
:102DB0002068016921F490410161416921F02A01F3
:102DC0004161C16841F40051C160002020212064AC
:102DD00084F83D1084F83E1010BD000010B586B098
:102DE000006844F60002C4F2000200219042CDE9DE
:102DF0000411CDE90211019126D041F20001C4F283
:102E00000101884254D1002043F630010090C4F201
:102E100002014A69252442F010024A614A6902F01F
:102E200010020092009A0090086840F001000860CB
:102E300008684FF4C06100F0010000900098002085
:102E4000C4F2020020E000BF43F630000091C4F25B
:102E500002000269272442F480220261026902F41E
:102E600080220092009A0091016841F00201016005
:102E700000684FF4406100F00200009000980020CC
:102E8000C4F2020000F5806001910221029100214C
:102E90000391032104910721059101A9FEF710FD7B
:102EA000204603210022FEF763FE2046FEF74CFE7B
:102EB00006B010BD90F83E30202B0BD100294FF00A
:102EC000010318BF002A01D11846704790F83C3022
:102ED000012B01D10220704700230363816222216C
:102EE0008285C285036480F83E100269016880F81B
:102EF0003C301AB1C86840F48070C860486900234B
:102F000040F001004861C86840F02000C8601846E1
:102F100070470000006844F60001C4F200018842D6
:102F200000D0704740F28010C2F20000B0F90210E9
:102F3000002948BF704789B24A09182A14D840F2BC
:102F40001072C2F2000212680023536219B91368AA
:102F500043F0010313604B1C0278438040F2E020F1
:102F6000C2F200004254704741F400414180704772
:102F70002DE9F04381B0044690F83D0020280DD1A2
:102F80000F4600294FF0010000F0DD801646002AB0
:102F900000F0D98094F83C00012803D1022001B050
:102FA000BDE8F083012084F83C000020206421204B
:102FB0001D4684F83D00FEF757FDA684E684A1680F
:102FC0000646B1F5805F03D12069002800F010812A
:102FD000B8460027002084F83C00E18C20680029D6
:102FE00000F0908005F101090DE000BFB8F1000F7D
:102FF00028D018F8011B4160E18C0139E184E18C93
:10300000002900F07F8001680906EFD4B9F1000FB4
:103010000AD0FDB1FEF728FD801BA8421AD820680F
:1030200001680906F6D5E1E701680906DED4016802
:1030300009065CBF01685FEA0161D7D4016809062F
:10304000F2D5D3E737F8021B4FF000086FF35F218A
:10305000D1E700BF206850E8030F216820F4D0704A
:1030600041E80302BAB3206850E8030F216820F456
:10307000D07041E8030272B3206850E8030F216862
:1030800020F4D07041E803022AB3206850E8030F0F
:10309000216820F4D07041E80302002ADAD11AE056
:1030A000206850E8050F216820F0010041E8050282
:1030B000DAB1206850E8050F216820F0010041E8EE
:1030C000050292B1206850E8050F216820F0010048
:1030D00041E805024AB1206850E8050F216820F058
:1030E000010041E80502002ADAD1202084F83D00E1
:1030F00084F83E00002084F83C00032001B0BDE8C5
:10310000F08300BF0168490619D4FDB1691C0DD1D7
:103110000168490613D4016849065CBF01685FEA8B
:1031200041610CD401684906F2D508E0FEF79CFC29
:10313000801BA8420AD8206800684006F6D52020E7
:1031400084F83D00002001B0BDE8F083206850E81D
:10315000030F216820F4D07041E80302E2B3206835
:1031600050E8030F216820F4D07041E803029AB3BD
:10317000206850E8030F216820F4D07041E8030272
:1031800052B3206850E8030F216820F4D07041E862
:103190000302002ADAD11FE0206850E8050F2168F9
:1031A00020F0010041E80502002A9ED0206850E886
:1031B000050F216820F0010041E80502002A3FF4D4
:1031C00094AF206850E8050F216820F0010041E825
:1031D0000502002A3FF489AF206850E8050F2168F6
:1031E00020F0010041E80502002AD5D17DE700BFAB
:1031F0004FF00008EEE6000070470000FEE7000018
:1032000010B582B04FF42851ADF80010E2218DF8CE
:103210000210E4218DF8051040F220610022C2F274
:10322000000140F284140823C1E90002C2F2000444
:1032300040F23010ADF80320ADF80620C1E90222BB
:103240000B6104F10C03C2F200006A46FDF7C0FEF8
:103250004FF41670FDF798FBB4F81B00C0BAFDF7E9
:1032600083F99FED0F0B53EC102BFDF7F3F8FDF7EF
:10327000BEF9E18B6060C8BAFDF776F99FED0A0BE5
:1032800053EC102BFDF774F89FED090B53EC102B4A
:10329000FDF76EF8FDF7ABF9A06002B010BD00BFFE
:1032A0000000000000005940000000000000203F26
:1032B000000000000070A74010B582B04FF4285104
:1032C000ADF80010E8218DF80210E9218DF8051005
:1032D00040F220610022C2F2000140F2841408236F
:1032E000C1E90002C2F2000440F23010ADF8032040
:1032F000ADF80620C1E902220B6104F10C03C2F211
:1033000000006A46FDF764FE4FF41670FDF73CFBC3
:10331000E18A227DE07C49BA41EA024141EA00604B
:10332000FDF722F99FED060B53EC102BFDF792F8F9
:10333000FDF75DF9206002B010BD00BF00BF00BF07
:10334000000000000088A3402DE9F04F81B02DED72
:10335000028B82B09FED3E1AB5EE002A20EE811A54
:103360009FED3C3A21EE021A81EE031A9FED372AB7
:103370009FED393A20EE028A83461D2240F22065F5
:1033800040F230188DF805204FF48072C2F200052B
:10339000C2F200084FF4D05A002721EE030ABDEE16
:1033A000C00A10EE100A010A8DF8070040F28410DE
:1033B000C2F2000000F10C06ADF803208DF80610F3
:1033C0004FF008096A46404629463346ADF800A04A
:1033D0008DF80270C5E900B7C5E90277C5F810900D
:1033E000FDF7F6FD0120FDF7A3FABDEEC80A10EEC9
:1033F000100A010C020E030A50248DF80240052425
:103400008DF804108DF803208DF807008DF8063034
:103410006A46404629463346ADF800A08DF805407F
:10342000C5E900B7C5E90277C5F81090FDF7D0FDF2
:103430000120FDF77DFA4FF41670FDF7A5FA02B0F2
:10344000BDEC028B01B0BDE8F08F00BF00401C4511
:103450000000704200803B4500000046B0B584B0DB
:1034600040F238600123C2F2000042F2000101255F
:10347000C0F600730024C4F20101C0E9095304231B
:1034800003944FF48032047680F82050C462C36104
:1034900080F8304080E81600C0E903454561FDF73B
:1034A00045FB002818BFFDF791FA0520CDE900057E
:1034B00040F23860C2F2000069460294FDF78CFACF
:1034C000002818BFFDF782FA062000900220019024
:1034D00040F23860C2F200006946FDF77DFA00282C
:1034E00018BFFDF773FA082000900320019040F206
:1034F0003860C2F200006946FDF76EFA002818BF76
:10350000FDF764FA092000900420019040F2386031
:10351000C2F200006946FDF75FFA002818BFFDF708
:1035200055FA04B0B0BD000010B540F2301046F2BC
:103530000041C2F20000C4F2000140F20014032274
:103540000023C0F2010480E80E0000F10C014FF4EA
:10355000102C4FF4001E81E8085084618383FDF72E
:10356000C9FF002808BF10BDBDE81040FDF72EBA06
:1035700083B0002043F630010290C4F202010A68D1
:1035800042F080020A600A6802F080020292029A07
:1035900001900A6842F001020A600A6802F0010222
:1035A0000192019A0090086840F0020008600868E3
:1035B00000F002000090009803B0704780B586B01C
:1035C00040F280600021C2F200004FF0804242F2DF
:1035D000CF0340F2F31C0591CDE90311CDE90011B1
:1035E000C0E90023C0E9021C01618161FEF73AFED7
:1035F000002818BFFDF7EAF94FF48050029040F21E
:103600008060C2F2000002A9FEF73CFF002818BF4C
:10361000FDF7DCF940F28060C2F200006946FEF777
:10362000C5FD002818BFFDF7D1F906B080BD000028
:1036300080B586B040F2C86040F200420021C2F27C
:103640000000C4F2000253234FF6FF7C0591CDE940
:103650000311CDE90011C0E90023C0E9021C01619A
:103660008161FEF7FFFD002818BFFDF7AFF94FF4A9
:103670008050029040F2C860C2F2000002A9FEF73A
:1036800001FF002818BFFDF7A1F940F2C860C2F29F
:1036900000006946FEF78AFD002818BFFDF796F97D
:1036A00006B080BD80B586B040F2107040F60002D2
:1036B0000021C2F20000C4F2000244F29F1340F263
:1036C000F31C0591CDE90311CDE90011C0E90023F8
:1036D000C0E9021C01618161FEF7C4FD002818BF2A
:1036E000FDF774F94FF48050029040F21070C2F26E
:1036F000000002A9FEF7C6FE002818BFFDF766F914
:1037000040F21070C2F200006946FEF74FFD00283B
:1037100018BFFDF75BF906B080BD000080B540F230
:10372000587041F20001C2F20000C4F2010100230E
:103730004FF00C0C4FF4E13280E80E00C0E9033387
:10374000C0E905C3C361FFF719FB002808BF80BDAE
:10375000BDE88040FDF73AB980B540F29C7044F670
:103760000001C2F20000C4F2000100234FF00C0C73
:103770004FF4E13280E80E00C0E90333C0E905C32D
:10378000C361FFF7FBFA002808BF80BDBDE8804099
:10379000FDF71CB9FEE70000FEE7000070470000DF
:1037A00070470000FEF766B9B0B592B0002443F64A
:1037B00040000B94CDE90944CDE907440594CDE9D7
:1037C0000344CDE901440094C4F2020001680225DB
:1037D00041F080510160006800F080500090009836
:1037E00047F200000094C4F20000016841F48041F7
:1037F0000160006800F4804000900098012009906A
:1038000010200A9008200E90A820CDE90F05042072
:10381000119006A80695CDE90C54FEF7F3FA28B1ED
:10382000EFF3108072B600BFFEE700BF0F20CDE9B6
:1038300001054FF4A05004904FF48050059001A86A
:1038400005210394FEF7D0F920B1EFF3108072B692
:10385000FEE700BF12B0B0BD4EF68850CEF20000B9
:10386000016841F4700101607047000040F280601F
:10387000C2F20000FEF7D6BE40F21070C2F20000A5
:10388000FEF7D0BE10B540F6FF3E0368C4F2000E4E
:1038900040F2004C7045C4F2010C27DCB0F1804FBF
:1038A00031D040F20042C4F2000290422BD040F6E8
:1038B0000002C4F20002904225D041F6FF72C4F229
:1038C0000002904229DC70453CDCB0F1804F5FD0B3
:1038D00040F20042C4F20002904259D040F6000289
:1038E000C4F20002904253D056E000BF40F60042BE
:1038F000C4F20002904206D0604504D00022C4F217
:1039000001029042D9D14A6823F07003134341F673
:10391000FF72C4F200029042D5DD43F6FF72C4F29A
:103920000102904222DC42F20002C4F20002904204
:103930002ED00022C4F20102904229D0604527D047
:103940002AE000BF40F60042C4F2000290421FD0BD
:1039500041F60002C4F20002904219D041F6004242
:10396000C4F20002904213D016E000BF44F20002FD
:10397000C4F2010290420BD044F60002C4F20102EC
:10398000904205D044F20042C4F20102904203D1B9
:10399000CA6823F44073134323F080024B69D1F8C3
:1039A00000E08C681A430260C46240F48062C0F890
:1039B00028E0624504BF096901630121416110BD2E
:1039C000806B0021C185C184FEF724BF81B090F8CF
:1039D0003E10222921D183680246B3F5805F09D1C8
:1039E00052F8281F52F8183C002B63D003685B681C
:1039F0000AE000BF52F8281F13B90369002BF5D065
:103A000003685B6803F07F030B701168013111607C
:103A1000C18D01390A04C18502D001B0704700BFD1
:103A20000168CA6822F02002CA60CA6822F4807263
:103A3000CA604A6922F001024A61202180F83E10E2
:103A4000016B01293ED10021016300BF016851E8EB
:103A5000031F026821F0100142E80313DBB1016883
:103A600051E8031F026821F0100142E8031393B1EB
:103A7000016851E8031F026821F0100142E80313B6
:103A80004BB1016851E8031F026821F0100142E8C0
:103A90000313002BDAD101680A68D20606D500228A
:103AA00000920A680092496800910099818D01B0E6
:103AB000FEF7AEBE026852686FF35F2221F8022B58
:103AC0008162A5E701B0FFF725BA000010B50446F2
:103AD0000068D4E902C22369016921F4405111430D
:103AE0000161626943EA0C01E3691143C268194349
:103AF00049F20C639A431143C1604169A26921F400
:103B0000407141F20043114340F48062C4F201036A
:103B10009A42416102D1FEF72BF901E0FEF714F958
:103B2000E16963681922B1F5004FA0FB020123D1BE
:103B30005A00DB0FFCF744FB48F21F51C5F2EB11B2
:103B4000A0FB01235A094FF69C73C0F6FF7303F1E3
:103B5000805302FB0300322303EBC000A0FB0101F2
:103B60004FF4F87000EA111000EB0210C1F342119B
:103B700008442168886010BD9A009B0FFCF720FB69
:103B800048F21F51C5F2EB11A0FB01235A094FF671
:103B90009C73C0F6FF7302FB0300322303EB00109B
:103BA000A0FB0101F02000EA511000EB0210C1F36C
:103BB000431108442168886010BD000040F258702D
:103BC000C2F20000FEF728BE10B540F29C74C2F2AB
:103BD00000042046FEF720FE40F28011C2F20001F0
:103BE00020460122BDE81040FFF764B9FEE700005F
:103BF00010B582B0044600200190A01EA421042824
:103C000000911DD8DFE800F004243A52680000BF9C
:103C10009FED471A20EE010ABDEEC00A10EE100A11
:103C2000BDEEE00A10EE101A01EBC1024FEA102CB3
:103C30004FEA104E030E9100C2F3871262E000BFFC
:103C400045F60E70C0F6000001F0EAFF5AE000BF32
:103C50009FED381A20EE010ABDEEC00A10EE100AE0
:103C6000BDEEE00A10EE102A4FEA102C4FEA104E7B
:103C7000030ED100C2F3471244E000BF9FED2C1A9F
:103C800020EE010ABDEEC00A10EE100ABDEEE00AF9
:103C900010EE101A01EBC1024FEA102C4FEA104E41
:103CA000030E9100C2F387122CE000BF9FED211A92
:103CB00020EE010ABDEEC00A10EE100ABDEEE00AC9
:103CC00010EE102A4FEA102C4FEA104E030ED100CE
:103CD000C2F3471216E000BF9FED171A20EE010A4B
:103CE000BDEEC00A10EE100ABDEEE00A10EE101A8A
:103CF00001EB81024FEA102C4FEA104E030E5100E7
:103D0000C2F3C7128DF802108DF8040068462146F0
:103D10008DF803208DF805C08DF806E08DF807308A
:103D200000F00CF84FF41670FCF72EFE02B010BD38
:103D3000000061450000484400007A442DE9F0434A
:103D400081B040F2206540F2301640F2006804462F
:103D500001F5A070C2F2000500210822C2F200069F
:103D6000C2F20008C5E90001C5E902112A61304626
:103D7000294622464346FDF72BF93046294622467E
:103D80004346FDF725F9D8B140F2301740F22065DF
:103D900040F200660FF28809C2F20007C2F2000585
:103DA000C2F20006484600F0BBFD6420FDF774FD3A
:103DB0003846294622463346FDF70AF90028F1D154
:103DC000D8F800101AA000F0ABFD45F60A7521786E
:103DD000C0F60005284600F0A3FD6178284600F0F3
:103DE0009FFDA178284600F09BFDE178284600F071
:103DF00097FD2179284600F093FD6179284600F06F
:103E00008FFDA179284600F08BFDE179284600F06E
:103E100087FD11A001B0BDE8F04301F001BF00BF74
:103E200054784D7367204661696C656421210000F8
:103E30000A53656E64205478204D6573736167651D
:103E40002053756363657373212154785F4D6169F5
:103E50006C3A25640D0A00000D000000000000000F
:103E6000B0B501280AD10120FFF726FA0120FFF79B
:103E7000C7F9BDE8B04000F0A7B900BF40F2A415F3
:103E8000C2F200050446E88C2880B5F90000FCF772
:103E90006BFB9FED410B53EC102BFCF769FA9FED88
:103EA000400B53EC102BFCF763FAFCF7A0FB05EB7F
:103EB00084014863298DA01E0428698016D8DFE894
:103EC00000F0032133455700B5F90200FCF74CFB25
:103ED0009FED350B53EC102BFCF7BCFAFCF787FB7E
:103EE000A865E0B2BDE8B04000F04EBA45F60E70ED
:103EF000C0F6000001F094FEE0B2BDE8B04000F072
:103F000043BA00BFB5F90200FCF72EFB9FED280B6A
:103F100053EC102BFCF72CFAFCF769FBE865E0B2D8
:103F2000BDE8B04000F030BAB5F90200FCF71CFB68
:103F30009FED1D0B53EC102BFCF78CFAFCF757FB95
:103F40002866E0B2BDE8B04000F01EBAB5F9020044
:103F5000FCF70AFB9FED160B53EC102BFCF708FA4D
:103F6000FCF745FB6866E0B2BDE8B04000F00CBA73
:103F7000B5F90200FCF7F8FA9FED0F0B53EC102B8C
:103F8000FCF768FAFCF733FBA866E0B2BDE8B04086
:103F900000F0FAB900BF00BF000000000000403F81
:103FA000000000000080404000000000000042408F
:103FB000000000000000C03F00000000000024409E
:103FC0002DE9F04F81B02DED068B88B040F208024C
:103FD000C2F20002B0EE408A92ED020A50789FEDE4
:103FE0005C1A117830EE000A40F2682820EE010ACF
:103FF000C2F20008002888ED010A00F0A3804A0000
:10400000D3B240F220050393013301320126002789
:10401000C2F200050293019208E000BF0021019B5B
:10402000864206F101061F4480F08C80029B721EBE
:104030005A43039B090653FA82F205EB820292ED82
:10404000010A08EB860282ED020AE7D0F8B205EB1E
:104050008000A0F1080A02F108004FF0000BCDE942
:104060000467069010EE100A0BF1010BFCF7ACFA96
:1040700098ED011A02EE10BA9AED030AB8EEC29A50
:1040800021EE09AA80EE0A0A8146079110EE100A75
:10409000FCF79AFA2AEE080A064610EE100A0F46B6
:1040A000FCF792FA41EC100B00F0C6FC98ED011AF7
:1040B0009AED042A21EE09AA82EE0A1AB0EE409A7D
:1040C000F0EE609A11EE100AFCF77EFA2AEE080A6A
:1040D000044610EE100A0D46FCF776FA41EC100B80
:1040E00000F046FC51EC100B22462B46FCF740F941
:1040F00004460D4653EC192B30463946FCF738F987
:1041000022462B46FCF72EF90B46079902464846F5
:10411000FCF787F8FCF76BFA40F20802C2F20002E3
:104120001178069B00EE100A8B450AF1080A186008
:1041300098D35078DDE9046740F22005C2F200050B
:104140006DE700BF08B0BDEC068B01B0BDE8F08F95
:10415000DB0F494080B582B0019040F25870C2F246
:10416000000001A901224FF6FF73FEF701FF01983D
:1041700002B080BD82B0FDF78BFCFFF715FBFFF7A7
:10418000F7F9FFF76BF9FFF7CFF9FFF717FAFFF72A
:104190004FFAFFF7C3FAFFF7DFFAFFF783FAFCF7EE
:1041A00075FB46F25670C8F67810019042F2123054
:1041B000C4F234506C46009020462821FFF7BEFD23
:1041C0003220FDF769FBF7E7B0B52DED048B40F227
:1041D0003864C2F200042046FCF71CFE20460A2187
:1041E000FCF79AFD2046FCF79BFC40F21025800569
:1041F000C2F2000502D4286807E000BF40F2386030
:10420000C2F20000FCF78EFC286000EE100A9FED61
:104210005B8AB8EE400A9FED5A9A20EE080A20EE1B
:10422000090A10EE100A85ED040AFCF7CDF90246E2
:1042300045F617700B46C0F60000002100F070FB39
:1042400040F23864C2F200042046FCF7E3FD204649
:104250000A21FCF761FD2046FCF762FC800501D4D1
:10426000686806E040F23860C2F20000FCF75AFCD1
:10427000686000EE100AB8EE400A20EE080A20EE50
:10428000090A10EE100A85ED050AFCF79DF90246B1
:1042900045F617700B46C0F60000012100F040FB08
:1042A00040F23864C2F200042046FCF7B3FD204619
:1042B0000A21FCF731FD2046FCF732FC800501D4D1
:1042C000A86806E040F23860C2F20000FCF72AFC61
:1042D000A86000EE100AB8EE400A20EE080A20EEB0
:1042E000090A10EE100A85ED060AFCF76DF9024680
:1042F00045F617700B46C0F60000022100F010FBD7
:1043000040F23864C2F200042046FCF783FD2046E8
:104310000A21FCF701FD2046FCF702FC800501D4D0
:10432000E86806E040F23860C2F20000FCF7FAFBF1
:10433000E86000EE100AB8EE400A20EE080A20EE0F
:10434000090A10EE100A85ED070AFCF73DF902464E
:1043500045F617700B46C0F60000032100F0E0FAA6
:1043600008A001F05DFC40F23860C2F20000BDEC34
:10437000048BBDE8B040FCF7F9BD00BF33335340B8
:10438000000080390D00000010B582B00446002006
:1043900001909220009068462146FFF7CFFC4FF431
:1043A0001670FCF7F1FAA11E04291DD840F2A410E2
:1043B000C2F20000D0F81500DFE801F0041E304220
:1043C000540000BFFCF7D0F89FED2F0B53EC102BDF
:1043D000FCF740F8FCF70BF940F23021C2F2000183
:1043E000886002B010BD00BF45F60E70C0F6000038
:1043F00001F016FC02B010BDFCF7B6F89FED240BDF
:1044000053EC102BFCF726F8FCF7F1F840F23021C2
:10441000C2F20001C86002B010BD00BFFCF7A4F8F2
:104420009FED1D0B53EC102BFCF714F8FCF7DFF895
:1044300040F23021C2F20001086102B010BD00BF9D
:10444000FCF792F89FED120B53EC102BFCF702F8DF
:10445000FCF7CDF840F23021C2F20001486102B011
:1044600010BD00BFFCF780F89FED0D0B53EC102B37
:10447000FBF7F0FFFCF7BBF840F23021C2F200017D
:10448000886102B010BD00BF000000000020AC40F9
:104490000000000000008940000000000020ACC0C7
:1044A0000000000000408F402DE9F04F81B02DED5D
:1044B000108BD0B040F26826C2F20006374657F89B
:1044C000600B40F20805C2F2000500EE100A95EDFF
:1044D000011AB8EE400A21EE000AFFF771FD06F15D
:1044E0000C009FED569A9FED56AA4F909FED55BA3E
:1044F00006F160009FED54CA9FED54DA0124B7EE37
:10450000008A4E9006F1180006F16C0B06F11C0AA9
:1045100006F170094C900BE00068086011E000BFE4
:10452000D8F8001001602046FFF79AFC01340437E8
:10453000601E052805D8DFE800F02503033B5F8BEC
:10454000FFE717ED150A97ED001A80EE090A95EDC1
:10455000012AE0B2A7F1540820EE0A0A30EE411A0F
:1045600081EE021A07ED150AF0EEC10AF4EE480AD0
:10457000F1EE10FAB8BFF0EE480AFFF739FB384603
:10458000CEE700BF96ED030A96ED181A30EE0B0A3F
:1045900095ED012A30EE411A81EE021A012086EDD6
:1045A000030AF0EEC10AFEF7CFFEDDE94E10B3E7D5
:1045B00096ED060A96ED1B1A80EE090A95ED012A82
:1045C000042020EE0A0A30EE0C0A30EE411A81EE89
:1045D000021A86ED060AB1EE400AF0EEC10AF4EEC8
:1045E000480AF1EE10FAB8BFF0EE480AFFF700FBF8
:1045F0004C98594690E700BF96ED070A96ED1C1AB5
:1046000080EE090A95ED012A052020EE0A0A30EE17
:104610000D0A30EE411A81EE021A86ED070AF0EE1D
:10462000C10AF4EE480AF1EE10FAB8BFF0EE480AFB
:10463000FFF7DEFAD046484672E700BFDB0F49407D
:104640000000344333B3BEC20000B4420000B4C221
:1046500096ED08CA96ED1DBA3CEE4B0A10EE100A14
:1046600020F00040FBF7B0FF9FEDAB0B53EC102B9D
:10467000FBF75FFFC8B98CEE090A95ED011A062019
:1046800020EE0A0A30EE4B2A82EE011A86ED080A65
:10469000F0EEC10AF4EE480AF1EE10FAB8BFF0EEFF
:1046A000480AFFF7A5FA306A70670620FFF7D8FBC3
:1046B00040F28410C2F200000068FBF785FFCDE9EC
:1046C0004E1040F28810C2F200000068FBF77CFF39
:1046D00041EC100B40F28C10C2F2000000688DED2E
:1046E0004C0BFBF771FF41EC100B40F2D811C2F2FA
:1046F0000001D1E9020A0A6949698DED4A0B349239
:104700003991FBF761FF41EC100B40F2F411C2F25A
:104710000001D1E9020BD1E904718DED480B38910C
:10472000FBF752FF41EC100B40F23021C2F20001C6
:1047300001F1080898E8110149698DED460B3791A0
:10474000FBF742FF41EC100B40F24C21C2F200019A
:1047500001F1080999E8210249698DED440B339173
:10476000FBF732FF41EC100B50468DED420BFBF78F
:104770002BFF41EC100B58468DED400BFBF724FF4F
:1047800041EC100B20468DED3E0BFBF71DFF41EC7D
:10479000100B28468DED3C0BFBF716FF41EC100B80
:1047A0008DED3A0B3498FBF70FFF41EC100B3846B8
:1047B0008DED340BFBF708FF41EC100B40468DEDFF
:1047C000300BFBF701FF41EC100B48468DED2E0B33
:1047D000FBF7FAFE41EC1D0B3998FBF7F5FE41ECB7
:1047E0001E0B3898FBF7F0FE41EC1F0B3798FBF7D8
:1047F000EBFE41EC180B3398FBF7E6FE41EC190B8E
:1048000040F2D810C2F200008069FBF7DDFE41ECF7
:104810001A0B40F2F410C2F200008069FBF7D4FEDC
:1048200041EC1B0B40F23020C2F200008069FBF724
:10483000CBFE41EC1C0B40F24C20C2F20000806920
:10484000FBF7C2FE41EC100B26A880EC06AB8DED09
:104850002C0B9DED340B1CA88DED160B9DED300B34
:1048600040F220218DED180B9DED2E0B80EC06DB28
:104870008DED1A0B8DED228B8DED249B9DED480B5C
:1048800045F688508DED060B9DED460BC2F20001FA
:104890008DED080B9DED440BC0F600008DED0A0B6D
:1048A0009DED420B8DED0C0B9DED400B8DED0E0B38
:1048B0009DED3E0B8DED100B9DED3C0B8DED120B28
:1048C0009DED3A0B8DED140B9DED4C0B8DED000B1A
:1048D0009DED4A0B8DED020BDDE94E32049100F0A7
:1048E0001FF830680130B0F5C87F30600CD940F255
:1048F0008060C2F2000050B0BDEC108B01B0BDE88A
:10490000F04FFDF7A1BD00BF50B0BDEC108B01B062
:10491000BDE8F08F00BF00BF9A9999999999A93F76
:104920000FB4054B10B503A9044A029800F0D4FD5A
:1049300010BC5DF814FB0000554100080000002089
:1049400003B401984100009850EAC12018BF042028
:104950004A0D18BF40F0010040F2FF72B2EB515F08
:1049600008BF40F00200012808BF052002B07047D0
:1049700010B52F499FED2C1B2DED020B84B005982F
:1049800020F000408842D8BF9DED040B2DDD294961
:10499000884209D1049840B94FF0010000F0D4FCDE
:1049A00000F0A2FC06B010BD05DB9DED040B00F08D
:1049B0008FFC06B010BD68469DED040B00F0A0F81A
:1049C00010F0030004BF9DED021B9DED000B0CD009
:1049D00001280ED09DED021B9DED000B022817D083
:1049E000012000F0DDFB06B010BD00F0A5FA06B016
:1049F00010BD9DED021B9DED000B012000F0D0FBD2
:104A000051EC100B81F0004106B041EC100B10BDD1
:104A100000F092FA51EC100B81F0004106B041EC2D
:104A2000100B10BD0000000000000000000000009E
:104A3000FB21E93F0000F07F10B52F499FED2C1BB3
:104A40002DED020B84B0059820F000408842DCBFB9
:104A500000209DED040B32DD2849884209D10498DD
:104A600040B94FF0010000F06FFC00F03DFC06B0D3
:104A700010BD05DB9DED040B00F02AFC06B010BD57
:104A800068469DED040B00F03BF810F0030011D0D8
:104A9000012818D09DED021B9DED000B02281AD0B5
:104AA00000F04AFA51EC100B81F0004106B041ECE5
:104AB000100B10BD9DED021B9DED000B012000F0C1
:104AC0006FFB06B010BD9DED021B9DED000B00F0CD
:104AD00033FA06B010BD012000F062FB51EC100B60
:104AE00081F0004106B041EC100B10BD0000000049
:104AF0000000000000000000FB21E93F0000F07F03
:104B00002DE9F14F04462DED020B2DED088B8AB0F7
:104B10009FEDE70B80ED020B139EE74826F0004562
:104B200085420ADC9DED120B002084ED000B0AB0DB
:104B3000BDEC088B03B0BDE8F08FE0489FEDE0AB23
:104B40009FEDE1BBA84247DDE14F9FEDE39B9FED69
:104B5000E48B9DED120B53EC1A2B51EC100B002E35
:104B60001CDDFBF7FFFB41EC100BBD4208D053EC02
:104B70001B2B51EC100BFBF7F5FBC4E900010BE01C
:104B800053EC192B51EC100BFBF7ECFB53EC182BEF
:104B9000FBF7E8FBC4E900010120C8E7FBF741FB94
:104BA00041EC100BBD4208D053EC1B2B51EC100B09
:104BB000FBF737FBC4E900010BE053EC192B51EC78
:104BC000100BFBF72EFB53EC182BFBF72AFBC4E969
:104BD00000014FF0FF30AAE7C348A84279DB9DED02
:104BE000120B51EC100B01F00EF841EC180B9FED7D
:104BF000C00B53EC102BFBF7BBFB9FEDBF1B53EC23
:104C0000112BFBF70EFBFBF7C0FC0746FBF7ACFCD8
:104C100041EC190B53EC1A2BFBF7AAFB53EC182BA6
:104C2000FBF7A3FB41EC180B53EC1B2B51EC190BBE
:104C3000FBF79EFBDFF8C8A241EC100B4FEA1558BA
:104C40000125FA4453EC102B51EC180BFBF78AFBAF
:104C5000032DC4E900013DD0C1F30A5005EB451115
:104C6000A8EB00001139814234DA0AEB051BB0EEE3
:104C700048AA9BED000BF0EE68AA53EC102B51EC08
:104C8000190BFBF775FB41EC1B0B51EC1A0B53ECAA
:104C90001B2BFBF767FB41EC180B51EC1A0B53EC89
:104CA000182BFBF75FFB53EC1B2BFBF75BFB9BED20
:104CB000020B41EC1A0B53EC102B51EC190BFBF7C8
:104CC00057FB53EC1A2BFBF74DFB41EC100B6D1C03
:104CD000B8E70EE0002EA8BF3846BFF628AF94ED27
:104CE000000B51EC100B81F00041C4E90001784247
:104CF0001DE7C6F3130040F4801EC6F30A50A0F26D
:104D0000F530471100F01F05C5F12000DDF848B06F
:104D100008900020069007900520EC467949002D68
:104D200007EB0002794408BF51F8221009D051F86E
:104D3000223001EB8201AB404A68089922FA01F166
:104D40001943A1FB0E26A1FB0B131A449A4234BF50
:104D50000123002303EB06080CEB8003D3E901A633
:104D60000E448E4234BF0121002192448A4411B185
:104D7000924502D903E0924501D2012100E00021D1
:104D8000C3E901A641444CF82010011EA0F1010026
:104D9000C4DC029800F10050850F0298DDE903673A
:104DA0008000DDF81480FBF7DFFB41EC1A0B304686
:104DB000FBF756FD9FED541B53EC112BFBF7D8FA74
:104DC00041EC1B0B3846FBF74BFD9FED511B53ECA1
:104DD000112BFBF7CDFA41EC180B4046FBF740FDD9
:104DE0009FED4D1B53EC112BFBF7C2FA41EC190B55
:104DF00051EC180B53EC192BFBF713FA53EC1B2B4C
:104E0000FBF70FFA53EC1A2BFBF70BFACDE908016D
:104E1000002008909DED080B53EC1A2B51EC100B61
:104E2000FBF7A0FA53EC1B2BFBF79CFA53EC182B67
:104E3000FBF798FA53EC192BFBF797FA9FED381B09
:104E400053EC112BFBF794FA9FED370B41EC180B49
:104E500053EC102B9DED080B51EC100BFBF788FA6F
:104E600053EC182BFBF7DDF99FED310B41EC180BE0
:104E700053EC102B9DED080B51EC100BFBF778FA5F
:104E800053EC182BFBF7CDF941EC100B139810F0F5
:104E9000004F06D06D4251EC100B81F0004141EC07
:104EA000100B284684ED000B41E6000000000000D6
:104EB0000000000000000000FB21E93F7CD9024017
:104EC00000004054FB21F93F3163621A61B4D03DC8
:104ED000FB21F93F000000000000601A61B4D03DE2
:104EE0007370032E8A19A33BFB2139410000000097
:104EF00083C8C96D305FE43F000000000000E03F60
:104F000032100000800F0000000000000000103E82
:104F1000000000000000103C000000000000103AFB
:104F2000182D4454FB21F93D3326A611460B113CA4
:104F300000000054FB21F93D10B52DED040B2DEDC3
:104F4000088B82B0B0EE419AF0EE619A0B9820F097
:104F500000449FED4BABB4F1795F11DA9DED0A0B84
:104F600051EC100BFBF711FB002801BFB0EE4A0A11
:104F7000F0EE6A0A02B0BDEC088B04BF04B010BDAD
:104F80009DED0A0B53EC102B51EC100BFBF7F0F9D5
:104F900041EC180B3C480621B0EE480AF0EE680AD6
:104FA000784400F081F853EC182B51EC100BFBF710
:104FB000DFF99DED0A0B41EC1B0B53EC192B51EC67
:104FC000100BFBF7D5F941EC190B53EC1B2B51ECF3
:104FD000180BFBF7CDF953EC192BFBF7C3F99FED39
:104FE0002C0B41EC190B53EC102B51EC180BFBF76D
:104FF000BFF941EC100B2848844210DA53EC192B0E
:1050000051EC100BFBF7AEF953EC1A2BFBF7ADF993
:1050100041EC100B02B0BDEC088B04B010BD1F4872
:10502000A042BCBF9FED1E1B8DED001B06DBA4F54F
:1050300000100190002000909DED001B51EC100B22
:1050400053EC112BFBF78EF99DED000B41EC180B87
:1050500053EC102B51EC1A0BFBF784F941EC1A0BB3
:1050600053EC192B51EC180BFBF77CF953EC1A2B72
:10507000FBF77BF941EC100BCCE7000000000000CF
:10508000000000000000F03FA40C00000000000041
:10509000000000000000E03F3333D33F0000E93F51
:1050A000000000000000D23F70B504462DED028BD9
:1050B0004D1E00EBC500B0EE408AF0EE608A90ED28
:1050C000000B35F0060017D053EC182B51EC100BE9
:1050D000FBF74EF941EC100B6D1E04EBC50090ED93
:1050E000001B51EC100B53EC112BFBF79AF841EC21
:1050F000100B35F00600E7D1022D36D0042D1CD060
:10510000062D1CBFBDEC028B70BD53EC182B51EC6F
:10511000100BFBF72DF994ED0A1B53EC112BFBF749
:1051200080F853EC182BFBF723F994ED081B53EC94
:10513000112BFBF776F841EC100B53EC182B51ECCC
:10514000100BFBF715F994ED061B53EC112BFBF735
:1051500068F853EC182BFBF70BF994ED040B53ECA8
:10516000102BFBF75EF841EC100B53EC182B51ECB5
:10517000100BFBF7FDF894ED021B53EC112BFBF722
:1051800050F853EC182BFBF7F3F894ED001B53EC9D
:10519000112BFBF746F8BDEC028B41EC100B70BDF8
:1051A00031B504462DED040B2DED0A8BB0EE41BA5E
:1051B000F0EE61BA0B989DED0A0B20F00040B0F1C3
:1051C000795F0DDA51EC100BFFF7BAFB042808BF2A
:1051D00000F09AF89DED0A0BBDEC0A8B05B030BDCE
:1051E00053EC102B51EC100BFBF7C2F841EC180BF1
:1051F0009DED0A0B53EC182B51EC100BFBF7B8F894
:1052000041EC190B2C48B0EE480AF0EE680A052173
:105210007844FFF749FF9FED2ACBB0EE40AAF0EEAD
:1052200060AA9CB353EC1C2B51EC190BFBF7A0F8B4
:1052300041EC1C0B53EC1A2B51EC190BFBF798F8B3
:105240009FED210B41EC190B53EC102B51EC1B0B78
:10525000FBF78EF853EC192BFBF784F853EC182B63
:10526000FBF786F853EC1B2BFBF77CF853EC1C2B5D
:10527000FBF778F89DED0A1B53EC112BFBF775F843
:10528000BDEC0A8B05B041EC100B30BDFFE753ECD1
:105290001A2B51EC180BFBF76BF853EC1C2BFAF79D
:1052A000C0FF53EC192BFBF763F89DED0A1B53EC81
:1052B000112BFAF7B6FFE3E7340B00000000000003
:1052C000495555555555C5BF000000000000E03F49
:1052D00010B553EC102B51EC100BFAF7A2FF41EC78
:1052E000100B10BD000000009FED050B10B553EC36
:1052F000102B51EC100BFBF7ADF841EC100B10BD6F
:1053000000000000000000009FED050B10B553ECFD
:10531000102B51EC100BFBF72BF841EC100B10BDD0
:10532000000000000000001002E008C8121F08C1C1
:10533000002AFAD170477047002001E001C1121F16
:10534000002AFBD170470000014908607047000047
:10535000040000202DE9FF5F82B00021DDE9043068
:10536000020DDDF840B0034318D044F61050A2F20D
:10537000FF3242431514119801281FD0A5EB0B00F2
:10538000401C5FEA000A4FF000064E4FDFF83891EC
:10539000B046504615D5CAF1000413E01198012417
:1053A0004AA3012801D16FEA0B010298119AC0E9C2
:1053B0000031C0E9024206B0BDE8F09FCBF1000029
:1053C000DFE704460021404A491842EB0450CDE98A
:1053D000001012E0E00707D032463B4640464946FF
:1053E000FAF7C6FF8046894632463B4610461946C4
:1053F000FAF7BEFF06460F466410002CEAD1DDE93D
:105400000401DDE90023BAF1000F06DAFAF7B0FF74
:1054100042464B46FAF7ACFF05E0FBF71BF8424665
:105420004B46FBF717F804460E460022284BFBF7C5
:10543000EDF903D84FF0FF30014607E00022254B7D
:1054400020463146FAF7EDFEFBF7C8F9102409E0D3
:10545000002C0ADB0A220023FAF7B2FE039B30324B
:105460001A55641E50EA0102F2D1641C039AC4F179
:1054700011031444119A012A03D0012208430DD1CB
:105480000AE0084304D000204FF0110B119072E79E
:10549000A3EB0B056D1E0DE05B4504DD4FF0000234
:1054A00005F1010504E003DA4FF00002A5F1010562
:1054B000002AECD002981199C0E90231C0E90045F8
:1054C00079E70000000014400000F03F30000000C9
:1054D0000000F0430000E03F2DE9FF4F95B09B46F0
:1054E0008946064600250FE2252877D10024274665
:1054F000F84A0121059400E0044316F8013F203BDF
:1055000001FA03F01042F7D130782A2811D06FF059
:105510002F033078A0F13002092A16D8059A44F0FA
:10552000020402EB820203EB42021044761C059057
:10553000EFE759F8042B0592002A03DA504244F4AD
:105540000054059044F00204761C30782E2816D1C1
:1055500016F8010F44F004042A280DD06FF02F0232
:105560003078A0F13003092B09D807EB870302EB51
:105570004303C718761CF3E759F8047B761C307890
:105580006C280FD006DC4C2817D068280DD06A286C
:1055900014D104E0742810D07A280FD10DE044F41F
:1055A00000140AE044F4801401E044F440147278DA
:1055B000824202D104F58014761C761C307866286D
:1055C0000BD013DC582877D009DC002875D045288B
:1055D000F6D04628F4D047281AD19DE118E0632878
:1055E00035D0642879D0652812D195E1702873D020
:1055F00008DC6728F1D069286FD06E280DD06F289D
:1056000006D1B5E073282CD0752875D0782874D0D1
:105610005A46179990476D1C75E1C4F30250022851
:1056200009D003280DD0D9F8001004280DD00D6042
:1056300009F1040967E1D9F80010EA17C1E900523D
:10564000F6E7D9F800100D80F2E70D70F0E719F8D1
:10565000041B8DF8001000208DF80100EA4601209F
:1056600003E059F804AB4FF0FF3061074FF0000141
:1056700002D40DE008F101018846B9420FDA8045F5
:10568000F8DB1AF808100029F4D108E008F101014C
:1056900088468142FADB1AF808100029F6D10598ED
:1056A0005B46A0EB080721463846179A00F094FAAB
:1056B000284400EB080507E04DE029E10DE01AF869
:1056C000010B5A4617999047B8F10108F7D25B468B
:1056D00021463846179A13E142E00A220092C4F3A9
:1056E00002524FF0000A022A08D059F804CB032ACC
:1056F0004FEAEC710AD00DE029E02AE009F1070138
:1057000021F00702F2E802C1914609E00FFA8CFC91
:105710004FEAEC71042A03D14FFA8CFC4FEAEC718A
:10572000002907DA0A460021DCF1000C61EB0201D6
:105730002D2202E0220504D52B228DF8042001221F
:1057400003E0E20701D02022F7E7904659E00A2162
:1057500002E010220DE010214FF0000A00910BE052
:1057600010224FF0000A44F004040827009203E0DE
:1057700008224FF0000A0092C4F30252022A05D018
:1057800059F804CB0021032A08D009E009F10701E8
:1057900021F00702F2E802C1914605E01FFA8CFCF5
:1057A000042A01D10CF0FF0C4FF00008220728D585
:1057B000702806D0009B83F0100353EA0A0305D03B
:1057C0000EE040228DF80420012208E05CEA01028C
:1057D00006D030228DF804208DF805000222904674
:1057E000009B83F0080353EA0A030AD15CEA010232
:1057F00001D1620705D530228DF804204FF0010851
:105800007F1E582804D034A003900EA802900DE00B
:1058100036A0F9E753466046009AFAF7D1FC844671
:105820000398825C0298401E029002705CEA0100BC
:10583000F0D1029806A9081A00F1200A600702D5E3
:1058400024F4803400E00127574502DDA7EB0A006D
:1058500000E0002000EB0A01009005984144401A46
:105860000590E00306D45B462146179A059800F0A0
:10587000B3F90544002706E001A85A46C05D179910
:1058800090476D1C7F1C4745F6DBE0030CD55B465B
:105890002146179A059800F09FF9054404E030204E
:1058A0005A46179990476D1C0099481E0090002990
:1058B000F5DC08E0029802995A460078491C0291EA
:1058C000179990476D1CBAF10001AAF1010AF1DCA9
:1058D00065E10000092801003031323334353637B4
:1058E000383961626364656600000000303132332C
:1058F00034353637383941424344454600000000CC
:1059000000F058F90544761C307800287FF4ECAD9F
:1059100019B02846BDE8F08F620700D4062709F1C8
:10592000070222F0070CFCE80223E14603F00048DE
:105930005FEA080C02D00FF2702C0DE05FEA045C05
:1059400002D50FF2682C07E05FEAC47C02D00FF2A8
:10595000602C01E0AFF2700C4FF0FF3823F00043F1
:10596000CDF850C065280CD006DC452809D0462863
:105970001DD047283DD13DE0662818D067287ED14C
:1059800038E00021112F01DB112000E0781CCDE967
:10599000000106A90EA8FFF7DDFCDDE90F010E9A54
:1059A00003910021009207F1010A04914DE04FF0AC
:1059B00000400097CDE9011006A90EA8FFF7CAFC28
:1059C000DDE90F0203920E9B11990022DDF80CA075
:1059D0000093049211B9791C00EB010AB7EB0A009D
:1059E00004D4C0F1FF3007F1010A0490AAEB0700CC
:1059F000019044E0012F00DA01270021112F01DD81
:105A0000112000E03846CDE9000106A90EA8FFF7F5
:105A1000A1FCDDE90F010E9A03910021049100928F
:105A2000BA4621070CD40399514500DA8A46BAF1E7
:105A3000010F05DD009AAAF10101515C302908D05F
:105A4000B84202DA10F1040F06DA0121CDE90110A3
:105A500015E0AAF10101E9E7002805DC04990144F9
:105A60000491AAEB000102E0411C514500DD8A4689
:105A70000499401A401C01904FF00040029020070A
:105A800004D40198504501DBCDF8048000208DF846
:105A90004F0002980DF14F07B0F1004F25D02B2099
:105AA0000E9002984FF0020800280CDA4042029053
:105AB0002D200E9007E00A210298FAF7B4FD30314C
:105AC000029007F8011DB8F10001A8F10108F2DC0D
:105AD00002980028EFD1791E0E980870307800F0F7
