:020000040800F2
:10000000000C00209D010008A937000809320008F3
:10001000A53700087D080008FD3B0008000000002F
:10002000000000000000000000000000B1370008E0
:100030002D09000800000000AD370008B5370008A2
:10004000B7010008B7010008B7010008B7010008B0
:10005000B7010008B7010008B7010008B7010008A0
:10006000B7010008B7010008B7010008B701000890
:10007000B7010008B7010008B7010008B701000880
:10008000B7010008B7010008B7010008B701000870
:1000900081080008B7010008B7010008B70100088F
:1000A000B7010008B7010008B7010008B701000850
:1000B0007D380008B701000889380008B70100083A
:1000C000B7010008B7010008B7010008B701000830
:1000D000B7010008CD3B0008B7010008D93B000874
:1000E000B7010008B7010008B7010008B701000810
:1000F000B7010008B7010008B7010008B701000800
:10010000B7010008B7010008B7010008B7010008EF
:10011000B7010008B7010008B7010008B7010008DF
:10012000B7010008B7010008B7010008B7010008CF
:10013000B7010008B7010008B7010008B7010008BF
:10014000B7010008B7010008B7010008B7010008AF
:10015000B7010008B7010008B7010008B70100089F
:10016000B7010008B7010008B7010008B70100088F
:10017000B7010008B7010008B7010008000000003F
:10018000B7010008B7010008DFF80CD000F056FBFB
:1001900000480047455F0208000C002006488047E1
:1001A00006480047FEE7FEE7FEE7FEE7FEE7FEE75C
:1001B000FEE7FEE7FEE7FEE7693800088901000870
:1001C0002DE9F05F0546002092469B46884606468C
:1001D000814640241BE0284641464746224600F01F
:1001E00047FA53465A46C01A914110D31146184651
:1001F000224600F02EFA2D1A67EB01084F462246E0
:100200000120002100F025FA17EB00094E41201EC5
:10021000A4F10104DFDC484631462A464346BDE8E6
:10022000F09F2DE9FE4F804681EA0300C00F0C4687
:10023000009021F0004123F00045B8EB0200A941F5
:1002400005D24046214690461C460B46024623F006
:100250000040104347D0270DC7F30A00C3F30A51EB
:100260000290401A019040286BDAC3F3130040F467
:10027000801B0098924620B10023D2EB030A63EB67
:100280000B0B01985946C0F14002504600F0E1F9CD
:1002900006460D4650465946019A00F0F9F910EB12
:1002A00008006141002487EA115284EAE7731A4387
:1002B00040D0009A62B3019A012A4FEA075215DC36
:1002C000001B61EB02014FF0004202EA0752CDE948
:1002D0000042001C41F5801132462B4600F030FAF6
:1002E00003B0BDE8F08F40462146F9E7001B61EB03
:1002F0000201001C41F5801300185B412018A2F593
:10030000001747EB030140EAD570B6196D4111E0C3
:100310006D084FEA360645EAC0754FEA0752001BE2
:1003200061EB0201001C41F5801149084FEA3000E1
:100330000019514132462B4603B0BDE8F04F00F0A2
:10034000F0B90098012240000023D0EB020263EBD9
:10035000E073009821464FEAE074B8EB000061EBCF
:100360000401E9E783F000435BE781F0004158E7CF
:100370002DE9FE4F81EA030404F0004421F000411E
:1003800000944FF0000B23F0004350EA01045ED0CC
:1003900052EA03045BD0C3F30A54C1F30A552C4458
:1003A000A4F2F3340194A0FB0254C1F3130141F40D
:1003B0008011C3F3130343F4801301FB024400FBD9
:1003C000034E840A970A44EA815447EA8357A4FB00
:1003D000076802958D0A05FB07854FEA932C04FBFD
:1003E0000C542705029D4FEA065847EA1637B5EB2D
:1003F00008056EEB070C870E920E47EA811742EA5A
:100400008312A7FB0201B6EB0B0164EB00042B0D7A
:1004100043EA0C335E1844EB1C50DA465146E7FBC6
:100420000201C5F313044FEA0B3343EA14534FEAB6
:100430000432019C43EA0603A4F10C040294009CDC
:10044000CDE900B400F07CF903B0BDE8F08F0020E6
:100450000146F9E72DE9F04D81EA030404F0004B71
:1004600021F0004514464FF0000A23F0004150EA05
:10047000050220D054EA01021DD0C5F30A570246F6
:10048000C5F31303C1F31300C1F30A5640F48015FA
:1004900043F48013A7EB0608101BD64608F2FD387C
:1004A00073EB050002D308F1010801E092185B41EB
:1004B000B8F1000F03DA00200146BDE8F08D0020FE
:1004C0004FF48011064684460EE0171B73EB0507B8
:1004D00005D3121B63EB050306434CEA010C4908E4
:1004E0004FEA300092185B4150EA0107EDD152EA21
:1004F000030012D082EA040083EA0501084305D014
:10050000101BAB4106D20122002306E000224FF06F
:10051000004302E06FF0010253101AEB06004CEBAF
:10052000085110EB0A0041EB0B01BDE8F04D00F063
:10053000F8B830B5041E71F1000404DB4FF000443C
:10054000404264EB0101141E73F1000405DB1C46FC
:100550004FF00043524263EB0403101A8B4101D267
:10056000012030BD002030BD0EB5C10F80EAE07023
:100570000844CA07002140F233438DE80E000A46C2
:100580000B4600F0DDF803B000BD70B5C1F30A52B0
:1005900001F000450024C1F3130140F2FF3341F4A0
:1005A00080119A4201DA002070BD40F233439A4232
:1005B000A2F2334203DC524200F05AF800E09040CD
:1005C0002C43F1D0404270BD00F0004230F00040BA
:1005D0000AD0C10D01F56071C0F3160042EA015165
:1005E000C20840071143704700200146704701F0E0
:1005F000004330B421F0004150EA010206D00A0D58
:10060000A2F56072C1F31301002A02DC30BC0020A5
:100610007047440F44EAC104C100E01830BC00EB4D
:10062000C25000F047B830B50B46014600202022EA
:10063000012409E021FA02F59D4205D303FA02F5EF
:10064000491B04FA02F52844151EA2F10102F1DC4F
:1006500030BD202A04DB203A00FA02F10020704766
:100660009140C2F1200320FA03F3194390407047F0
:10067000202A04DB203A21FA02F00021704721FAF7
:1006800002F3D040C2F1200291400843194670475E
:10069000202A06DBCB17203A41FA02F043EAE07346
:1006A00006E041FA02F3D040C2F120029140084333
:1006B000194670470029A8BF7047401C490008BF71
:1006C00020F00100704710B4B0FA80FC00FA0CF082
:1006D00050EA010404BF10BC704749B1CCF12004BA
:1006E00021FA04F411FA0CF118BF01212143084347
:1006F000A3EB0C01CB1D4FEA00614FEA102042BF73
:10070000002010BC704700EBC35010440029A4BF68
:1007100010BC7047401C490008BF20F0010010BC0D
:10072000704710B5141E73F1000408DA401C41F143
:10073000000192185B411A4301D120F0010010BD65
:100740002DE9F04D92469B4611B1B1FA81F202E0DB
:10075000B0FA80F220329046FFF77BFF04460F4646
:1007600040EA0A0041EA0B0153465A46084313D0B7
:10077000114653EA010019D0C8F140025046FFF774
:1007800077FF05460E46504659464246FFF761FF41
:10079000084305D0012004E020463946BDE8F08D2D
:1007A0000020054346EAE0762C4337430A98630568
:1007B000E40AA0EB08000022FD0A44EA47540A308C
:1007C00002D500200146E9E7010510196941DDE97C
:1007D000084500196941BDE8F04DA2E7C1F30A528E
:1007E000C1F3130140F2FF3341F480119A4202DA5F
:1007F00000200146704740F233439A42A2F233424E
:1008000002DC5242FFF734BFFFF723BF30B5041EAE
:1008100071F1000404DB4FF00044404264EB01013D
:10082000141E73F1000405DB1C464FF000435242D6
:1008300063EB0403994208BF904230BD064C074D5C
:1008400006E0E06840F0010394E8070098471034A0
:10085000AC42F6D3FFF79CFCF48102081482020834
:100860000EB540F2334102910021CDE900110A4654
:100870000B46FFF765FF03B000BD0000FEE7000078
:1008800040F23010C2F2000000F004BD80B540F22A
:100890003010C2F2000001210022C0E9111101460E
:1008A00041F8282FC0E90B22C0E90D22C0E90F2230
:1008B00000F0EEFB002818BF00F088F840F230107E
:1008C000C2F2000000F058FF20B10BA026F076F92C
:1008D00000F07CF840F23010C2F20000022100F07B
:1008E0005FFB002808BF80BD09A026F067F9BDE8BE
:1008F000804000F06BB800BF0A43414E315F537433
:10090000617274204661696C6564212100000000F9
:100910000A52585F4649464F305F537461727420E3
:100920004661696C65642121000000007047000089
:1009300070B5002808BF70BD40F2E4650446C2F2FD
:100940000005002605E000BF2846013C01F068FDD7
:10095000C4B128684662284601F010FD286800BF2F
:10096000416AC9087C29EFD8416AC9087C29EBD8BB
:10097000416AC9087C29E7D8416AB1F57A7FEFD38B
:10098000E2E700BF70BD0000B0B540F2E465C2F21E
:1009900000050446286800214162284601F0EEFC6B
:1009A000286800BF416AA14208D2416AA14205D22B
:1009B000416AA14202D2416AA142F3D340F2E4600B
:1009C000C2F20000BDE8B04001F02ABDEFF3108094
:1009D00072B600BFFEE7000070B581B00022009241
:1009E00090F83C20012A03D10221084601B070BDD5
:1009F0000E6801220A2E80F83C2009D3B2B25200C0
:100A0000D0F800E012FA86F21E3A0EF10C0305E06F
:100A1000D0F800E006EB46020EF110034FF0070C91
:100A20001D680CFA02F4A5431D608D681C6805FA68
:100A300002F222431A60496806290FD801EB8101AE
:100A40004A1F71461F2351F8345F934025EA030380
:100A50000B60B3B203FA02F214E000BF01EB8103B2
:100A60000C29B2B204D8714651F8304F233B03E051
:100A7000714651F82C4F413B1F259D4024EA050546
:100A80009A400D600B6842F2043CC4F2010C1A4318
:100A9000ACF541739E450A603BD1122E06D1DCF8BD
:100AA000001041F48001CCF8001032E026F0010182
:100AB00010292ED1DCF80010102E41F40001CCF8E2
:100AC000001026D140F21C01C2F2000109684DF667
:100AD0008362C4F21B32A1FB0212910C01EB810173
:100AE000490000910099A1B1009901390091009944
:100AF00079B1009901390091009951B100990139FA
:100B00000091009929B100990139009100990029BB
:100B1000EAD1002180F83C10084601B070BD000009
:100B2000006C70470068C06C70470000002804BF6C
:100B30000120704710B50446006C00283ED0206CA0
:100B4000C00645D4206C41F202118843023042F2C3
:100B500004312064C4F20101086820F440300860C8
:100B60000A6894E809101A43D4F810E00A60416852
:100B7000012321F4807141604168C0F6007341EAAD
:100B80000E214160416821F040714160416841EAB5
:100B90000C014160816821F400618160E168826834
:100BA00011438160A16A8268994222F0706282607A
:100BB000826813D122F0405119E000BF204600F0B6
:100BC00065F80020606484F83C00206CC006B9D54C
:100BD0000120002184F83C1010BD00BF114381604A
:100BE000816821F040518160E16A8268114381602F
:100BF000816821F0020181608168227E94F82030B2
:100C000041EA42018160416883B141F40061416081
:100C100041684EF2000221F460414160616ACFF602
:100C2000FF72436802EB4131194301E021F4006196
:100C30004160C16A40F2000C21F47001C162E269B6
:100C40006169CFF6F07CC36A0CEB02521A43C262B0
:100C5000826822F40072826094F83020836843EA4C
:100C600042228260826822F480628260826842EA64
:100C70008121816000206064216C012262F3010106
:100C80002164002184F83C1010BD0000F0B587B04D
:100C900042F200050068C4F201050026A84206964B
:100CA000059601D007B0F0BD43F630000196C4F2BE
:100CB0000200416902AC41F480714161416903273E
:100CC00001F48071019101990196016841F00101DF
:100CD0000160016801F0010101910199019601682B
:100CE00041F0020101600068214600F0020001901D
:100CF0000198E020029005F56040CDE9037600F010
:100D0000E5FD0120CDE9020705F564402146049682
:100D100000F0DCFD07B0F0BD70B5044600680D467C
:100D20008268520544BF80685FEAC05038D400F042
:100D3000A1FE21680A68920749D40646681C3CD087
:100D4000DDB90868800721D5086880073FD40868A6
:100D500080071BD50868800739D40868800715D537
:100D60000868800733D4086880070FD508688007B3
:100D7000E7D52CE00868800729D400F07BFE801BB3
:100D80002168A842F6D908688007F3D4206C40F0A7
:100D900004002064002084F83C00032070BD00BFE4
:100DA000206C40F020002064002084F83C000120EA
:100DB00070BD00BF0868800709D40868800706D4A2
:100DC000086880075CBF08685FEA8070F2D56FF042
:100DD00012000860206C40F400702064886810F0F5
:100DE000405F01D1207E08B1002070BDC86A10F4B8
:100DF000700F02D088684005F6D4206C20F4807013
:100E00002064206CC004EFD4206C40F0010020640A
:100E1000002070BD10B581B00021009190F83C1009
:100E2000012903D1022001B010BD00BF04680121D7
:100E300080F83C10214651F8083FDB0729D10B68A8
:100E40004DF6836243F001030B6040F21C03C2F2D3
:100E500000031B68C4F21B32A3FB02239A0C02EBB3
:100E600042020092009AA2B1009A013A0092009ABE
:100E70007AB1009A013A0092009A52B1009A013A6E
:100E80000092009A2AB1009A013A0092009A002A30
:100E9000EAD10A68036CD2070AD143F01001016459
:100EA00000F1440101200A681043086056E000BFC9
:100EB00040F2017223EA020202F580720264626863
:100EC000520504D5026C012363F30D320264026CF7
:100ED0004FF0000E0023D20444BF426C22F0060300
:100EE00042F2043C436480F83CE06FF02200C4F21C
:100EF000010C2060DCF80000C0060DD0ACF541709C
:100F000084422BD14FF60450CFF6FF705CF80000FE
:100F100010F0405F22D125E042F20000C4F201004F
:100F2000844217D042F20020C4F2010084420DD066
:100F300042F20010C4F2010084420FD1DCF800003C
:100F4000C00607D0ACF58270844207D1DCF80000FF
:100F5000C00603D4086810F0405F03D0002001B041
:100F600010BD00BF4FF080409DE7000090F83C109E
:100F7000012904BF0220704701688A6822F001023B
:100F80008A608968C90705D1016C41F20112914359
:100F900001310164002180F83C10084670470000D0
:100FA00090F82020013A012A08D8006800F11402C4
:100FB0000020136819431160704700BF00F124023C
:100FC00001204FF48021136819431160704700001D
:100FD00010B590F820E0D0F800C0AEF1010EBEF1DF
:100FE000010FDCF808E011D81EF0E05F18D0CEF356
:100FF000016EBEF1030F1DD100F1240101204FF459
:1010000000020B681A430A6010BD00BF00F1240102
:1010100001204FF480220B681A430A6010BD00BF04
:1010200000F1240101204FF400120B681A430A60FA
:1010300010BD00BF012000FA0EF01860886828B1CA
:101040004B68CC6844EAC303034303E00868CB68F9
:1010500043EA40530CEB0E10C0F880310B69C0F826
:101060008431097D012905D100F5C2710B6843F473
:1010700080730B605168C0F88C11126800F5C07164
:10108000C0F88821002001220B681A430A6010BDB5
:10109000B0B590F82020013A012A2FD846F200601E
:1010A000C4F20000026842F001020260026822F409
:1010B0007C520260D1F814E0CC694A6A0368012CC2
:1010C00043EA022202600EF01F024FF0010303FA0E
:1010D00002F2C3696FEA020C23EA0203C36113D070
:1010E0002CBBC36803EA0C03C360CB688C8844EA5A
:1010F000034300EBCE0423640B4611E0416A41F444
:10110000802141620120B0BDC3681343C3600B68F6
:101110008C8844EA034300EBCE04236401F10C0302
:101120008C681B8843EA044300EBCE046364436885
:101130008D6943EA0204D1F810E0096A002D08BF66
:1011400003EA0C0444604369BEF1000F43EA020461
:1011500008BF03EA0C040129446102D1C1691143AB
:10116000C161016821F0010101600020B0BD0000F3
:101170007047000010B590F82040013C012C71D858
:10118000D0F800C0002977D0DCF81040A40777D051
:101190000CEB011CDCF8B0410CF5D87E14F0040413
:1011A0009460DCF8B04119BFE4085460640D146029
:1011B000DEF80040002904F00204D460DCF8B441F9
:1011C00004F00F041461DCF8B441C4F30724946103
:1011D000DCF8B4414FEA14445461DCF8B8211A70C9
:1011E000026802EB0112D2F8B8214FEA12225A70BB
:1011F000026802EB0112D2F8B8214FEA12429A704B
:10120000026802EB0112D2F8B8214FEA1262DA70DA
:10121000026802EB0112D2F8BC211A71026802EBDB
:101220000112D2F8BC214FEA12225A71026802EB75
:101230000112D2F8BC214FEA12429A71026802EB05
:101240000112D2F8BC214FEA1262DA71006814BFB1
:1012500000F1100100F10C01002020220B681A435C
:101260000A6010BD00F1240101204FF480220B68B8
:101270001A430A6010BD00BFDCF80C40A40787D1F8
:1012800000F1240101204FF400120B681A430A6098
:1012900010BD00002DE9F04F81B00446006846699A
:1012A000D0F804908768D0F80CB0D0F810A0D0F82F
:1012B0001880F10704D1002530071DD424E000BFB9
:1012C000F90710D00121BA07816009D4780700F12D
:1012D000AF80380700F1B680204600F07BFA02E0CC
:1012E000204600F079FA0025F80500F18780F80320
:1012F00000F1B180300707D51BF0100004D0206842
:1013000045F400751021C160700708D51BF0080076
:1013100005D020680821C160204600F0A3F9B0077D
:1013200006D52068C068800702D0204600F09CF9EE
:10133000700607D51AF0100004D0206845F48065C7
:1013400010210161B00608D51AF0080005D0206808
:1013500008210161204600F009FAF00606D5206850
:101360000069800702D0204600F002FAB00308D5D9
:1013700019F0100005D0206810214160204600F0CF
:10138000F9F9F00308D519F0080005D02068082104
:101390004160204600F02AFA300440F19B805FEA69
:1013A000497040F1948006F4807008EA10202843C8
:1013B0005FEA8871014648BF41F00201B20558BF9B
:1013C00001465FEA48700D4648BF45F004057005C8
:1013D00058BF0D46300540F17A8018F0700000F0DB
:1013E00076801038000905286CD8DFE800F0035932
:1013F0005D61656945F0080564E000BF20684FF451
:101400008071BA0581600BD4780515D438051DD4D8
:10141000204600F0E3F9F8037FF56CAF1BE000BF56
:10142000204600F0DDF9F8037FF564AF13E000BF5C
:101430004FF4006558E700BF05F50055F8037FF548
:1014400059AF08E04FF480554EE700BF05F58045E1
:10145000F8037FF54FAF20684FF48031BA03816005
:101460000AD4780310D4380314D4204600F0BAF913
:1014700030073FF541AF47E7204600F0B5F93007A8
:101480003FF53AAF40E700BF05F5004530073FF5AF
:1014900033AF39E705F5803530073FF52DAF33E73A
:1014A00045F010050EE000BF45F020050AE000BF42
:1014B00045F0400506E000BF45F0800502E000BFB2
:1014C00045F480752068816921F070018161206890
:1014D0000421416055B1606A40EA0501204661621D
:1014E00001B0BDE8F04FFFF743BE00BF01B0BDE85B
:1014F000F08F0000B0B5C8B1044690F8200010B9D4
:10150000204600F071F82068016841F00101016097
:1015100000F0B0FA054600BF20684168C90707D14E
:1015200000F0A8FA401B0B28F6D312E00120B0BD52
:10153000016821F00201016000F09CFA054600BF3D
:101540002068416889070DD500F094FA401B0B28EC
:10155000F6D3606A052140F400306062012084F80F
:101560002010B0BD217E0268012922F0800208BF50
:1015700080320260617E0268012922F0400208BFC9
:1015800040320260A17E0268012922F0200208BFD9
:1015900020320260E17E0268012922F0100218BFA9
:1015A00010320260217F0268012922F0080208BF80
:1015B00008320260617F0268012922F0040208BF3C
:1015C00004320260D4E901C2D4E9033561691A43E7
:1015D0002A431143ACF101021143C16100200121F2
:1015E000606284F82010B0BD80B586B0016846F214
:1015F0000040C4F20000814202D006B080BD00BFAE
:10160000002143F630020191C4F20202136900F591
:10161000CE3043F000731361136903F0007301933C
:10162000019B0191136843F001031360126802F0FB
:1016300001020192019A4FF4C05201920222CDE9B7
:101640000221032104910921059101A900F03EF92D
:1016500014200021002200F091FA142000F07AFA00
:1016600006B080BD7047000080B582B0026846F2C7
:101670000043C4F2000300219A420191009101D07D
:1016800002B080BD40F22062C2F200026B4600212F
:10169000FFF770FD0028F3D19DF801209DF802109E
:1016A0009DF805002B2A08BFE82915D02B2A08BF72
:1016B000E2291DD09DF800009B2825DC33282FD07F
:1016C000922849D1DDE9000140F2BC12C2F20002C9
:1016D0005160106002B080BDE928E7D1DDE900016A
:1016E00040F29412C2F200025160106002B080BD5C
:1016F000E428DFD1DDE9000140F29C12C2F20002D1
:101700005160106002B080BD9C281BD0A42823D15A
:10171000DDE9000240F2CC11C2F2000106E000BF98
:10172000DDE9000240F2D411C2F20001086040F28B
:1017300074704A60C2F200000822052301F01EFC0A
:1017400002B080BDDDE9000140F2C412C2F2000225
:101750005160106002B080BDDDE9000140F2B412BA
:10176000C2F200025160106002B080BD70470000FC
:101770007047000070470000B0B5044690F82000A4
:1017800001281DD1022084F820002068016821F082
:101790000101016000F06EF9054600BF2068406855
:1017A000C00713D000F066F9401B0B28F6D3606A1F
:1017B00040F400306062052084F820000120B0BDB4
:1017C000606A40F4002060620120B0BD00206062C9
:1017D000B0BD000070470000704700007047000077
:1017E000704700007047000070470000704700001D
:1017F00070B5866D044600F03DF994F83510022965
:1018000028D105462068216C026822F01602026089
:10181000426922F08002426109B9A16C19B10168E4
:1018200021F008010160016821F00101016000BFA1
:1018300020680068C00715D000F01CF9401B06287E
:10184000F6D320206065032084F83500002184F859
:10185000341070BD802060650120002184F83410B0
:1018600070BD00BFE06D3F2101FA00F0B0600120C3
:1018700084F835000020002184F8341070BD000089
:1018800090F83510022909D1052180F8351000683B
:10189000016821F00101016000207047802141654D
:1018A00001207047B0B5044600F0E4F8054640F268
:1018B0000800C2F200000078611C18BF044400BF99
:1018C00000F0D8F8401BA042FAD3B0BD2DE9F04F8C
:1018D00082B000F13E4241F6004502F1FF77C4F2CA
:1018E0000205082243F6004E4FEAB726A84208BF79
:1018F0000722C4F2010E072E38BF4FEAB722012596
:10190000002600274FF00008009208E008F10108C7
:101910000437B8F1100F06F1020600F0A7800C683A
:1019200005FA08F914EA090FF0D0D1F804B003223F
:101930000BF0030CACF10104B240012C6FEA020A77
:1019400010D88268CC6802EA0A02B440224382605E
:101950004268CBF3001422EA090204FA08F4224395
:10196000426005E0BCF1030F02D14FF0030C20E010
:10197000C2688C6802EA0A02B4402243BCF1020F3A
:10198000C26016D16FF0030202EA58020244D2F894
:1019900020C007F01C050F230C69AB402CEA0303A1
:1019A00004FA05F52B431362D1F804B001250BF0BE
:1019B000030C02680CFA06F302EA0A021A431BF44B
:1019C000403F0260A2D0002243F644030192C4F2D9
:1019D00002031A684FF6084C42F480421A601A68F3
:1019E000CFF6FF7C02F480420192019A28F00302B4
:1019F000724452F80C3007F00C050F24AC40A3439E
:101A0000009C04FA05F52B4342F80C30DEF8082060
:101A10004B6842EA090543F60C4CDC0258BF22EA47
:101A20000905CEF80850C4F2010CDCF800209C0235
:101A300042EA090558BF22EA0905CCF80050DEF851
:101A400004209C0342EA090558BF22EA0905CEF8A2
:101A50000450DEF80020DB0342EA090558BF22EA01
:101A60000905CEF80050012550E700BF02B0BDE8DF
:101A7000F08F000040F2FC70C2F200000068704776
:101A800040F2080040F2FC71C2F20000C2F2000114
:101A900000780A68104408607047000080B543F67B
:101AA0000040C4F20200016841F400710160016865
:101AB00041F480610160016841F48071016003209C
:101AC00000F088F80F2000F005F800F027F800205B
:101AD00080BD000070B540F20806C2F2000640F278
:101AE0001C013278C2F200014FF47A730968B3FB2B
:101AF000F2F20446B1FBF2F1084600F043FB0F2C72
:101B00004FF0010508D838B94FF0FF3021460022C8
:101B1000002500F033F87460284670BD82B00020C4
:101B200043F640010190C4F202014A6842F4804247
:101B30004A604A6802F480420192019A0090086863
:101B400040F080500860086800F0805000900098D5
:101B500002B07047002848BF7047C1B200F01F00B4
:101B6000012202FA00F04EF20012CEF2000242EA26
:101B7000D10121F0030108607047000010B54EF656
:101B80000C5CCEF2000CDCF80030C3F3022E8EF0B9
:101B90000704042C28BF0424BEF103034FF0FF3ECA
:101BA0000EFA04F438BF0023A14399400EFA03F360
:101BB0009A43114300F00F0200F160430901043A17
:101BC00003F564436244002848BF02F10C03197016
:101BD00010BD00004EF60C51CEF200010A684FF61F
:101BE000FF031A4060F30A2242F0806040F0FD706B
:101BF000086070472DE9F041002800F08B8043F623
:101C00000808C4F202080446D8F8F8030D4600F0AC
:101C10000700884207D288F8F853D8F8F80300F094
:101C20000700A84276D12068810717D5410705D55E
:101C3000D8F8001041F4E051C8F80010010705D5AC
:101C4000D8F8001041F46041C8F80010D8F800102E
:101C5000A26821F0F0011143C8F80010C0073FD17D
:101C6000D8F8F80300F00700A84207D988F8F8531D
:101C7000D8F8F80300F00700A8424BD120684107CC
:101C800007D5D8F80010E26821F4E0511143C8F8F4
:101C90000010000708D5D8F80000216920F4604042
:101CA00040EAC100C8F8000000F07CF8D8F8001045
:101CB00048F21002C1F30311C0F60202515C40F277
:101CC0001C0220FA01F140F20C00C2F20000006890
:101CD000C2F200021160FFF7FDFE0020BDE8F081B6
:101CE0006068811E022907D258F8081C89015CBF70
:101CF0000120BDE8F08111E0012807D158F8081C47
:101D000089035CBF0120BDE8F08107E058F8081C9A
:101D1000890703D40120BDE8F08100BFD8F8001086
:101D200021F003010843C8F80000FFF7A3FE0646B0
:101D300041F28837D8F80000616800F00C00B0EB81
:101D4000810F8DD0FFF796FE801BB842F2D9032099
:101D5000BDE8F08140F21C0043F60801C2F2000029
:101D6000C4F202010068096848F22002C1F382212E
:101D7000C0F60202515CC8407047000040F21C00EF
:101D800043F60801C2F20000C4F2020100680968CB
:101D900048F22002C1F34231C0F60202515CC84051
:101DA0007047000010B543F60404C4F202046068F2
:101DB00000F00C0008280BD0042819BF42F20040A4
:101DC000C0F2F40047F64000C0F27D1010BD00BF25
:101DD000206821682368490247F64001C0F27D115E
:101DE00000F03F02C3F388105CBF42F20041C0F232
:101DF000F401A1FB00010023FEF7E2F921680222B1
:101E0000C1F3014102EB4101B0FBF1F010BD000054
:101E10002DE9F04182B0002868D00446007843F6EE
:101E20000006C007C4F202060BD0B06800F00C0038
:101E3000042840F09F803068800302D56068002845
:101E400054D0207880071AD5B06810F00C0F09D054
:101E5000B06800F00C00082840F0A68070684002CE
:101E600000F1A2803068800702D5E06801283DD1EA
:101E70003068216920F0F80040EAC1003060207825
:101E8000000737D4207840074CD4A56955B3B06813
:101E900000F00C00082840F0BB80012D26D07068AF
:101EA000E16900F480028A4220D1216A00F03F02F9
:101EB0008A421BD147F6C071626A0140B1EB821FB2
:101EC00014D1A16A4FF6FF73C903994300F440325D
:101ED000A1F580318A4209D1E16A00F07060B0EB6F
:101EE000016F03D1002002B0BDE8F081012002B0F3
:101EF000BDE8F0816069002840F20000C4F247208C
:101F000076D00121C0F8801EFFF7B4FD054600BF62
:101F1000706F8007B6D4FFF7ADFD401B0228F7D9DC
:101F2000DDE000BF306C10F080580AD10020019035
:101F3000306C40F080503064306C00F08050019084
:101F4000019847F20007C4F200073868C00541D481
:101F5000386840F480703860FFF78CFD054600BF9C
:101F60003868C00536D4FFF785FD401B0228F7D935
:101F7000B5E000BFB06800F00C00082803D170681D
:101F800040023FF558AF6068B0F5803F07D0B0F52C
:101F9000A02F40F08D80306840F4802030603068A1
:101FA00040F4803030608DE0E068002852D000209E
:101FB000C4F2472001210160FFF75CFD054600BF28
:101FC000306880073FF554AFFFF754FD401B0228EF
:101FD000F6D984E0A068012805D005284ED1306FDD
:101FE00040F004003067306F40F0010030674FE090
:101FF0000021C0F8801EFFF73DFD0546706F800789
:102000007FF540AFFFF736FD401B0228F6D966E0AA
:102010000027C4F2472700203866FFF72BFD022D6A
:1020200005460BD1306880015ED5FFF723FD401BCC
:1020300002284FF00300F5D955E700BF3068800152
:102040007FF550AFFFF716FD401B02284FF003004D
:10205000F4D948E70020C4F2472000210160FFF7CF
:1020600009FD0546306880077FF509AFFFF702FDDF
:10207000401B02284FF00300F4D934E7316F0028E9
:1020800021F001013167316F21F0040131674DD03A
:10209000FFF7F0FC054641F2883700BF306F80073C
:1020A00056D4FFF7E7FC401BB842F7D917E000BF52
:1020B0003168002821F480313160316821F48021B9
:1020C00031604FD0FFF7D6FC054600BF3068800373
:1020D0003FF5B7AEFFF7CEFC401B6428F6D90320CE
:1020E00002B0BDE8F08100BF04F11C052FCD08430C
:1020F00040EA8210D9034FF6FF729143A1F5803177
:1021000040EA05600843706001203866FFF7B2FCC2
:10211000044600BF306880013FF5E4AEFFF7AAFC3B
:10212000001B02284FF00300F4D9DCE6FFF7A2FC05
:10213000054641F2883700BF306F800708D5FFF7AA
:1021400099FC401BB8424FF00300F5D9CBE600BF25
:10215000B8F1000F7FF499AE306C20F080503064FD
:1021600093E600BFFFF786FC054600BF306880039A
:102170007FF567AEFFF77EFC401B64284FF003003D
:10218000F4D9B0E6411E0020B0EB116F1CBF012056
:1021900070474EF21002CEF2000251604EF623510B
:1021A000CEF20001F0230B700721906011607047A0
:1021B000704700007047000010B590F83C20012ADD
:1021C0004FF0020251D080F83D200268D2F804E0BE
:1021D000D2F808C00C682EF07003234341F2FF745C
:1021E000C4F20004A24253600EDC40F2FF73C4F25A
:1021F00000039A4216DCB2F1804F2BD040F200432C
:10220000C4F2000324E000BF40F2FF33C4F2010334
:102210009A4213DC41F60003C4F200039A4219D03B
:10222000002313E040F60003C4F200039A4211D0E9
:1022300040F60043C4F200030AE000BF44F200038A
:10224000C4F201039A4205D040F20043C4F20103F4
:102250009A4204D149682CF080031943916001210E
:10226000002280F83D1080F83C20104610BD000090
:10227000002804BF0120704710B5044690F83D00C7
:1022800028B9002084F83C00204600F01FF8022006
:1022900084F83D002068211D01F0FCFA012084F83B
:1022A000460084F83E0084F83F0084F8400084F83B
:1022B000410084F8420084F8430084F8440084F824
:1022C000450084F83D00002010BD000080B584B0BA
:1022D000006840F60001C4F20001884222D040F2BA
:1022E0000041C4F20001884236D0B0F1804F42D1A3
:1022F0000020039043F64000C4F20200016800226F
:1023000041F0010101600068022100F0010003902A
:1023100003981C20FFF732FC1C2004B0BDE880406D
:10232000FFF718BC0020019043F64000C4F2020001
:102330000168002241F0040101600068032100F0FF
:102340000400019001981E20FFF718FC1E2004B025
:10235000BDE88040FFF7FEBB0020029043F640003E
:10236000C4F20200016841F002010160006800F05F
:1023700002000290029804B080BD000090F83D1069
:1023800001291CBF01207047022180F83D10006820
:1023900041F2FF71C4F2000188420DDC40F2FF718E
:1023A000C4F20001884215DCB0F1804F2AD040F21F
:1023B0000041C4F2000123E040F2FF31C4F2010108
:1023C000884213DC41F60001C4F20001884219D0B2
:1023D000002113E040F60001C4F20001884211D050
:1023E00040F60041C4F200010AE000BF44F20001DF
:1023F000C4F20101884205D040F20041C4F201015B
:10240000884206D1816801F00701062904BF002037
:102410007047016841F00101016000207047000031
:102420000146006841F21113026A1A4204D00122E7
:10243000002081F83D207047026A40F244431A426E
:10244000F5D1026822F0010202600122002081F829
:102450003D2070470146006841F21113C26822F026
:102460000102C260026A1A4204D00122002081F8EF
:102470003D207047026A40F244431A42F5D1026897
:1024800022F0010202600122002081F83D20704705
:1024900080B590F83C20012A4FF0020200F0C28083
:1024A00080F83D20D0F800C04FF67772DCF8083095
:1024B00023EA0202CCF808200B684F2B28DC1F2BE4
:1024C00044DD202B45D0302B43D0402B40F0AC8056
:1024D000D1F804E0C968DCF82030DCF8202022F0D4
:1024E0000102CCF82020DCF8182022F0F00242EAA9
:1024F000011123F00A0242EA0E02CCF81810CCF8BF
:102500002020DCF8081041F0470121F0300180E084
:102510006F2B27DDB3F5005F48D0B3F5805F7AD02D
:10252000702B40F08180D1E901E3C968DCF8082014
:1025300043EA0E0322F47F4243EA01211143CCF81F
:102540000810DCF8081041F0770162E00BB1102BA5
:102550006AD1DCF8081021F07001194341F007013D
:1025600057E000BF502B35D0602B5DD1D1F804E08F
:10257000C968DCF8203023F01003CCF82030DCF8F8
:102580001830DCF8202023F4704322F0A00243EA44
:10259000013142EA0E12CCF81810CCF82020DCF8F9
:1025A000081041F0670121F0100132E0D1E901E3A8
:1025B000C968DCF8082043EA0E0322F47F4243EAAC
:1025C00001211143CCF80810DCF8081041F48041D7
:1025D0001FE000BFD1F804E0C968DCF82030DCF867
:1025E000202022F00102CCF82020DCF8182022F074
:1025F000F00242EA011123F00A0242EA0E02CCF88C
:102600001810CCF82020DCF8081041F0570121F018
:102610002001CCF808100022012180F83D10002193
:1026200080F83C10104680BD0122F5E7704700009D
:1026300010B5016804460869800744BFC8685FEAAE
:10264000807039D40869400744BFC8685FEA4070A9
:102650003ED40869000744BFC8685FEA007045D4EB
:102660000869C00644BFC8685FEAC0604AD4086908
:10267000C0071CBFC8685FEAC07051D10869000676
:1026800044BFC8685FEA006052D40869400644BF8E
:10269000C8685FEA406053D40869800646BFC868CE
:1026A0005FEA806010BD6FF0200220460A61BDE83D
:1026B0001040FFF77FBD00BF6FF0020008610120EE
:1026C00020778869800743D02046FFF7AFFF45E0B9
:1026D0006FF00400086102202077886910F4407FC1
:1026E00040D02046FFF7A2FF42E000BF6FF0080095
:1026F000086104202077C86980073DD02046FFF795
:1027000095FF3FE06FF01000086108202077C8694E
:1027100010F4407F3AD02046FFF788FF3CE000BF2E
:102720006FF001000861204600F03EF82168A5E73F
:102730006FF0800008612046FFF73AFD2168A4E7AA
:102740006FF040000861204600F066F82168A3E7BA
:10275000204600F025F8204600F024F821680020EB
:1027600020776FE7204600F01BF8204600F01AF8AB
:102770002168002020776CE7204600F011F8204601
:1027800000F010F821680020207769E7204600F06B
:1027900007F8204600F006F821680020207766E759
:1027A000704700007047000010B504460068B0F1A3
:1027B000804F07D040F60001C4F2000188420AD0E1
:1027C00010BD00BF23F040FE206840F60001C4F2B7
:1027D00000018842F4D140F28210C2F20000018868
:1027E00041F2111241F40041018040F22C70C2F21A
:1027F000000000686FF001010161016A1142DFD140
:10280000016A40F24442114218BF10BD016821F034
:102810000101016010BD000070470000704700001A
:1028200070470000B0B582B0044600680168C36814
:10283000426901F02F05202D03F0200506D12DB1AE
:10284000204602B0BDE8B04001F0C8B85FEA017CA4
:102850001EBF02F0010E03F4907212EB0E0253D170
:10286000226B012A05D111F0100218BF13F01002DB
:1028700036D10A0622D513F080021FD094F83D10FD
:1028800021293FD1A168B1F5805F03D121690029D9
:1028900000F07282216A4A1C226209784160E18C50
:1028A00001390A04E1842DD1C16821F08001C160A1
:1028B000C16841F04001C16002B0B0BD490621D5F8
:1028C00013F040011ED0C16821F04001C1602021F9
:1028D000204684F83D1002B0BDE8B04000F092BC44
:1028E00000210191016801914168019101994069BC
:1028F000400613D4A08DE18DE28D002A18BF8842D6
:1029000040F0BE8102B0B0BDCA0718BF13F4807298
:1029100040F0BA804A0700F1BD80C2E0A16B0868B0
:10292000426893B2002BEDD0A08D8342EAD2E285BB
:10293000C969B1F5807F00F09D80206850E8030FE1
:10294000216820F4807041E80302DAB1206850E881
:10295000030F216820F4807041E8030292B12068DF
:1029600050E8030F216820F4807041E803024AB167
:10297000206850E8030F216820F4807041E80302CA
:10298000002ADAD1206850E8050F216820F0010004
:1029900041E80502DAB1206850E8050F216820F00F
:1029A000010041E8050292B1206850E8050F216856
:1029B00020F0010041E805024AB1206850E8050F07
:1029C000216820F0010041E80502002ADAD12068E0
:1029D00050E8050F216820F0400041E80502DAB117
:1029E000206850E8050F216820F0400041E805020A
:1029F00092B1206850E8050F216820F0400041E8BE
:102A000005024AB1206850E8050F216820F0400017
:102A100041E80502002ADAD1202084F83E00002097
:102A20002063206850E8030F216820F0100041E87F
:102A30000302DAB1206850E8030F216820F010008B
:102A400041E8030292B1206850E8030F216820F0AA
:102A5000100041E803024AB1206850E8030F2168E2
:102A600020F0100041E80302002ADAD1A06BFEF743
:102A7000BFFEA08DE18D401A81B2204602B0BDE8B4
:102A8000B040FFF7CBBE00BF226C42F001022264CF
:102A90004A0706D5BEF1000F03D0226C42F00202B5
:102AA00022648A0706D5BEF1000F03D0226C42F0E3
:102AB00004022264BCF1000F09D545EA0E02B2FA05
:102AC00082F2520903D1226C42F008022264226C85
:102AD000002A3FF417AF11F0200118BF002D03D0DA
:102AE000204600F07BFF20684069216C00F0400028
:102AF00001F00801401800F0B58000BF206850E8E0
:102B0000030F216820F4907041E80302BAB32068F3
:102B100050E8030F216820F4907041E8030272B37B
:102B2000206850E8030F216820F4907041E8030208
:102B30002AB3206850E8030F216820F4907041E820
:102B40000302002ADAD11AE0206850E8050F216854
:102B500020F0010041E80502DAB1206850E8050FD5
:102B6000216820F0010041E8050292B1206850E898
:102B7000050F216820F0010041E805024AB12068F4
:102B800050E8050F216820F0010041E80502002A05
:102B9000DAD1206B012824D1206850E8030F216886
:102BA00020F0100041E80302DAB1206850E8030F7A
:102BB000216820F0100041E8030292B1206850E83B
:102BC000030F216820F0100041E803024AB1206899
:102BD00050E8030F216820F0100041E80302002AAA
:102BE000DAD1202084F83E0000202063206840696C
:102BF00040063FD5206850E8050F216820F04000CE
:102C000041E80502DAB1206850E8050F216820F09C
:102C1000400041E8050292B1206850E8050F2168A4
:102C200020F0400041E805024AB1206850E8050F55
:102C3000216820F0400041E80502002ADAD1A06BAB
:102C4000C0B143F6D111C0F600010165FEF718FED0
:102C500000283FF457AEA06B016D02B0BDE8B04054
:102C6000084700BF2046FFF7DBFD0020206402B0CC
:102C7000B0BD00BF204602B0BDE8B040FFF7D0BDF8
:102C8000401A216851E8031F226821F4907142E83C
:102C90000313DBB1216851E8031F226821F490710E
:102CA00042E8031393B1216851E8031F226821F41D
:102CB000907142E803134BB1216851E8031F226869
:102CC00021F4907142E80313002BDAD1216851E816
:102CD000051F226821F0010142E80513DBB12168DC
:102CE00051E8051F226821F0010142E8051393B164
:102CF000216851E8051F226821F0010142E805130F
:102D00004BB1216851E8051F226821F0010142E81A
:102D10000513002BDAD1202184F83E100021216315
:102D2000216851E8031F226821F0100142E80313D3
:102D3000002B3FF4A1AE216851E8031F226821F067
:102D4000100142E80313002B3FF496AE216851E8CE
:102D5000031F226821F0100142E80313002B3FF407
:102D60008BAE216851E8031F226821F0100142E870
:102D70000313002BD4D17FE6216A31F8022B6FF3C5
:102D80005F22426021628AE5002804BF012070476B
:102D900010B5044690F83D0028B9002084F83C00A6
:102DA000204600F021F8242084F83D002068C16806
:102DB00021F40051C160204600F090FE20680169B6
:102DC00021F490410161416921F02A014161C1680A
:102DD00041F40051C16000202021206484F83D109E
:102DE00084F83E1010BD000010B586B0006844F6AF
:102DF0000002C4F2000200219042CDE90411CDE9A5
:102E00000211019126D041F20001C4F20101884271
:102E100054D1002043F630010090C4F202014A6907
:102E2000252442F010024A614A6902F01002009221
:102E3000009A0090086840F00100086008684FF4AC
:102E4000C06100F00100009000980020C4F2020070
:102E500020E000BF43F630000091C4F20200026996
:102E6000272442F480220261026902F48022009247
:102E7000009A0091016841F00201016000684FF47E
:102E8000406100F00200009000980020C4F20200AF
:102E900000F580600191022102910021039103213C
:102EA00004910721059101A9FEF710FD2046032199
:102EB0000022FEF763FE2046FEF74CFE06B010BD72
:102EC00090F83E30202B0BD100294FF0010318BFA2
:102ED000002A01D11846704790F83C30012B01D1EF
:102EE0000220704700230363816222218285C2850C
:102EF000036480F83E100269016880F83C301AB122
:102F0000C86840F48070C8604869002340F0010040
:102F10004861C86840F02000C8601846704700004B
:102F2000006844F60001C4F20001884200D07047F6
:102F300040F28010C2F20000B0F90210002948BF30
:102F4000704789B24A09182A14D840F22C72C2F28A
:102F5000000212680023536219B9136843F0010399
:102F600013604B1C0278438040F20030C2F2000034
:102F70004254704741F40041418070472DE9F043CD
:102F800081B0044690F83D0020280DD10F4600295D
:102F90004FF0010000F0DD801646002A00F0D980D5
:102FA00094F83C00012803D1022001B0BDE8F08371
:102FB000012084F83C000020206421201D4684F874
:102FC0003D00FEF757FDA684E684A1680646B1F5EC
:102FD000805F03D12069002800F01081B8460027E7
:102FE000002084F83C00E18C2068002900F09080EB
:102FF00005F101090DE000BFB8F1000F28D018F865
:10300000011B4160E18C0139E184E18C002900F071
:103010007F8001680906EFD4B9F1000F0AD0FDB135
:10302000FEF728FD801BA8421AD82068016809060F
:10303000F6D5E1E701680906DED4016809065CBF40
:1030400001685FEA0161D7D401680906F2D5D3E7C8
:1030500037F8021B4FF000086FF35F21D1E700BF84
:10306000206850E8030F216820F4D07041E8030283
:10307000BAB3206850E8030F216820F4D07041E80B
:10308000030272B3206850E8030F216820F4D07067
:1030900041E803022AB3206850E8030F216820F4B6
:1030A000D07041E80302002ADAD11AE0206850E823
:1030B000050F216820F0010041E80502DAB120681F
:1030C00050E8050F216820F0010041E8050292B1A7
:1030D000206850E8050F216820F0010041E8050252
:1030E0004AB1206850E8050F216820F0010041E84E
:1030F0000502002ADAD1202084F83D0084F83E0041
:10310000002084F83C00032001B0BDE8F08300BF3C
:103110000168490619D4FDB1691C0DD10168490641
:1031200013D4016849065CBF01685FEA41610CD4B1
:1031300001684906F2D508E0FEF79CFC801BA84216
:103140000AD8206800684006F6D5202084F83D00A3
:10315000002001B0BDE8F083206850E8030F21682B
:1031600020F4D07041E80302E2B3206850E8030F76
:10317000216820F4D07041E803029AB3206850E837
:10318000030F216820F4D07041E8030252B3206895
:1031900050E8030F216820F4D07041E80302002AB0
:1031A000DAD11FE0206850E8050F216820F0010007
:1031B00041E80502002A9ED0206850E8050F2168EA
:1031C00020F0010041E80502002A3FF494AF206896
:1031D00050E8050F216820F0010041E80502002AAF
:1031E0003FF489AF206850E8050F216820F0010006
:1031F00041E80502002AD5D17DE700BF4FF0000865
:10320000EEE6000070470000FEE70000000000004E
:1032100010B582B04FF42851ADF80010E2218DF8BE
:103220000210E4218DF8051040F23C610022C2F248
:10323000000140F284140823C1E90002C2F2000434
:1032400040F23010ADF80320ADF80620C1E90222AB
:103250000B6104F10C03C2F200006A46FDF7B8FEF0
:103260004FF41670FDF790FBB4F81B00C0BAFDF7E1
:103270007BF99FED0F0B53EC102BFDF7EBF8FDF7EF
:10328000B6F9E18B6060C8BAFDF76EF99FED0A0BE5
:1032900053EC102BFDF76CF89FED090B53EC102B42
:1032A000FDF766F8FDF7A3F9A06002B010BD00BFFE
:1032B0000000000000005940000000000000203F16
:1032C000000000000070A74010B582B04FF42851F4
:1032D000ADF80010E8218DF80210E9218DF80510F5
:1032E00040F23C610022C2F2000140F28414082343
:1032F000C1E90002C2F2000440F23010ADF8032030
:10330000ADF80620C1E902220B6104F10C03C2F200
:1033100000006A46FDF75CFE4FF41670FDF734FBC3
:10332000E18A227DE07C49BA41EA024141EA00603B
:10333000FDF71AF99FED060B53EC102BFDF78AF8F9
:10334000FDF755F9206002B010BD00BF00BF00BFFF
:10335000000000000088A3402DE9F04F81B02DED62
:10336000028B82B09FED3E1AB5EE002A20EE811A44
:103370009FED3C3A21EE021A81EE031A9FED372AA7
:103380009FED393A20EE028A83461D2240F23C65C9
:1033900040F230188DF805204FF48072C2F200051B
:1033A000C2F200084FF4D05A002721EE030ABDEE06
:1033B000C00A10EE100A010A8DF8070040F28410CE
:1033C000C2F2000000F10C06ADF803208DF80610E3
:1033D0004FF008096A46404629463346ADF800A03A
:1033E0008DF80270C5E900B7C5E90277C5F81090FD
:1033F000FDF7EEFD0120FDF79BFABDEEC80A10EEC9
:10340000100A010C020E030A50248DF80240052414
:103410008DF804108DF803208DF807008DF8063024
:103420006A46404629463346ADF800A08DF805406F
:10343000C5E900B7C5E90277C5F81090FDF7C8FDEA
:103440000120FDF775FA4FF41670FDF79DFA02B0F2
:10345000BDEC028B01B0BDE8F08F00BF00401C4501
:103460000000704200803B4500000046B0B584B0CB
:1034700040F254600123C2F2000042F20001012533
:10348000C0F600730024C4F20101C0E9095304230B
:1034900003944FF48032047680F82050C462C361F4
:1034A00080F8304080E81600C0E903454561FDF72B
:1034B0003DFB002818BFFDF789FA0520CDE900057E
:1034C00040F25460C2F2000069460294FDF784FAAB
:1034D000002818BFFDF77AFA06200090022001901C
:1034E00040F25460C2F200006946FDF775FA002808
:1034F00018BFFDF76BFA072000900320019040F2FF
:103500005460C2F200006946FDF766FA002818BF51
:10351000FDF75CFA082000900420019040F254600E
:10352000C2F200006946FDF757FA002818BFFDF700
:103530004DFA04B0B0BD000010B540F2301046F2B4
:103540000041C2F20000C4F2000140F20014032264
:103550000023C0F2010480E80E0000F10C014FF4DA
:10356000102C4FF4001E81E8085084618383FDF71E
:10357000C1FF002808BF10BDBDE81040FDF726BA06
:1035800083B0002043F630010290C4F202010A68C1
:1035900042F080020A600A6802F080020292029AF7
:1035A00001900A6842F001020A600A6802F0010212
:1035B0000192019A0090086840F0020008600868D3
:1035C00000F002000090009803B0704780B586B00C
:1035D00040F29C600021C2F200004FF0804242F2B3
:1035E000CF0340F2F31C0591CDE90311CDE90011A1
:1035F000C0E90023C0E9021C01618161FEF738FEC9
:10360000002818BFFDF7E2F94FF48050029040F215
:103610009C60C2F2000002A9FEF73AFF002818BF22
:10362000FDF7D4F940F29C60C2F200006946FEF753
:10363000C3FD002818BFFDF7C9F906B080BD000022
:1036400080B586B040F2E46040F200420021C2F250
:103650000000C4F2000253234FF6FF7C0591CDE930
:103660000311CDE90011C0E90023C0E9021C01618A
:103670008161FEF7FDFD002818BFFDF7A7F94FF4A3
:103680008050029040F2E460C2F2000002A9FEF70E
:10369000FFFE002818BFFDF799F940F2E460C2F27E
:1036A00000006946FEF788FD002818BFFDF78EF977
:1036B00006B080BD80B586B040F22C7040F60002A6
:1036C0000021C2F20000C4F2000244F29F1340F253
:1036D000F31C0591CDE90311CDE90011C0E90023E8
:1036E000C0E9021C01618161FEF7C2FD002818BF1C
:1036F000FDF76CF94FF48050029040F22C70C2F24A
:10370000000002A9FEF7C4FE002818BFFDF75EF90D
:1037100040F22C70C2F200006946FEF74DFD002811
:1037200018BFFDF753F906B080BD000080B540F228
:10373000747041F20001C2F20000C4F201010023E2
:103740004FF00C0C4FF4E13280E80E00C0E9033377
:10375000C0E905C3C361FFF717FB002808BF80BDA0
:10376000BDE88040FDF732B980B540F2B87044F64C
:103770000001C2F20000C4F2000100234FF00C0C63
:103780004FF4E13280E80E00C0E90333C0E905C31D
:10379000C361FFF7F9FA002808BF80BDBDE880408B
:1037A000FDF714B9FEE70000FEE7000070470000D7
:1037B00070470000FEF764B9B0B592B0002443F63C
:1037C00040000B94CDE90944CDE907440594CDE9C7
:1037D0000344CDE901440094C4F2020001680225CB
:1037E00041F080510160006800F080500090009826
:1037F00047F200000094C4F20000016841F48041E7
:103800000160006800F48040009000980120099059
:1038100010200A9008200E90A820CDE90F05042062
:10382000119006A80695CDE90C54FEF7F1FA28B1DF
:10383000EFF3108072B600BFFEE700BF0F20CDE9A6
:1038400001054FF4A05004904FF48050059001A85A
:1038500005210394FEF7CEF920B1EFF3108072B684
:10386000FEE700BF12B0B0BD4EF68850CEF20000A9
:10387000016841F4700101607047000040F29C60F3
:10388000C2F20000FEF7D4BE40F22C70C2F200007B
:10389000FEF7CEBE10B540F6FF3E0368C4F2000E40
:1038A00040F2004C7045C4F2010C27DCB0F1804FAF
:1038B00031D040F20042C4F2000290422BD040F6D8
:1038C0000002C4F20002904225D041F6FF72C4F219
:1038D0000002904229DC70453CDCB0F1804F5FD0A3
:1038E00040F20042C4F20002904259D040F6000279
:1038F000C4F20002904253D056E000BF40F60042AE
:10390000C4F20002904206D0604504D00022C4F206
:1039100001029042D9D14A6823F07003134341F663
:10392000FF72C4F200029042D5DD43F6FF72C4F28A
:103930000102904222DC42F20002C4F200029042F4
:103940002ED00022C4F20102904229D0604527D037
:103950002AE000BF40F60042C4F2000290421FD0AD
:1039600041F60002C4F20002904219D041F6004232
:10397000C4F20002904213D016E000BF44F20002ED
:10398000C4F2010290420BD044F60002C4F20102DC
:10399000904205D044F20042C4F20102904203D1A9
:1039A000CA6823F44073134323F080024B69D1F8B3
:1039B00000E08C681A430260C46240F48062C0F880
:1039C00028E0624504BF096901630121416110BD1E
:1039D000806B0021C185C184FEF722BF81B090F8C1
:1039E0003E10222921D183680246B3F5805F09D1B8
:1039F00052F8281F52F8183C002B63D003685B680C
:103A00000AE000BF52F8281F13B90369002BF5D054
:103A100003685B6803F07F030B701168013111606C
:103A2000C18D01390A04C18502D001B0704700BFC1
:103A30000168CA6822F02002CA60CA6822F4807253
:103A4000CA604A6922F001024A61202180F83E10D2
:103A5000016B01293ED10021016300BF016851E8DB
:103A6000031F026821F0100142E80313DBB1016873
:103A700051E8031F026821F0100142E8031393B1DB
:103A8000016851E8031F026821F0100142E80313A6
:103A90004BB1016851E8031F026821F0100142E8B0
:103AA0000313002BDAD101680A68D20606D500227A
:103AB00000920A680092496800910099818D01B0D6
:103AC000FEF7ACBE026852686FF35F2221F8022B4A
:103AD0008162A5E701B0FFF723BA000010B50446E4
:103AE0000068D4E902C22369016921F440511143FD
:103AF0000161626943EA0C01E3691143C268194339
:103B000049F20C639A431143C1604169A26921F4EF
:103B1000407141F20043114340F48062C4F201035A
:103B20009A42416102D1FEF729F901E0FEF712F94C
:103B3000E16963681922B1F5004FA0FB020123D1AE
:103B40005A00DB0FFCF73CFB48F21F51C5F2EB11AA
:103B5000A0FB01235A094FF69C73C0F6FF7303F1D3
:103B6000805302FB0300322303EBC000A0FB0101E2
:103B70004FF4F87000EA111000EB0210C1F342118B
:103B800008442168886010BD9A009B0FFCF718FB61
:103B900048F21F51C5F2EB11A0FB01235A094FF661
:103BA0009C73C0F6FF7302FB0300322303EB00108B
:103BB000A0FB0101F02000EA511000EB0210C1F35C
:103BC000431108442168886010BD000040F2747001
:103BD000C2F20000FEF726BE10B540F2B874C2F281
:103BE00000042046FEF71EFE40F28011C2F20001E2
:103BF00020460122BDE81040FFF762B9FEE7000051
:103C000010B582B0044600200190A01EA421042813
:103C100000911DD8DFE800F004243A52680000BF8C
:103C20009FED521A20EE010ABDEEC00A10EE100AF6
:103C3000BDEEE00A10EE101A01EBC1024FEA102CA3
:103C40004FEA104E030E9100C2F3871262E000BFEC
:103C500048F2C610C0F6020024F032F95AE000BF64
:103C60009FED431A20EE010ABDEEC00A10EE100AC5
:103C7000BDEEE00A10EE102A4FEA102C4FEA104E6B
:103C8000030ED100C2F3471244E000BF9FED371A84
:103C900020EE010ABDEEC00A10EE100ABDEEE00AE9
:103CA00010EE101A01EBC1024FEA102C4FEA104E31
:103CB000030E9100C2F387122CE000BF9FED2C1A77
:103CC00020EE010ABDEEC00A10EE100ABDEEE00AB9
:103CD00010EE102A4FEA102C4FEA104E030ED100BE
:103CE000C2F3471216E000BF9FED221A20EE010A30
:103CF000BDEEC00A10EE100ABDEEE00A10EE101A7A
:103D000001EB81024FEA102C4FEA104E030E5100D6
:103D1000C2F3C7128DF8021040F23C618DF8032007
:103D20008DF8040004F5A070C2F200010022C1E980
:103D3000000240F2A4108DF807300823C2F2000000
:103D40000B61031D40F23010C1E90222C2F20000F3
:103D50006A468DF805C08DF806E0FDF739F94FF495
:103D60001670FCF711FE02B010BD00BF00006145E7
:103D70000000484400007A442DE9F04F81B02DED59
:103D8000108BE8B0C5B20446284622F0ADFA2846AA
:103D900022F00EFA601E052806F27E840FF208015A
:103DA00001EB80018F4600BF00F036B806F07CBC06
:103DB00016F0D6BD1DF034BF20F01EB921F02CBB8B
:103DC0000000000000000080A4CEAE969DC34D3ED2
:103DD000A4CEAE969DC34DBECCDBA58DE295A63E8E
:103DE0006FF1F09E03CB713F314514EEF0329E3EF1
:103DF0000000000080DAC2C00000000000989A4075
:103E00000000000080DAC240000000000025C3C0AE
:103E1000000000000025C34040F23429C2F200092E
:103E200099ED0A8A18EE100AFCF7CEFBAFF2700289
:103E3000B5EE408AF1EE10FA18BF083292ED000B91
:103E40001FED1D1B53EC102B1FED1D0B54EC115BD4
:103E5000B5EE408AF1EE10FADCBF1C46154653EC75
:103E6000102BFCF785FA02460B4628462146FCF744
:103E7000D8F94090D9F810003E91FCF7A5FB41EC31
:103E8000100B22F029FFD9F810008DED3C0BFCF748
:103E90009BFB41EC100B22F01FFFD9F814008DEDB5
:103EA0003A0BFCF791FB41EC100B22F015FFD9F80F
:103EB00010008DED380BFCF787FB41EC100B22F066
:103EC000A7FED9F818008DED4A0BFCF77DFB41ECFD
:103ED000100B22F09DFED9F810008DED480BFCF779
:103EE00073FB41EC100B22F093FE1FED431B51ECD2
:103EF000100B53EC112BCDE95523FCF739FACDE922
:103F00005810D9F81800FCF75FFB41EC100B22F0B9
:103F10007FFED9F81C008DED520BFCF755FB41ECF0
:103F2000100B22F0D9FED9F82000B0EE40EAF0EEF6
:103F300060EAFCF749FB41EC100B22F069FE1FED33
:103F4000561B51EC100B53EC112BCDE95E23FCF703
:103F50000FFA5190D9F820004E91FCF735FB41EC57
:103F6000100B22F0B9FED9F81000B0EE40FAF0EED6
:103F700060FAFCF729FB41EC100B22F049FED9F85E
:103F80001000B0EE408AF0EE608AFCF71DFB41ECB9
:103F9000100B22F0A1FED9F81400B0EE409AF0EE1A
:103FA000609AFCF711FB41EC100B22F095FEB0EE8D
:103FB00040AAF0EE60AA1FED720B51EC190B53EC06
:103FC000102B5A925C93FCF7D3F953EC1A2BFCF7A5
:103FD000CFF91FED770B044657EC106B0D4651ECF3
:103FE000180B32463B4664966597FCF7C1F92246AA
:103FF0002B46FCF716F94D90D9F820004791FCF7B5
:10400000E3FA41EC100B22F003FED9F81C00B0EEED
:10401000408AF0EE608AFCF7D7FA41EC100B22F0F0
:10402000F7FDD9F81000B0EE409AF0EE609AFCF778
:10403000CBFA41EC100B22F0EBFD1FED8F1B51EC86
:10404000100B58EC11AB52464346CDF89CA1CDF86D
:104050009881FCF78DF90446D9F818000D46FCF755
:10406000B3FA41EC100B22F037FED9F81000B0EE95
:1040700040AAF0EE60AAFCF7A7FA41EC100B22F080
:104080002BFE51EC100B32463B46FCF771F906460D
:10409000D9F814000F46FCF797FA41EC100B22F008
:1040A0001BFE53EC102B30463946FCF761F90646EF
:1040B000D9F818000F46FCF787FA41EC100B22F0F4
:1040C0000BFE53EC102B30463946FCF751F90646EF
:1040D0000F4653EC1A2B20462946FCF749F9324685
:1040E0003B46FCF79EF80446D9F814000D46FCF751
:1040F0006BFA41EC100B22F08BFDD9F81800B0EEF2
:1041000040AAF0EE60AAFCF75FFA41EC100B22F037
:104110007FFDD9F81000B0EE40BAF0EE60BAFCF7BF
:1041200053FA41EC100B22F0D7FDB0EE40CAF0EE8E
:1041300060CA1FEDCB0B51EC1A0B53EC102BCDE9E1
:104140006232FCF715F953EC1B2BFCF711F953EC19
:104150001C2BFCF70DF922462B46FCF762F8469023
:10416000D9F81C008B46FCF72FFA41EC100B22F01B
:10417000B3FDD9F81000B0EE40AAF0EE60AAFCF74B
:1041800023FA41EC100B22F043FD51EC100B524688
:104190004346FCF7EDF80646D9F818000F46FCF741
:1041A00013FA41EC100B22F033FDD9F81400B0EEF5
:1041B00040BAF0EE60BAFCF707FA41EC100B22F0BF
:1041C00027FD1FEDED1B51EC100B53EC112BCDE92E
:1041D0006023FCF7CDF80446D9F810000D46FCF733
:1041E000F3F941EC100B22F077FD53EC102B204635
:1041F0002946FCF7BDF80446D9F818000D46FCF72F
:10420000E3F941EC100B22F067FD53EC102B204634
:104210002946FCF7ADF804460D4653EC1B2B3046FF
:104220003946FCF7A5F822462B46FBF7FAFF06466F
:10423000D9F818000F46FCF7C7F941EC100B22F033
:10424000E7FCDDF890A1DDF8948151EC100B5246AB
:104250004346FCF78DF80446D9F810000D46FCF7EC
:10426000B3F941EC100B22F037FD53EC102B204634
:104270002946FCF77DF80446D9F814000D46FCF7F2
:10428000A3F941EC100B22F027FD53EC102B204634
:104290002946FCF76DF832463B46FBF7C2FF024663
:1042A0000B4651EC1A0BFCF763F8469A04460D4690
:1042B00051EC190B5B46FCF75BF822462B46FBF7EB
:1042C000B0FF02460B4651EC180BFCF751F84D9A23
:1042D000479B04460D4651EC1F0BFCF749F822465C
:1042E0002B46FBF79EFF4D90D9F820004791FCF735
:1042F0006BF941EC100B22F0EFFCD9F82000B0EE86
:1043000040FAF0EE60FAFCF75FF941EC100B22F096
:104310007FFCD9F81000B0EE408AF0EE608AFCF71E
:1043200053F941EC100B22F073FCD9F81000B0EEF9
:10433000409AF0EE609AFCF747F941EC100B22F03E
:10434000CBFCD9F81400B0EE40AAF0EE60AAFCF75E
:104350003BF941EC100B22F0BFFC679EDDF898B1F1
:10436000B0EE40BA51EC1A0B32465B46F0EE60BA42
:10437000FBF7FEFF53EC1B2BFBF7FAFF04460D4641
:1043800051EC190B52464346FBF7F2FF02460B462F
:1043900020462946FBF7E6FFCDE94510D9F8200075
:1043A000FCF712F941EC100B22F096FCD9F81C0036
:1043B000B0EE409AF0EE609AFCF706F941EC100B73
:1043C00022F026FCD9F81000B0EE40AAF0EE60AA68
:1043D000FCF7FAF841EC100B22F01AFC51EC100B30
:1043E00032465B46FBF7C4FF0446D9F818000D4679
:1043F000FCF7EAF841EC100B22F06EFCD9F8100043
:10440000B0EE40BAF0EE60BAFCF7DEF841EC100B0B
:1044100022F062FC51EC100B52464346FBF7A8FF1A
:104420000646D9F814000F46FCF7CEF841EC100B05
:1044300022F052FC53EC102B30463946FBF798FF24
:104440000646D9F818000F46FCF7BEF841EC100BF1
:1044500022F042FC53EC102B30463946FBF788FF24
:1044600006460F4653EC1B2B20462946FBF780FFE0
:1044700032463B46FBF7D5FE0446D9F814000D46FC
:10448000FCF7A2F841EC100B22F0C2FBD9F818009F
:10449000B0EE40BAF0EE60BAFCF796F841EC100BC3
:1044A00022F0B6FBD9F81000B0EE40CAF0EE60CAB8
:1044B000FCF78AF841EC100B22F00EFCDDE96232C9
:1044C000B0EE40DA51EC1B0BF0EE60DAFBF750FF78
:1044D00053EC1C2BFBF74CFF53EC1D2BFBF748FF59
:1044E00022462B46FBF79DFE4290D9F81C003691E0
:1044F000FCF76AF841EC100B22F0EEFBD9F8100043
:10450000B0EE40BAF0EE60BAFCF75EF841EC100B8A
:1045100022F07EFB679A51EC100B5B46FBF728FFFD
:104520000646D9F818000F46FCF74EF841EC100B80
:1045300022F06EFBD9F81400B0EE40CAF0EE60CA6B
:10454000FCF742F841EC100B22F062FBDDE960233E
:1045500051EC100BFBF70CFF8046D9F810008B468E
:10456000FCF732F841EC100B22F0B6FB53EC102BA9
:1045700040465946FBF7FCFE0446D9F818000D46A4
:10458000FCF722F841EC100B22F0A6FB53EC102BA9
:1045900020462946FBF7ECFE04460D4653EC1C2B47
:1045A00030463946FBF7E4FE22462B46FBF739FE40
:1045B0000646D9F818000F46FCF706F841EC100B38
:1045C00022F026FBDDF8948151EC100B5246434655
:1045D000FBF7CEFE0446D9F810000D46FBF7F4FFBA
:1045E00041EC100B22F078FB53EC102B20462946AF
:1045F000FBF7BEFE0446D9F814000D46FBF7E4FFB6
:1046000041EC100B22F068FB53EC102B204629469E
:10461000FBF7AEFE32463B46FBF703FE02460B4677
:1046200051EC1B0BFBF7A4FE429A369B04460D4649
:1046300051EC1A0BFBF79CFE22462B46FBF7F1FDD3
:1046400053EC192BFBF794FEDDE9453204460D4689
:1046500051EC180BFBF78CFE02460B462046294610
:10466000FBF7DFFD5E9F5F9E04460D4651EC1F0B7E
:104670003A463346FBF77CFE22462B46FBF778FE94
:1046800004460D465198DDE94D21479BFBF770FE2E
:1046900022462B46FBF7C5FD5190D9F81C004E91E0
:1046A000FBF792FF41EC100B22F0B2FA51EC100B29
:1046B0003A463346FBF75CFE4D90D9F8100047911F
:1046C000FBF782FF41EC100B22F0A2FADDF89CB15F
:1046D000669B51EC100B5A46FBF74AFE0446D9F88C
:1046E00018000D46FBF770FF41EC100B22F0F4FAB6
:1046F000D9F81000B0EE408AF0EE608AFBF764FF54
:1047000041EC100B22F0E8FA51EC100B52464346F4
:10471000FBF72EFE0646D9F814000F46FBF754FFB0
:1047200041EC100B22F0D8FA53EC102B30463946EE
:10473000FBF71EFE0646D9F818000F46FBF744FFAC
:1047400041EC100B22F0C8FA53EC102B30463946DE
:10475000FBF70EFE06460F4653EC182B2046294663
:10476000FBF706FE32463B46FBF75BFD0446D9F8F5
:1047700014000D46FBF728FF41EC100B22F048FA1D
:10478000D9F81800B0EE408AF0EE608AFBF71CFF03
:1047900041EC100B22F03CFAD9F81000B0EE409A30
:1047A000F0EE609AFBF710FF41EC100B22F094FA48
:1047B000DDE96232B0EE40AA51EC180BF0EE60AACF
:1047C000FBF7D6FD53EC192BFBF7D2FD53EC1A2B5C
:1047D000FBF7CEFD22462B46FBF723FD02460B4698
:1047E0004D984799FBF7C4FD02460B4651984E99E8
:1047F000FBF717FD5190D9F81C004E91FBF7E4FE32
:1048000041EC100B22F068FADDE95E2351EC100B4D
:10481000FBF7AEFD4D90D9F810004791FBF7D4FEA1
:1048200041EC100B22F0F4F9DDF8988151EC100BFB
:104830005A464346FBF79CFD0646D9F818000F463A
:10484000FBF7C2FE41EC100B22F0E2F9D9F814009C
:10485000B0EE408AF0EE608AFBF7B6FE41EC100B3A
:1048600022F0D6F9DDF880A1619B51EC100B524685
:10487000FBF77EFD0446D9F810000D46FBF7A4FEB9
:1048800041EC100B22F028FA53EC102B204629465D
:10489000FBF76EFD0446D9F818000D46FBF794FEB1
:1048A00041EC100B22F018FA53EC102B204629464D
:1048B000FBF75EFD04460D4653EC182B3046394697
:1048C000FBF756FD22462B46FBF7ABFC0646D9F814
:1048D00018000F46FBF778FE41EC100B22F098F918
:1048E000DDE9642351EC100BFBF742FD0446D9F8D7
:1048F00010000D46FBF768FE41EC100B22F0ECF9BE
:1049000053EC102B20462946FBF732FD0446D9F81C
:1049100014000D46FBF758FE41EC100B22F0DCF9B9
:1049200053EC102B20462946FBF722FD32463B462E
:10493000FBF777FC02460B464D984799FBF718FDAD
:10494000519A4E9BFBF76DFC02460B4651EC1E0B39
:10495000FBF70EFD9DED520B04460D46DDE95810A8
:1049600053EC102BFBF704FD22462B46FBF759FCBA
:10497000CDE95110D9F81C00FBF726FE41EC100BD5
:1049800022F046F9D9F81C00B0EE408AF0EE608AB9
:10499000FBF71AFE41EC100B22F03AF99FEDFC1BDD
:1049A00051EC100B53EC112BCDE95823FBF7E0FC35
:1049B000CDE94610D9F81000FBF706FE41EC100BCC
:1049C00022F026F951EC100B5A464346FBF7D0FC77
:1049D0000446D9F818000D46FBF7F6FD41EC100B24
:1049E00022F016F9D9F81400B0EE409AF0EE609A71
:1049F000FBF7EAFD41EC100B22F00AF9619B51EC48
:104A0000100B5246FBF7B4FC0646D9F810000F46CF
:104A1000FBF7DAFD41EC100B22F05EF953EC102BA2
:104A200030463946FBF7A4FC0646D9F818000F4675
:104A3000FBF7CAFD41EC100B22F04EF953EC102BA2
:104A400030463946FBF794FC06460F4653EC192BCB
:104A500020462946FBF78CFC32463B46FBF7E1FB40
:104A60008046D9F818008A46FBF7AEFD41EC100BE2
:104A700022F0CEF8649D659C51EC100B2A4623462B
:104A8000FBF776FC0646D9F810000F46FBF79CFDB5
:104A900041EC100B22F020F953EC102B3046394634
:104AA000FBF766FC0646D9F814000F46FBF78CFDB1
:104AB00041EC100B22F010F953EC102B3046394624
:104AC000FBF756FC42465346FBF7ABFB8046D9F852
:104AD0001C004591FBF778FD41EC100B22F0FCF82F
:104AE000D9F81000B0EE409AF0EE609AFBF76CFD3A
:104AF00041EC100B22F08CF8669B51EC100B5A46DF
:104B0000FBF736FC8346D9F818008A46FBF75CFDB4
:104B100041EC100B22F0E0F8D9F81000B0EE40AAFA
:104B2000F0EE60AAFBF750FD41EC100B22F0D4F838
:104B300051EC100B2A462346FBF71AFC0646D9F81F
:104B400014000F46FBF740FD41EC100B22F0C4F8B7
:104B500053EC102B30463946FBF70AFC0646D9F8D1
:104B600018000F46FBF730FD41EC100B22F0B4F8B3
:104B700053EC102B30463946FBF7FAFB06460F463E
:104B800053EC1A2B58465146FBF7F2FB32463B4694
:104B9000FBF747FB0446D9F814000D46FBF714FD5C
:104BA00041EC100B22F034F8D9F81800B0EE40AA0E
:104BB000F0EE60AAFBF708FD41EC100B22F028F89C
:104BC000D9F81000B0EE40BAF0EE60BAFBF7FCFC8A
:104BD00041EC100B22F080F8DDE96232B0EE40CA01
:104BE00051EC1A0BF0EE60CAFBF7C2FB53EC1B2B27
:104BF000FBF7BEFB53EC1C2BFBF7BAFB22462B4604
:104C0000FBF70FFB9FED640B04460D4651EC190BAF
:104C100053EC102BCDE94D23FBF7AAFB22462B4684
:104C2000FBF7A6FB04460D46DDE94610459B4246D0
:104C3000FBF79EFB22462B46FBF7F3FA02460B4698
:104C400051EC180BFBF794FBDDE95132FBF7E9FA65
:104C50000446D9F814000D46FBF7B6FC41EC100BE6
:104C600021F0D6FF9FED4E1B51EC100B53EC112B96
:104C7000CDE94623FBF77CFB0646D9F810000F462A
:104C8000FBF7A2FC41EC100B22F026F853EC102BA2
:104C900030463946FBF76CFB0646D9F818000F463C
:104CA000FBF792FC41EC100B22F016F853EC102BA2
:104CB00030463946FBF75CFB22462B46FBF7B1FA40
:104CC0000446D9F818000D46FBF77EFC41EC100BAA
:104CD00021F09EFF9FED341B51EC100B53EC112B78
:104CE000CDE95123FBF744FB0646D9F810000F46E7
:104CF000FBF76AFC41EC100B21F0EEFF53EC102B9C
:104D000030463946FBF734FB0646D9F814000F4607
:104D1000FBF75AFC41EC100B21F0DEFF53EC102B9B
:104D200030463946FBF724FB22462B46FBF779FA3F
:104D30009FED1F0B9DED481B04460D4651EC110BDA
:104D400053EC102BCDE93523FBF712FB22462B4603
:104D5000FBF70EFB9FED180B9DED4A1B04460D461D
:104D600051EC110B53EC102B42924593FBF700FBD7
:104D700022462B46FBF755FA0446D9F810000D469B
:104D8000CA46FBF721FC00F023B800BF00BF00BFFC
:104D9000314514EEF032AE3E314514EEF032AEBE87
:104DA00042EBE1CB4411723F8158DBB9D518493F42
:104DB000F1F44A598638C6BF5018946934B9583F3F
:104DC000AB09A2EE03908A3F4B70B6361EBE9D3EE5
:104DD00041EC100B21F080FFD9F81400B0EE408AAE
:104DE000F0EE608AFBF7F0FB41EC100B21F074FF52
:104DF000B0EE409AF0EE609A1FED0F0B51EC180BDD
:104E000053EC102BFBF7B4FA53EC192BFBF7B0FA69
:104E100022462B46FBF7A6FA3490D9F820003291AF
:104E2000FBF7D2FB41EC100B21F056FF1FED1A1BD4
:104E300051EC100B53EC112B48924A93FBF798FA64
:104E4000CDE92F10D9F82000FBF7BEFB41EC100B89
:104E500021F042FFD9F81000B0EE408AF0EE608AEF
:104E6000FBF7B2FB41EC100B21F0D2FED9F8100099
:104E7000B0EE409AF0EE609AFBF7A6FB41EC100B07
:104E800021F02AFFD9F81400B0EE40AAF0EE60AA93
:104E9000FBF79AFB41EC100B21F01EFF679FDDF83A
:104EA00098B1B0EE40BA51EC1A0B3A465B46F0EEC0
:104EB00060BAFBF75DFA53EC1B2BFBF759FADDF8F0
:104EC0009091DDF8948104460D4651EC190B4A4649
:104ED0004346FBF74DFA02460B4620462946FBF7B0
:104EE00041FA2C90DAF820002A91FBF76DFB41EC97
:104EF000100B21F08DFEDAF81C00B0EE409AF0EEB7
:104F0000609AFBF761FB41EC100B21F081FEDAF8AF
:104F10001000B0EE40AAF0EE60AAFBF755FB41ECA2
:104F2000100B21F075FE51EC100B3A465B46FBF777
:104F30001FFA0446DAF818000D46FBF745FB41EC72
:104F4000100B21F0C9FEDAF81000B0EE40BAF0EE16
:104F500060BAFBF739FB41EC100B21F0BDFE51ECC0
:104F6000100B4A464346FBF703FA0646DAF81400EC
:104F70000F46FBF729FB41EC100B21F0ADFE53EC83
:104F8000102B30463946FBF7F3F90646DAF81800DD
:104F90000F46FBF719FB41EC100B21F09DFE53EC83
:104FA000102B30463946FBF7E3F906460F4653EC23
:104FB0001B2B20462946FBF7DBF932463B46FBF725
:104FC00030F90446DAF814000D46FBF7FDFA41EC1F
:104FD000100B21F01DFEDAF81800B0EE40BAF0EE2A
:104FE00060BAFBF7F1FA41EC100B21F011FEDAF890
:104FF0001000B0EE40CAF0EE60CAFBF7E5FA41ECF3
:10500000100B21F069FEDDE96232B0EE40DA51ECBE
:105010001B0BF0EE60DAFBF7ABF953EC1C2BFBF744
:10502000A7F953EC1D2BFBF7A3F922462B46FBF700
:10503000F8F88046DAF81C002991FBF7C5FA41EC34
:10504000100B21F049FEDAF81000B0EE40BAF0EE95
:1050500060BAFBF7B9FA41EC100B21F0D9FD679A61
:1050600051EC100B5B46FBF783F90746DAF81800A2
:105070000E46FBF7A9FA41EC100B21F0C9FDDAF856
:105080001400B0EE40CAF0EE60CAFBF79DFA41ECA6
:10509000100B21F0BDFDDDE9602351EC100BFBF797
:1050A00067F98146DAF810008B46FBF78DFA41EC80
:1050B000100B21F011FE53EC102B48465946FBF71C
:1050C00057F90446DAF818000D46FBF77DFA41EC73
:1050D000100B21F001FE53EC102B20462946FBF764
:1050E00047F904460D4653EC1C2B38463146FBF776
:1050F0003FF922462B46FBF794F80646DAF81800EB
:105100000F46FBF761FA41EC100B21F081FDDDF851
:105110009091DDF894B151EC100B4A465B46FBF7D9
:1051200027F90446DAF810000D46FBF74DFA41EC7A
:10513000100B21F0D1FD53EC102B20462946FBF734
:1051400017F90446DAF814000D46FBF73DFA41EC76
:10515000100B21F0C1FD53EC102B20462946FBF724
:1051600007F932463B46FBF75CF802460B4651EC2A
:105170001B0BFBF7FDF8299B04460D4651EC1A0B5F
:105180004246FBF7F5F822462B46FBF74AF8024663
:105190000B4651EC190BFBF7EBF82C9A2A9B0446B3
:1051A0000D4651EC180BFBF7E3F822462B46FBF7B4
:1051B000D9F802460B46DDE92F10FBF7D9F8024675
:1051C0000B4634983299FBF72CF83490DAF820002B
:1051D0003291FBF7F9F941EC100B21F019FD489AD7
:1051E0004A9B51EC100BFBF7C3F84A90DAF8200009
:1051F0004891FBF7E9F941EC100B21F009FDDAF8D1
:105200001000B0EE408AF0EE608AFBF7DDF941EC69
:10521000100B21F0FDFCDAF81000B0EE409AF0EE31
:10522000609AFBF7D1F941EC100B21F055FDDAF84B
:105230001400B0EE40AAF0EE60AAFBF7C5F941EC0D
:10524000100B21F049FD679F669EB0EE40BA51EC0D
:105250001A0B3A463346F0EE60BAFBF789F853EC86
:105260001B2BFBF785F804460D4651EC190B4A46FB
:105270005B46C846D946FBF77BF802460B462046FC
:105280002946FBF76FF8CDE92F10DAF82000FBF77D
:105290009BF941EC100B21F01FFDDAF81C00B0EE79
:1052A000409AF0EE609AFBF78FF941EC100B21F079
:1052B000AFFCDAF81000B0EE40AAF0EE60AAFBF7FF
:1052C00083F941EC100B21F0A3FC51EC100B3A4692
:1052D0003346BB46FBF74CF80446DAF818000D4697
:1052E000FBF772F941EC100B21F0F6FCDAF8100034
:1052F000B0EE40BAF0EE60BAFBF766F941EC100B85
:1053000021F0EAFC51EC100B42464B46FBF730F81B
:105310000646DAF814000F46FBF756F941EC100B7D
:1053200021F0DAFC53EC102B30463946FBF720F81D
:105330000646DAF818000F46FBF746F941EC100B69
:1053400021F0CAFC53EC102B30463946FBF710F81D
:1053500006460F4653EC1B2B20462946FBF708F860
:1053600032463B46FAF75DFF0446DAF814000D4674
:10537000FBF72AF941EC100B21F04AFCDAF818008F
:10538000B0EE40BAF0EE60BAFBF71EF941EC100B3C
:1053900021F03EFCDAF81000B0EE40CAF0EE60CA30
:1053A000FBF712F941EC100B21F096FCDDE96232BB
:1053B000B0EE40DA51EC1B0BF0EE60DAFAF7D8FFF2
:1053C00053EC1C2BFAF7D4FF53EC1D2BFAF7D0FF4C
:1053D00022462B46FAF725FF2C90DAF81C002A917A
:1053E000FBF7F2F841EC100B21F076FCDAF8100034
:1053F000B0EE40BAF0EE60BAFBF7E6F841EC100B05
:1054000021F006FC5A46DDF898B151EC100B5B46D2
:10541000FAF7AEFF0746DAF818000E46FBF7D4F8A5
:1054200041EC100B21F0F4FBDAF81400B0EE40CAA6
:10543000F0EE60CAFBF7C8F841EC100B21F0E8FB76
:10544000DDE9602351EC100BFAF792FF8046DAF8A1
:1054500010008946FBF7B8F841EC100B21F03CFC3A
:1054600053EC102B40464946FAF782FF0446DAF81F
:1054700018000D46FBF7A8F841EC100B21F02CFCAE
:1054800053EC102B20462946FAF772FF04460D46CE
:1054900053EC1C2B38463146FAF76AFF22462B465E
:1054A000FAF7BFFE0646DAF818000F46FBF78CF84D
:1054B00041EC100B21F0ACFBDDF89081DDF894910C
:1054C00051EC100B42464B46FAF752FF0446DAF80D
:1054D00010000D46FBF778F841EC100B21F0FCFBB7
:1054E00053EC102B20462946FAF742FF0446DAF81F
:1054F00014000D46FBF768F841EC100B21F0ECFBB3
:1055000053EC102B20462946FAF732FF32463B4631
:10551000FAF787FE02460B4651EC1B0BFAF728FF01
:105520002C9A2A9B04460D4651EC1A0BFAF720FFE1
:1055300022462B46FAF775FE53EC192BFAF718FFA3
:10554000DDE92F3204460D4651EC180BFAF710FF37
:1055500002460B4620462946FAF763FE02460B46F2
:105560004A984899FAF704FF349A329BFAF759FEA1
:105570003490DAF818003291FBF726F841EC100B62
:1055800021F0AAFBDAF810008DED300BFBF71CF8C8
:1055900041EC100B21F03CFBDDE9552351EC100BE5
:1055A000FAF7E6FE2F90DAF818002C91FBF70CF8CA
:1055B00041EC100B21F090FBDAF81C008DED2A0B6A
:1055C000FBF702F841EC100B21F022FBDAF8200087
:1055D000B0EE40DAF0EE60DAFAF7F6FF41EC100BCD
:1055E00021F016FB9FEDFC1B51EC100B53EC112B23
:1055F00048924A93FAF7BCFECDE92810DAF8200069
:10560000FAF7E2FF41EC100B21F066FBDAF810002C
:10561000B0EE408AF0EE608AFAF7D6FF41EC100B4C
:1056200021F0F6FADAF81000B0EE409AF0EE609A47
:10563000FAF7CAFF41EC100B21F04EFBDAF8140028
:10564000B0EE40AAF0EE60AAFAF7BEFF41EC100BF4
:1056500021F042FB5A9A5C9BB0EE40BA51EC1A0B17
:10566000F0EE60BAFAF784FE53EC1B2BFAF780FEDB
:1056700004460D4651EC190B42464B4646464F46F2
:10568000FAF776FE22462B46FAF7CBFDCDE9261037
:10569000DAF82000FAF798FF41EC100B21F0B8FA85
:1056A000DAF81C00B0EE409AF0EE609AFAF78CFF40
:1056B00041EC100B21F0ACFADAF81000B0EE40AA81
:1056C000F0EE60AAFAF780FF41EC100B21F0A0FA8F
:1056D000DDF89C9151EC100B4A465B46D846FAF730
:1056E00047FE0446DAF818000D46FAF76DFF41EC64
:1056F000100B21F0F1FADAF81000B0EE40EAF0EE0B
:1057000060EAFAF761FF41EC100B21F0E5FA51EC89
:10571000100B32463B46FAF72BFE0646DAF8140029
:105720000F46FAF751FF41EC100B21F0D5FA53EC7C
:10573000102B30463946FAF71BFE0646DAF81800F9
:105740000F46FAF741FF41EC100B21F0C5FA53EC7C
:10575000102B30463946FAF70BFE06460F4653EC3F
:105760001E2B20462946FAF703FE32463B46FAF73F
:1057700058FD0446DAF814000D46FAF725FF41EC0F
:10578000100B21F045FADAF81800B0EE40BAF0EE4E
:1057900060BAFAF719FF41EC100B21F039FADAF888
:1057A0001000B0EE40EAF0EE60EAFAF70DFF41ECCF
:1057B000100B21F091FADDE96232B0EE40FA51ECC3
:1057C0001B0BF0EE60FAFAF7D3FD53EC1E2BFAF741
:1057D000CFFD53EC1F2BFAF7CBFD22462B46FAF7F1
:1057E00020FD2590DAF81C008B46FAF7EDFE41EC1F
:1057F000100B21F071FADAF81000B0EE40EAF0EE8A
:1058000060EAFAF7E1FE41EC100B21F001FA51ECED
:10581000100B4A464346FAF7ABFD0646DAF8180085
:105820000F46FAF7D1FE41EC100B21F0F1F9DAF84E
:105830001400B0EE40FAF0EE60FAFAF7C5FE41EC63
:10584000100B21F0E5F9DDE9602351EC100BFAF7BC
:105850008FFD0446DAF810000D46FAF7B5FE41EC6C
:10586000100B21F039FA53EC102B20462946FAF799
:105870007FFD0446DAF818000D46FAF7A5FE41EC64
:10588000100B21F029FA53EC102B20462946FAF789
:105890006FFD04460D4653EC1F2B30463946FAF790
:1058A00067FD22462B46FAF7BCFC0646DAF81800DC
:1058B0000F46FAF789FE41EC100B21F0A9F9DDF84B
:1058C0009091DDF8948151EC100B4A464346FAF76B
:1058D0004FFD0446DAF810000D46FAF775FE41EC6C
:1058E000100B21F0F9F953EC102B20462946FAF75A
:1058F0003FFD0446DAF814000D46FAF765FE41EC68
:10590000100B21F0E9F953EC102B20462946FAF749
:105910002FFD32463B46FAF784FC02460B4651EC1B
:105920001E0BFAF725FD259A04460D4651EC1A0B7D
:105930005B46FAF71DFD22462B46FAF772FC02463B
:105940000B4651EC190BFAF713FDDDE9263204463C
:105950000D4651EC180BFAF70BFD22462B46FAF7D1
:1059600060FCCDE92610DAF82000FAF72DFE41ECB4
:10597000100B21F0B1F9DAF82000B0EE40EAF0EEB9
:1059800060EAFAF721FE41EC100B21F041F9DAF858
:105990001000B0EE408AF0EE608AFAF715FE41EC96
:1059A000100B21F035F9DAF81000B0EE409AF0EE65
:1059B000609AFAF709FE41EC100B21F08DF9DAF844
:1059C0001400B0EE40AAF0EE60AAFAF7FDFD00F078
:1059D00007B800BF00BF00BF314514EEF0329EBED5
:1059E00041EC100B21F078F9DDF89CB1669EB0EE29
:1059F00040BA51EC1A0B5A463346F0EE60BAFAF749
:105A0000B7FC53EC1B2BFAF7B3FC04460D4651ECE4
:105A1000190B4A464346FAF7ABFC02460B462046B2
:105A20002946FAF79FFCCDE92410DAF82000FAF7AE
:105A3000CBFD41EC100B21F04FF9DAF81C00B0EE71
:105A4000409AF0EE609AFAF7BFFD41EC100B21F09E
:105A5000DFF8DAF81000B0EE40AAF0EE60AAFAF72C
:105A6000B3FD41EC100B21F0D3F851EC100B5A466A
:105A70003346FAF77DFC0446DAF818000D46FAF7CB
:105A8000A3FD41EC100B21F027F9DAF81000B0EE7D
:105A900040FAF0EE60FAFAF797FD41EC100B21F0B6
:105AA0001BF951EC100B4A464346FAF761FC0646D7
:105AB000DAF814000F46FAF787FD41EC100B21F0DD
:105AC0000BF953EC102B30463946FAF751FC0646D9
:105AD000DAF818000F46FAF777FD41EC100B21F0C9
