:020000040800F2
:10000000E80D00209D010008353800087532000811
:1000100031380008A1080008913C000800000000E9
:100020000000000000000000000000003D38000853
:100030005109000800000000393800084138000864
:10004000B7010008B7010008B7010008B7010008B0
:10005000B7010008B7010008B7010008B7010008A0
:10006000B7010008B7010008B7010008B701000890
:10007000B7010008B7010008B7010008B701000880
:10008000B7010008B7010008B7010008B701000870
:10009000A5080008B7010008B7010008B70100086B
:1000A000B7010008B7010008B7010008B701000850
:1000B00009390008B701000815390008B701000820
:1000C000B7010008B7010008B7010008B701000830
:1000D000B7010008593C0008B7010008653C00085A
:1000E000B7010008B7010008B7010008B701000810
:1000F000B7010008B7010008B7010008B701000800
:10010000B7010008B7010008B7010008B7010008EF
:10011000B7010008B7010008B7010008B7010008DF
:10012000B7010008B7010008B7010008B7010008CF
:10013000B7010008B7010008B7010008B7010008BF
:10014000B7010008B7010008B7010008B7010008AF
:10015000B7010008B7010008B7010008B70100089F
:10016000B7010008B7010008B7010008B70100088F
:10017000B7010008B7010008B7010008000000003F
:10018000B7010008B7010008DFF80CD000F068FBE9
:1001900000480047A5A40208E80D00200648804753
:1001A00006480047FEE7FEE7FEE7FEE7FEE7FEE75C
:1001B000FEE7FEE7FEE7FEE7F538000889010008E4
:1001C0002DE9F05F0546002092469B46884606468C
:1001D000814640241BE0284641464746224600F01F
:1001E00059FA53465A46C01A914110D3114618463F
:1001F000224600F040FA2D1A67EB01084F462246CE
:100200000120002100F037FA17EB00094E41201EB3
:10021000A4F10104DFDC484631462A464346BDE8E6
:10022000F09F40EA01039B0703D009E008C9121FB1
:1002300008C0042AFAD203E011F8013B00F8013BA0
:10024000521EF9D270472DE9FE4F804681EA030025
:10025000C00F0C46009021F0004123F00045B8EBA0
:100260000200A94105D24046214690461C460B4655
:10027000024623F00040104347D0270DC7F30A0081
:10028000C3F30A510290401A019040286BDAC3F37D
:10029000130040F4801B0098924620B10023D2EB5B
:1002A000030A63EB0B0B01985946C0F1400250461C
:1002B00000F0E1F906460D4650465946019A00F015
:1002C000F9F910EB08006141002487EA115284EA31
:1002D000E7731A4340D0009A62B3019A012A4FEAA9
:1002E000075215DC001B61EB02014FF0004202EAED
:1002F0000752CDE90042001C41F5801132462B46E1
:1003000000F030FA03B0BDE8F08F40462146F9E72F
:10031000001B61EB0201001C41F5801300185B41DA
:100320002018A2F5001747EB030140EAD570B61973
:100330006D4111E06D084FEA360645EAC0754FEA97
:100340000752001B61EB0201001C41F580114908B6
:100350004FEA30000019514132462B4603B0BDE848
:10036000F04F00F0F0B90098012240000023D0EBDC
:10037000020263EBE073009821464FEAE074B8EBA9
:10038000000061EB0401E9E783F000435BE781F0E3
:10039000004158E72DE9FE4F81EA030404F00044D0
:1003A00021F0004100944FF0000B23F0004350EA8D
:1003B00001045ED052EA03045BD0C3F30A54C1F3D4
:1003C0000A552C44A4F2F3340194A0FB0254C1F367
:1003D000130141F48011C3F3130343F4801301FBB1
:1003E000024400FB034E840A970A44EA815447EA18
:1003F0008357A4FB076802958D0A05FB07854FEA22
:10040000932C04FB0C542705029D4FEA065847EA3B
:100410001637B5EB08056EEB070C870E920E47EA10
:10042000811742EA8312A7FB0201B6EB0B0164EBD2
:1004300000042B0D43EA0C335E1844EB1C50DA46E3
:100440005146E7FB0201C5F313044FEA0B3343EABD
:1004500014534FEA0432019C43EA0603A4F10C044E
:100460000294009CCDE900B400F07CF903B0BDE833
:10047000F08F00200146F9E72DE9F04D81EA0304F1
:1004800004F0004B21F0004514464FF0000A23F021
:10049000004150EA050220D054EA01021DD0C5F304
:1004A0000A570246C5F31303C1F31300C1F30A56FA
:1004B00040F4801543F48013A7EB0608101BD646C2
:1004C00008F2FD3873EB050002D308F1010801E0E2
:1004D00092185B41B8F1000F03DA00200146BDE835
:1004E000F08D00204FF48011064684460EE0171B65
:1004F00073EB050705D3121B63EB050306434CEAB8
:10050000010C49084FEA300092185B4150EA01079C
:10051000EDD152EA030012D082EA040083EA050119
:10052000084305D0101BAB4106D20122002306E090
:1005300000224FF0004302E06FF0010253101AEB6B
:1005400006004CEB085110EB0A0041EB0B01BDE833
:10055000F04D00F0F8B830B5041E71F1000404DB72
:100560004FF00044404264EB0101141E73F100049B
:1005700005DB1C464FF00043524263EB0403101AA4
:100580008B4101D2012030BD002030BD0EB5C10F1E
:1005900080EAE0700844CA07002140F233438DE846
:1005A0000E000A460B4600F0DDF803B000BD70B542
:1005B000C1F30A5201F000450024C1F3130140F2D7
:1005C000FF3341F480119A4201DA002070BD40F2FD
:1005D00033439A42A2F2334203DC524200F05AF80B
:1005E00000E090402C43F1D0404270BD00F000424A
:1005F00030F000400AD0C10D01F56071C0F3160063
:1006000042EA0151C20840071143704700200146E9
:10061000704701F0004330B421F0004150EA01027C
:1006200006D00A0DA2F56072C1F31301002A02DCA4
:1006300030BC00207047440F44EAC104C100E018F8
:1006400030BC00EBC25000F047B830B50B46014655
:1006500000202022012409E021FA02F59D4205D361
:1006600003FA02F5491B04FA02F52844151EA2F10B
:100670000102F1DC30BD202A04DB203A00FA02F14D
:10068000002070479140C2F1200320FA03F3194380
:1006900090407047202A04DB203A21FA02F0002122
:1006A000704721FA02F3D040C2F120029140084382
:1006B00019467047202A06DBCB17203A41FA02F090
:1006C00043EAE07306E041FA02F3D040C2F12002AF
:1006D00091400843194670470029A8BF7047401C45
:1006E000490008BF20F00100704710B4B0FA80FC48
:1006F00000FA0CF050EA010404BF10BC704749B185
:10070000CCF1200421FA04F411FA0CF118BF0121F4
:1007100021430843A3EB0C01CB1D4FEA00614FEAD4
:10072000102042BF002010BC704700EBC3501044A3
:100730000029A4BF10BC7047401C490008BF20F02E
:10074000010010BC704710B5141E73F1000408DAE4
:10075000401C41F1000192185B411A4301D120F085
:10076000010010BD2DE9F04D92469B4611B1B1FA42
:1007700081F202E0B0FA80F220329046FFF77BFF70
:1007800004460F4640EA0A0041EA0B0153465A4626
:10079000084313D0114653EA010019D0C8F14002B2
:1007A0005046FFF777FF05460E46504659464246EB
:1007B000FFF761FF084305D0012004E020463946D9
:1007C000BDE8F08D0020054346EAE0762C43374330
:1007D0000A986305E40AA0EB08000022FD0A44EA37
:1007E00047540A3002D500200146E9E701051019F7
:1007F0006941DDE9084500196941BDE8F04DA2E70E
:10080000C1F30A52C1F3130140F2FF3341F48011E6
:100810009A4202DA00200146704740F233439A427E
:10082000A2F2334202DC5242FFF734BFFFF723BF8C
:1008300030B5041E71F1000404DB4FF00044404267
:1008400064EB0101141E73F1000405DB1C464FF03C
:100850000043524263EB0403994208BF904230BD0B
:10086000064C074D06E0E06840F0010394E80700FD
:1008700098471034AC42F6D3FFF78AFC0CC7020845
:100880002CC702080EB540F2334102910021CDE998
:1008900000110A460B46FFF765FF03B000BD0000DC
:1008A000FEE7000040F2D820C2F2000000F0FCBCDD
:1008B00080B540F2D820C2F2000001210022C0E938
:1008C0001111014641F8282FC0E90B22C0E90D2281
:1008D000C0E90F2200F0E6FB002818BF00F088F8FE
:1008E00040F2D820C2F2000000F0ACFF20B10BA013
:1008F0002AF006FC00F07CF840F2D820C2F200009A
:10090000022100F057FB002808BF80BD09A02AF093
:10091000F7FBBDE8804000F06BB800BF0A43414ED2
:10092000315F5374617274204661696C6564212182
:10093000000000000A52585F4649464F305F53742A
:10094000617274204661696C6564212100000000B9
:100950007047000070B5002808BF70BD40F2BC753C
:100960000446C2F20005002605E000BF2846013C0F
:1009700001F0BCFDC4B128684662284601F064FD60
:10098000286800BF416AC9087C29EFD8416AC908B4
:100990007C29EBD8416AC9087C29E7D8416AB1F5BE
:1009A0007A7FEFD3E2E700BF70BD0000B0B540F240
:1009B000BC75C2F200050446286800214162284641
:1009C00001F042FD286800BF416AA14208D2416A95
:1009D000A14205D2416AA14202D2416AA142F3D3A7
:1009E00040F2BC70C2F20000BDE8B04001F07EBD34
:1009F000EFF3108072B600BFFEE7000070B581B063
:100A00000022009290F83C20012A03D102210846DE
:100A100001B070BD0E6801220A2E80F83C2009D377
:100A2000B2B25200D0F800E012FA86F21E3A0EF18D
:100A30000C0305E0D0F800E006EB46020EF11003CF
:100A40004FF0070C1D680CFA02F4A5431D608D6879
:100A50001C6805FA02F222431A60496806290FD879
:100A600001EB81014A1F71461F2351F8345F934007
:100A700025EA03030B60B3B203FA02F214E000BFED
:100A800001EB81030C29B2B204D8714651F8304F02
:100A9000233B03E0714651F82C4F413B1F259D40FD
:100AA00024EA05059A400D600B6842F2043CC4F24A
:100AB000010C1A43ACF541739E450A603BD1122EDE
:100AC00006D1DCF8001041F48001CCF8001032E0CF
:100AD00026F0010110292ED1DCF80010102E41F46F
:100AE0000001CCF8001026D140F21C01C2F2000136
:100AF00009684DF68362C4F21B32A1FB0212910C0D
:100B000001EB8101490000910099A1B100990139DF
:100B10000091009979B1009901390091009951B182
:100B2000009901390091009929B10099013900918A
:100B300000990029EAD1002180F83C10084601B054
:100B400070BD0000006C70470068C06C704700000A
:100B5000002804BF0120704710B50446006C00282F
:100B60003ED0206CC00645D4206C41F2021188436F
:100B7000023042F204312064C4F20101086820F41A
:100B8000403008600A6894E809101A43D4F810E06D
:100B90000A604168012321F4807141604168C0F618
:100BA000007341EA0E214160416821F040714160CB
:100BB000416841EA0C014160816821F40061816073
:100BC000E168826811438160A16A8268994222F0DB
:100BD00070628260826813D122F0405119E000BF38
:100BE000204600F065F80020606484F83C00206C2A
:100BF000C006B9D50120002184F83C1010BD00BF0B
:100C000011438160816821F040518160E16A82680E
:100C100011438160816821F0020181608168227E38
:100C200094F8203041EA42018160416883B141F487
:100C30000061416041684EF2000221F46041416070
:100C4000616ACFF6FF72436802EB4131194301E05C
:100C500021F400614160C16A40F2000C21F470018E
:100C6000C162E2696169CFF6F07CC36A0CEB0252A3
:100C70001A43C262826822F40072826094F83020C3
:100C8000836843EA42228260826822F48062826042
:100C9000826842EA8121816000206064216C012227
:100CA00062F301012164002184F83C1010BD0000B2
:100CB000F0B587B042F200050068C4F201050026D5
:100CC000A8420696059601D007B0F0BD43F6300065
:100CD0000196C4F20200416902AC41F480714161A5
:100CE0004169032701F4807101910199019601681E
:100CF00041F004010160016801F0040101910199D2
:100D00000196016841F001010160016801F00101F3
:100D1000019101990196016841F0020101600068AA
:100D2000214600F00200019001980120029005F593
:100D30006840CDE9037600F02FFE6020CDE9020780
:100D400005F560402146049600F026FE05F5644056
:100D50002146CDE90277049600F01EFE07B0F0BDF3
:100D600070B5044600680D468268520544BF80682D
:100D70005FEAC05038D400F0E3FE21680A689207A9
:100D800049D40646681C3CD0DDB90868800721D5E7
:100D9000086880073FD4086880071BD5086880076B
:100DA00039D40868800715D50868800733D40868E7
:100DB00080070FD508688007E7D52CE00868800712
:100DC00029D400F0BDFE801B2168A842F6D908682E
:100DD0008007F3D4206C40F004002064002084F8E5
:100DE0003C00032070BD00BF206C40F02000206458
:100DF000002084F83C00012070BD00BF0868800717
:100E000009D40868800706D4086880075CBF0868B2
:100E10005FEA8070F2D56FF012000860206C40F439
:100E200000702064886810F0405F01D1207E08B116
:100E3000002070BDC86A10F4700F02D088684005A9
:100E4000F6D4206C20F480702064206CC004EFD4B1
:100E5000206C40F001002064002070BD10B581B00E
:100E60000021009190F83C10012903D1022001B02B
:100E700010BD00BF0468012180F83C10214651F8E4
:100E8000083FDB0729D10B684DF6836243F001036D
:100E90000B6040F21C03C2F200031B68C4F21B3259
:100EA000A3FB02239A0C02EB42020092009AA2B129
:100EB000009A013A0092009A7AB1009A013A00929F
:100EC000009A52B1009A013A0092009A2AB1009A0F
:100ED000013A0092009A002AEAD10A68036CD2070C
:100EE0000AD143F01001016400F1440101200A68B5
:100EF0001043086056E000BF40F2017223EA02028C
:100F000002F5807202646268520504D5026C012306
:100F100063F30D320264026C4FF0000E0023D20422
:100F200044BF426C22F0060342F2043C436480F862
:100F30003CE06FF02200C4F2010C2060DCF80000FD
:100F4000C0060DD0ACF5417084422BD14FF6045051
:100F5000CFF6FF705CF8000010F0405F22D125E072
:100F600042F20000C4F20100844217D042F2002095
:100F7000C4F2010084420DD042F20010C4F201001C
:100F800084420FD1DCF80000C00607D0ACF58270B7
:100F9000844207D1DCF80000C00603D4086810F0D2
:100FA000405F03D0002001B010BD00BF4FF0804073
:100FB0009DE7000090F82020013A012A08D8006837
:100FC00000F114020020136819431160704700BF3C
:100FD00000F1240201204FF48021136819431160AD
:100FE0007047000010B590F820E0D0F800C0AEF1D6
:100FF000010EBEF1010FDCF808E011D81EF0E05F31
:1010000018D0CEF3016EBEF1030F1DD100F1240103
:1010100001204FF400020B681A430A6010BD00BFA4
:1010200000F1240101204FF480220B681A430A606A
:1010300010BD00BF00F1240101204FF400120B6825
:101040001A430A6010BD00BF012000FA0EF01860BC
:10105000886828B14B68CC6844EAC303034303E0C3
:101060000868CB6843EA40530CEB0E10C0F880319F
:101070000B69C0F88431097D012905D100F5C271E1
:101080000B6843F480730B605168C0F88C111268D0
:1010900000F5C071C0F88821002001220B681A43B6
:1010A0000A6010BDB0B590F82020013A012A2FD86F
:1010B00046F20060C4F20000026842F001020260E1
:1010C000026822F47C520260D1F814E0CC694A6ACA
:1010D0000368012C43EA022202600EF01F024FF067
:1010E000010303FA02F2C3696FEA020C23EA020366
:1010F000C36113D02CBBC36803EA0C03C360CB6885
:101100008C8844EA034300EBCE0423640B4611E0D1
:10111000416A41F4802141620120B0BDC36813439C
:10112000C3600B688C8844EA034300EBCE0423645D
:1011300001F10C038C681B8843EA044300EBCE04E6
:10114000636443688D6943EA0204D1F810E0096AD8
:10115000002D08BF03EA0C0444604369BEF1000F90
:1011600043EA020408BF03EA0C040129446102D1E6
:10117000C1691143C161016821F0010101600020D2
:10118000B0BD00007047000010B590F82040013C51
:10119000012C71D8D0F800C0002977D0DCF81040BD
:1011A000A40777D00CEB011CDCF8B0410CF5D87E1D
:1011B00014F004049460DCF8B04119BFE4085460F2
:1011C000640D1460DEF80040002904F00204D460CD
:1011D000DCF8B44104F00F041461DCF8B441C4F34A
:1011E00007249461DCF8B4414FEA14445461DCF8FC
:1011F000B8211A70026802EB0112D2F8B8214FEA46
:1012000012225A70026802EB0112D2F8B8214FEA9A
:1012100012429A70026802EB0112D2F8B8214FEA2A
:101220001262DA70026802EB0112D2F8BC211A7164
:10123000026802EB0112D2F8BC214FEA12225A7165
:10124000026802EB0112D2F8BC214FEA12429A71F5
:10125000026802EB0112D2F8BC214FEA1262DA7185
:10126000006814BF00F1100100F10C0100202022E1
:101270000B681A430A6010BD00F1240101204FF4ED
:1012800080220B681A430A6010BD00BFDCF80C40D6
:10129000A40787D100F1240101204FF400120B684C
:1012A0001A430A6010BD00002DE9F04F81B00446DA
:1012B00000684669D0F804908768D0F80CB0D0F880
:1012C00010A0D0F81880F10704D1002530071DD4F4
:1012D00024E000BFF90710D00121BA07816009D4CA
:1012E000780700F1AF80380700F1B680204600F0A3
:1012F000D7FA02E0204600F0D5FA0025F80500F103
:101300008780F80300F1B180300707D51BF010008B
:1013100004D0206845F400751021C160700708D51D
:101320001BF0080005D020680821C160204600F0AD
:10133000A3F9B00706D52068C068800702D0204610
:1013400000F09CF9700607D51AF0100004D0206850
:1013500045F4806510210161B00608D51AF0080037
:1013600005D0206808210161204600F065FAF006EA
:1013700006D520680069800702D0204600F05EFA9A
:10138000B00308D519F0100005D020681021416085
:10139000204600F055FAF00308D519F0080005D0F2
:1013A000206808214160204600F086FA300440F1B0
:1013B0009B805FEA497040F1948006F4807008EAEF
:1013C000102028435FEA8871014648BF41F00201BE
:1013D000B20558BF01465FEA48700D4648BF45F068
:1013E0000405700558BF0D46300540F17A8018F0AD
:1013F000700000F076801038000905286CD8DFE80E
:1014000000F003595D61656945F0080564E000BFBF
:1014100020684FF48071BA0581600BD4780515D42B
:1014200038051DD4204600F03FFAF8037FF56CAF75
:101430001BE000BF204600F039FAF8037FF564AFE7
:1014400013E000BF4FF4006558E700BF05F50055F5
:10145000F8037FF559AF08E04FF480554EE700BF21
:1014600005F58045F8037FF54FAF20684FF48031D4
:10147000BA0381600AD4780310D4380314D4204608
:1014800000F016FA30073FF541AF47E7204600F07D
:1014900011FA30073FF53AAF40E700BF05F50045C8
:1014A00030073FF533AF39E705F5803530073FF5B5
:1014B0002DAF33E745F010050EE000BF45F02005E5
:1014C0000AE000BF45F0400506E000BF45F080059A
:1014D00002E000BF45F480752068816921F0700149
:1014E000816120680421416055B1606A40EA0501CC
:1014F0002046616201B0BDE8F04FFFF743BE00BF78
:1015000001B0BDE8F08F0000B0B5C8B1044690F856
:10151000200010B9204600F071F82068016841F001
:101520000101016000F00CFB054600BF2068416826
:10153000C90707D100F004FB401B0B28F6D312E0CB
:101540000120B0BD016821F00201016000F0F8FA4D
:10155000054600BF2068416889070DD500F0F0FA04
:10156000401B0B28F6D3606A052140F4003060620E
:10157000012084F82010B0BD217E0268012922F0EC
:10158000800208BF80320260617E0268012922F079
:10159000400208BF40320260A17E0268012922F0A9
:1015A000200208BF20320260E17E0268012922F099
:1015B000100218BF10320260217F0268012922F058
:1015C000080208BF08320260617F0268012922F028
:1015D000040208BF04320260D4E901C2D4E9033531
:1015E00061691A432A431143ACF101021143C161FD
:1015F00000200121606284F82010B0BD80B586B063
:10160000016846F20040C4F20000814202D006B0F8
:1016100080BD00BF002143F630020191C4F20202F6
:10162000136900F5CE3043F000731361136903F0C2
:1016300000730193019B0191136843F00103136050
:10164000126802F001020192019A4FF4C052019215
:101650000222CDE90221032104910921059101A96A
:1016600000F09AF914200021002200F0EDFA142075
:1016700000F0D6FA06B080BD70470000F0B583B028
:10168000026846F20043C4F2000300219A4201912D
:10169000009101D003B0F0BD40F23014C2F200045A
:1016A0006B4600212246FFF76FFD0028F2D19DF81E
:1016B00001209DF802109DF805002B2A08BFE8299B
:1016C00016D02B2A08BFE2291ED09DF800009B28C7
:1016D00026DC332832D0922844D1DDE9000140F2E3
:1016E000DC12C2F200025160106003B0F0BD00BF16
:1016F000E928E6D1DDE9000140F2B412C2F20002AD
:101700005160106003B0F0BDE428DED1DDE90001D6
:1017100040F2BC12C2F200025160106003B0F0BD92
:101720009C2815D0A4281DD1DDE9000140F2EC125F
:10173000C2F200025160106003B0F0BDDDE90001AB
:1017400040F2F412C2F200025160106003B0F0BD2A
:10175000DDE9000140F2E412C2F2000251601060C3
:1017600003B0F0BD206800F47F61B1F5887F0BD134
:1017700000F00F00042811D8DDE9001204EBC000CE
:10178000C0E9081203B0F0BDDDE9000140F2D41257
:10179000C2F200025160106003B0F0BDC11F042905
:1017A00008D8DDE9001204EBC000C0E9041203B060
:1017B000F0BD00BF0C287FF46DAF04F1200C40F6A3
:1017C00058109CE80610C2F200000160216D4260D2
:1017D0000162A16DA26C8163216E82600165D4E912
:1017E0001021D4E90B3E41660266A16E40F2A412BC
:1017F000C2F2000204F134071268816640F2A0319F
:10180000E0CFC2F20001C361C7648664826791E8D9
:101810008C00D1E90361C0F818C04563C0F830E01E
:10182000C267C0F88030C0F88470C0F88860C0F823
:101830008C1003B0F0BD000070470000704700003E
:1018400070470000B0B5044690F8200001281DD173
:10185000022084F820002068016821F00101016065
:1018600000F06EF9054600BF20684068C00713D03D
:1018700000F066F9401B0B28F6D3606A40F4003094
:101880006062052084F820000120B0BD606A40F449
:10189000002060620120B0BD00206062B0BD000089
:1018A000704700007047000070470000704700005C
:1018B00070470000704700007047000070B5866DEB
:1018C000044600F03DF994F83510022928D1054668
:1018D0002068216C026822F016020260426922F040
:1018E0008002426109B9A16C19B1016821F00801B7
:1018F0000160016821F00101016000BF20680068FB
:10190000C00715D000F01CF9401B0628F6D3202094
:101910006065032084F83500002184F8341070BD20
:10192000802060650120002184F8341070BD00BF64
:10193000E06D3F2101FA00F0B060012084F835002D
:101940000020002184F8341070BD000090F835109C
:10195000022909D1052180F835100068016821F0BD
:10196000010101600020704780214165012070471E
:10197000B0B5044600F0E4F8054640F21400C2F2A7
:1019800000000078611C18BF044400BF00F0D8F8C4
:10199000401BA042FAD3B0BD2DE9F04F82B000F158
:1019A0003E4241F6004502F1FF77C4F202050822EB
:1019B00043F6004E4FEAB726A84208BF0722C4F2FA
:1019C000010E072E38BF4FEAB72201250026002757
:1019D0004FF00008009208E008F101080437B8F160
:1019E000100F06F1020600F0A7800C6805FA08F94E
:1019F00014EA090FF0D0D1F804B003220BF0030C65
:101A0000ACF10104B240012C6FEA020A10D88268DE
:101A1000CC6802EA0A02B440224382604268CBF3F7
:101A2000001422EA090204FA08F42243426005E0A5
:101A3000BCF1030F02D14FF0030C20E0C2688C68A8
:101A400002EA0A02B4402243BCF1020FC26016D17E
:101A50006FF0030202EA58020244D2F820C007F0F5
:101A60001C050F230C69AB402CEA030304FA05F5AF
:101A70002B431362D1F804B001250BF0030C02686C
:101A80000CFA06F302EA0A021A431BF4403F026012
:101A9000A2D0002243F644030192C4F202031A6862
:101AA0004FF6084C42F480421A601A68CFF6FF7C69
:101AB00002F480420192019A28F00302724452F823
:101AC0000C3007F00C050F24AC40A343009C04FA33
:101AD00005F52B4342F80C30DEF808204B6842EA4B
:101AE000090543F60C4CDC0258BF22EA0905CEF882
:101AF0000850C4F2010CDCF800209C0242EA0905FF
:101B000058BF22EA0905CCF80050DEF804209C03F7
:101B100042EA090558BF22EA0905CEF80450DEF86A
:101B20000020DB0342EA090558BF22EA0905CEF886
:101B30000050012550E700BF02B0BDE8F08F000063
:101B400040F65410C2F200000068704740F21400E2
:101B500040F65411C2F20000C2F2000100780A6897
:101B6000104408607047000080B543F60040C4F29E
:101B70000200016841F400710160016841F4806174
:101B80000160016841F480710160032000F088F871
:101B90000F2000F005F800F027F8002080BD0000BD
:101BA00070B540F21406C2F2000640F21C01327811
:101BB000C2F200014FF47A730968B3FBF2F20446F3
:101BC000B1FBF2F1084600F043FB0F2C4FF001058A
:101BD00008D838B94FF0FF3021460022002500F028
:101BE00033F87460284670BD82B0002043F640018F
:101BF0000190C4F202014A6842F480424A604A6895
:101C000002F480420192019A0090086840F08050EE
:101C10000860086800F080500090009802B070479B
:101C2000002848BF7047C1B200F01F00012202FA2D
:101C300000F04EF20012CEF2000242EAD10121F091
:101C4000030108607047000010B54EF60C5CCEF240
:101C5000000CDCF80030C3F3022E8EF00704042CD5
:101C600028BF0424BEF103034FF0FF3E0EFA04F434
:101C700038BF0023A14399400EFA03F39A4311435E
:101C800000F00F0200F160430901043A03F56443D8
:101C90006244002848BF02F10C03197010BD000017
:101CA0004EF60C51CEF200010A684FF6FF031A40BF
:101CB00060F30A2242F0806040F0FD7008607047D7
:101CC0002DE9F041002800F08B8043F60808C4F2AB
:101CD00002080446D8F8F8030D4600F007008842D1
:101CE00007D288F8F853D8F8F80300F00700A842A4
:101CF00076D12068810717D5410705D5D8F800109F
:101D000041F4E051C8F80010010705D5D8F80010DB
:101D100041F46041C8F80010D8F80010A26821F022
:101D2000F0011143C8F80010C0073FD1D8F8F803FC
:101D300000F00700A84207D988F8F853D8F8F8034C
:101D400000F00700A8424BD12068410707D5D8F81A
:101D50000010E26821F4E0511143C8F800100007B8
:101D600008D5D8F80000216920F4604040EAC1009D
:101D7000C8F8000000F07CF8D8F800104CF250527F
:101D8000C1F30311C0F60202515C40F21C0220FABA
:101D900001F140F21800C2F200000068C2F2000235
:101DA0001160FFF7FDFE0020BDE8F0816068811E34
:101DB000022907D258F8081C89015CBF0120BDE840
:101DC000F08111E0012807D158F8081C89035CBF95
:101DD0000120BDE8F08107E058F8081C890703D40A
:101DE0000120BDE8F08100BFD8F8001021F0030108
:101DF0000843C8F80000FFF7A3FE064641F2883703
:101E0000D8F80000616800F00C00B0EB810F8DD0B5
:101E1000FFF796FE801BB842F2D90320BDE8F0819F
:101E200040F21C0043F60801C2F20000C4F20201B5
:101E3000006809684CF26052C1F38221C0F60202C8
:101E4000515CC8407047000040F21C0043F6080196
:101E5000C2F20000C4F20201006809684CF260524C
:101E6000C1F34231C0F60202515CC8407047000025
:101E700010B543F60404C4F20204606800F00C00DC
:101E800008280BD0042819BF42F20040C0F2F40029
:101E900047F64000C0F27D1010BD00BF20682168E9
:101EA0002368490247F64001C0F27D1100F03F026D
:101EB000C3F388105CBF42F20041C0F2F401A1FB01
:101EC00000010023FEF77CF921680222C1F30141E1
:101ED00002EB4101B0FBF1F010BD00002DE9F04133
:101EE00082B0002868D00446007843F60006C00798
:101EF000C4F202060BD0B06800F00C00042840F0D9
:101F00009F803068800302D56068002854D0207814
:101F100080071AD5B06810F00C0F09D0B06800F037
:101F20000C00082840F0A6807068400200F1A280F2
:101F30003068800702D5E06801283DD1306821690A
:101F400020F0F80040EAC10030602078000737D464
:101F5000207840074CD4A56955B3B06800F00C0058
:101F6000082840F0BB80012D26D07068E16900F49C
:101F700080028A4220D1216A00F03F028A421BD1AE
:101F800047F6C071626A0140B1EB821F14D1A16AA9
:101F90004FF6FF73C903994300F44032A1F5803135
:101FA0008A4209D1E16A00F07060B0EB016F03D1A1
:101FB000002002B0BDE8F081012002B0BDE8F08150
:101FC0006069002840F20000C4F2472076D0012169
:101FD000C0F8801EFFF7B4FD054600BF706F800794
:101FE000B6D4FFF7ADFD401B0228F7D9DDE000BFF6
:101FF000306C10F080580AD100200190306C40F015
:1020000080503064306C00F080500190019847F2AD
:102010000007C4F200073868C00541D4386840F4AE
:1020200080703860FFF78CFD054600BF3868C0053A
:1020300036D4FFF785FD401B0228F7D9B5E000BF75
:10204000B06800F00C00082803D1706840023FF52A
:1020500058AF6068B0F5803F07D0B0F5A02F40F0D2
:102060008D80306840F480203060306840F48030EB
:1020700030608DE0E068002852D00020C4F2472094
:1020800001210160FFF75CFD054600BF3068800755
:102090003FF554AFFFF754FD401B0228F6D984E00A
:1020A000A068012805D005284ED1306F40F004000B
:1020B0003067306F40F0010030674FE00021C0F81A
:1020C000801EFFF73DFD0546706F80077FF540AF2E
:1020D000FFF736FD401B0228F6D966E00027C4F260
:1020E000472700203866FFF72BFD022D05460BD150
:1020F000306880015ED5FFF723FD401B02284FF0BA
:102100000300F5D955E700BF306880017FF550AF77
:10211000FFF716FD401B02284FF00300F4D948E7F3
:102120000020C4F2472000210160FFF709FD0546A9
:10213000306880077FF509AFFFF702FD401B0228DA
:102140004FF00300F4D934E7316F002821F001018A
:102150003167316F21F0040131674DD0FFF7F0FC9A
:10216000054641F2883700BF306F800756D4FFF72D
:10217000E7FC401BB842F7D917E000BF31680028E0
:1021800021F480313160316821F4802131604FD0F9
:10219000FFF7D6FC054600BF306880033FF5B7AEB9
:1021A000FFF7CEFC401B6428F6D9032002B0BDE83F
:1021B000F08100BF04F11C052FCD084340EA8210D6
:1021C000D9034FF6FF729143A1F5803140EA0560D3
:1021D0000843706001203866FFF7B2FC044600BF78
:1021E000306880013FF5E4AEFFF7AAFC001B02282F
:1021F0004FF00300F4D9DCE6FFF7A2FC054641F2FC
:10220000883700BF306F800708D5FFF799FC401B67
:10221000B8424FF00300F5D9CBE600BFB8F1000F8C
:102220007FF499AE306C20F08050306493E600BFAC
:10223000FFF786FC054600BF306880037FF567AE78
:10224000FFF77EFC401B64284FF00300F4D9B0E692
:10225000411E0020B0EB116F1CBF012070474EF2F1
:102260001002CEF2000251604EF62351CEF2000170
:10227000F0230B70072190601160704770470000D9
:102280007047000010B590F83C20012A4FF0020280
:1022900051D080F83D200268D2F804E0D2F808C09E
:1022A0000C682EF07003234341F2FF74C4F2000463
:1022B000A24253600EDC40F2FF73C4F200039A4264
:1022C00016DCB2F1804F2BD040F20043C4F2000381
:1022D00024E000BF40F2FF33C4F201039A4213DC52
:1022E00041F60003C4F200039A4219D0002313E020
:1022F00040F60003C4F200039A4211D040F60043B6
:10230000C4F200030AE000BF44F20003C4F2010378
:102310009A4205D040F20043C4F201039A4204D12C
:1023200049682CF08003194391600121002280F854
:102330003D1080F83C20104610BD0000002804BF6E
:102340000120704710B5044690F83D0028B90020E0
:1023500084F83C00204600F01FF8022084F83D007D
:102360002068211D01F0DCFA012084F8460084F881
:102370003E0084F83F0084F8400084F8410084F86F
:10238000420084F8430084F8440084F8450084F84F
:102390003D00002010BD000080B584B0006840F60C
:1023A0000001C4F20001884222D040F20041C4F290
:1023B0000001884236D0B0F1804F42D10020039016
:1023C00043F64000C4F202000168002241F001011E
:1023D00001600068022100F00100039003981C20B6
:1023E000FFF732FC1C2004B0BDE88040FFF718BCAA
:1023F0000020019043F64000C4F202000168002270
:1024000041F0040101600068032100F00400019024
:1024100001981E20FFF718FC1E2004B0BDE8804084
:10242000FFF7FEBB0020029043F64000C4F202001A
:10243000016841F002010160006800F002000290B2
:10244000029804B080BD000090F83D1001291CBF27
:1024500001207047022180F83D10006841F2FF71B1
:10246000C4F2000188420DDC40F2FF71C4F20001A9
:10247000884215DCB0F1804F2AD040F20041C4F20E
:10248000000123E040F2FF31C4F20101884213DC75
:1024900041F60001C4F20001884219D0002113E086
:1024A00040F60001C4F20001884211D040F600411C
:1024B000C4F200010AE000BF44F20001C4F20101CD
:1024C000884205D040F20041C4F20101884206D1A1
:1024D000816801F00701062904BF002070470168E8
:1024E00041F00101016000207047000001460068D2
:1024F00041F21113026A1A4204D00122002081F82D
:102500003D207047026A40F244431A42F5D1026806
:1025100022F0010202600122002081F83D20704774
:102520000146006841F21113C26822F00102C26044
:10253000026A1A4204D00122002081F83D2070472F
:10254000026A40F244431A42F5D1026822F00102C5
:1025500002600122002081F83D20704780B590F88C
:102560003C20012A4FF0020200F0C28080F83D209A
:10257000D0F800C04FF67772DCF8083023EA020288
:10258000CCF808200B684F2B28DC1F2B44DD202BB8
:1025900045D0302B43D0402B40F0AC80D1F804E044
:1025A000C968DCF82030DCF8202022F00102CCF8E9
:1025B0002020DCF8182022F0F00242EA011123F07A
:1025C0000A0242EA0E02CCF81810CCF82020DCF8FF
:1025D000081041F0470121F0300180E06F2B27DD2A
:1025E000B3F5005F48D0B3F5805F7AD0702B40F030
:1025F0008180D1E901E3C968DCF8082043EA0E03D1
:1026000022F47F4243EA01211143CCF80810DCF8A0
:10261000081041F0770162E00BB1102B6AD1DCF8B1
:10262000081021F07001194341F0070157E000BF85
:10263000502B35D0602B5DD1D1F804E0C968DCF8AF
:10264000203023F01003CCF82030DCF81830DCF810
:10265000202023F4704322F0A00243EA013142EA31
:102660000E12CCF81810CCF82020DCF8081041F03D
:10267000670121F0100132E0D1E901E3C968DCF81B
:10268000082043EA0E0322F47F4243EA012111436A
:10269000CCF80810DCF8081041F480411FE000BFBE
:1026A000D1F804E0C968DCF82030DCF8202022F002
:1026B0000102CCF82020DCF8182022F0F00242EAD7
:1026C000011123F00A0242EA0E02CCF81810CCF8ED
:1026D0002020DCF8081041F0570121F02001CCF84F
:1026E00008100022012180F83D10002180F83C10E4
:1026F000104680BD0122F5E77047000010B5016863
:1027000004460869800744BFC8685FEA807039D40E
:102710000869400744BFC8685FEA40703ED4086952
:10272000000744BFC8685FEA007045D40869C00666
:1027300044BFC8685FEAC0604AD40869C0071CBFCC
:10274000C8685FEAC07051D10869000644BFC86814
:102750005FEA006052D40869400644BFC8685FEA77
:10276000406053D40869800646BFC8685FEA80604D
:1027700010BD6FF0200220460A61BDE81040FFF74F
:102780007FBD00BF6FF002000861012020778869DB
:10279000800743D02046FFF7AFFF45E06FF004000D
:1027A000086102202077886910F4407F40D02046DD
:1027B000FFF7A2FF42E000BF6FF0080008610420AD
:1027C0002077C86980073DD02046FFF795FF3FE09E
:1027D0006FF01000086108202077C86910F4407F6E
:1027E0003AD02046FFF788FF3CE000BF6FF00100C1
:1027F0000861204600F03EF82168A5E76FF08000F0
:1028000008612046FFF73AFD2168A4E76FF0400019
:102810000861204600F066F82168A3E7204600F032
:1028200025F8204600F024F82168002020776FE783
:10283000204600F01BF8204600F01AF8216800201E
:1028400020776CE7204600F011F8204600F010F8E1
:1028500021680020207769E7204600F007F820462D
:1028600000F006F821680020207766E77047000036
:102870007047000010B504460068B0F1804F07D0E3
:1028800040F60001C4F2000188420AD010BD00BF2A
:1028900028F0FAF9206840F60001C4F200018842ED
:1028A000F4D140F2A210C2F20000018841F21112EC
:1028B00041F40041018040F60400C2F200000068CB
:1028C0006FF001010161016A1142DFD1016A40F23A
:1028D0004442114218BF10BD016821F0010101609E
:1028E00010BD0000704700007047000070470000F6
:1028F000B0B582B0044600680168C368426901F05F
:102900002F05202D03F0200506D12DB1204602B061
:10291000BDE8B04001F0A8B85FEA017C1EBF02F03C
:10292000010E03F4907212EB0E0253D1226B012AB6
:1029300005D111F0100218BF13F0100236D10A06AB
:1029400022D513F080021FD094F83D1021293FD1E9
:10295000A168B1F5805F03D12169002900F072827E
:10296000216A4A1C226209784160E18C01390A041B
:10297000E1842DD1C16821F08001C160C16841F0BE
:102980004001C16002B0B0BD490621D513F040013D
:102990001ED0C16821F04001C1602021204684F88A
:1029A0003D1002B0BDE8B04000F062BC00210191D2
:1029B000016801914168019101994069400613D471
:1029C000A08DE18DE28D002A18BF884240F0BE81C3
:1029D00002B0B0BDCA0718BF13F4807240F0BA80CD
:1029E0004A0700F1BD80C2E0A16B0868426893B25B
:1029F000002BEDD0A08D8342EAD2E285C969B1F502
:102A0000807F00F09D80206850E8030F216820F44B
:102A1000807041E80302DAB1206850E8030F2168B2
:102A200020F4807041E8030292B1206850E8030F5F
:102A3000216820F4807041E803024AB1206850E820
:102A4000030F216820F4807041E80302002ADAD1E4
:102A5000206850E8050F216820F0010041E80502D8
:102A6000DAB1206850E8050F216820F0010041E844
:102A7000050292B1206850E8050F216820F001009E
:102A800041E805024AB1206850E8050F216820F0AE
:102A9000010041E80502002ADAD1206850E8050F5C
:102AA000216820F0400041E80502DAB1206850E8D2
:102AB000050F216820F0400041E8050292B120682E
:102AC00050E8050F216820F0400041E805024AB1B6
:102AD000206850E8050F216820F0400041E8050219
:102AE000002ADAD1202084F83E00002020632068EC
:102AF00050E8030F216820F0100041E80302DAB12A
:102B0000206850E8030F216820F0100041E803021C
:102B100092B1206850E8030F216820F0100041E8CE
:102B200003024AB1206850E8030F216820F010002A
:102B300041E80302002ADAD1A06BFEF7BFFEA08DA8
:102B4000E18D401A81B2204602B0BDE8B040FFF7E7
:102B5000CBBE00BF226C42F0010222644A0706D5B8
:102B6000BEF1000F03D0226C42F0020222648A07F9
:102B700006D5BEF1000F03D0226C42F0040222649D
:102B8000BCF1000F09D545EA0E02B2FA82F25209F1
:102B900003D1226C42F008022264226C002A3FF426
:102BA00017AF11F0200118BF002D03D0204600F010
:102BB0005BFF20684069216C00F0400001F00801D3
:102BC000401800F0B58000BF206850E8030F21686E
:102BD00020F4907041E80302BAB3206850E8030F74
:102BE000216820F4907041E8030272B3206850E835
:102BF000030F216820F4907041E803022AB3206893
:102C000050E8030F216820F4907041E80302002A85
:102C1000DAD11AE0206850E8050F216820F00100A1
:102C200041E80502DAB1206850E8050F216820F07C
:102C3000010041E8050292B1206850E8050F2168C3
:102C400020F0010041E805024AB1206850E8050F74
:102C5000216820F0010041E80502002ADAD1206B4A
:102C6000012824D1206850E8030F216820F01000CB
:102C700041E80302DAB1206850E8030F216820F030
:102C8000100041E8030292B1206850E8030F216868
:102C900020F0100041E803024AB1206850E8030F19
:102CA000216820F0100041E80302002ADAD1202038
:102CB00084F83E00002020632068406940063FD52C
:102CC000206850E8050F216820F0400041E8050227
:102CD000DAB1206850E8050F216820F0400041E893
:102CE000050292B1206850E8050F216820F04000ED
:102CF00041E805024AB1206850E8050F216820F03C
:102D0000400041E80502002ADAD1A06BC0B143F6C9
:102D10005D21C0F600010165FEF718FE00283FF4B2
:102D200057AEA06B016D02B0BDE8B040084700BFD0
:102D30002046FFF7DBFD0020206402B0B0BD00BFDD
:102D4000204602B0BDE8B040FFF7D0BD401A216870
:102D500051E8031F226821F4907142E80313DBB1AC
:102D6000216851E8031F226821F4907142E803139F
:102D700093B1216851E8031F226821F4907142E861
:102D800003134BB1216851E8031F226821F49071AD
:102D900042E80313002BDAD1216851E8051F2268AD
:102DA00021F0010142E80513DBB1216851E8051F5C
:102DB000226821F0010142E8051393B1216851E82E
:102DC000051F226821F0010142E805134BB121687B
:102DD00051E8051F226821F0010142E80513002B8C
:102DE000DAD1202184F83E1000212163216851E8C6
:102DF000031F226821F0100142E80313002B3FF467
:102E0000A1AE216851E8031F226821F0100142E8B9
:102E10000313002B3FF496AE216851E8031F22688C
:102E200021F0100142E80313002B3FF48BAE216820
:102E300051E8031F226821F0100142E80313002B20
:102E4000D4D17FE6216A31F8022B6FF35F22426012
:102E500021628AE5002804BF0120704710B50446AE
:102E600090F83D0028B9002084F83C00204600F08E
:102E700021F8242084F83D002068C16821F4005125
:102E8000C160204600F070FE2068016921F4904185
:102E90000161416921F02A014161C16841F4005199
:102EA000C16000202021206484F83D1084F83E1089
:102EB00010BD000010B586B0006844F60002C4F2F0
:102EC000000200219042CDE90411CDE902110191E7
:102ED00026D041F20001C4F20101884254D1002001
:102EE00043F630010090C4F202014A69252442F001
:102EF00010024A614A6902F010020092009A0090A2
:102F0000086840F00100086008684FF4C06100F0F4
:102F10000100009000980020C4F2020020E000BFF1
:102F200043F630000091C4F202000269272442F403
:102F300080220261026902F480220092009A0091CC
:102F4000016841F00201016000684FF4406100F047
:102F50000200009000980020C4F2020000F580609A
:102F60000191022102910021039103210491072183
:102F7000059101A9FEF710FD204603210022FEF76E
:102F800063FE2046FEF74CFE06B010BD006844F616
:102F90000001C4F20001884200D0704740F2A01046
:102FA000C2F20000B0F90210002948BF704789B290
:102FB0004A09182A14D840F60402C2F20002126824
:102FC0000023536219B9136843F0010313604B1CCB
:102FD0000278438040F2F430C2F20000425470475D
:102FE00041F40041418070472DE9F04381B004462F
:102FF00090F83D0020280DD10F4600294FF0010028
:1030000000F0DD801646002A00F0D98094F83C00DC
:10301000012803D1022001B0BDE8F083012084F82B
:103020003C000020206421201D4684F83D00FEF76E
:1030300087FDA684E684A1680646B1F5805F03D1CA
:103040002069002800F01081B8460027002084F88D
:103050003C00E18C2068002900F0908005F1010916
:103060000DE000BFB8F1000F28D018F8011B416037
:10307000E18C0139E184E18C002900F07F80016856
:103080000906EFD4B9F1000F0AD0FDB1FEF758FDE3
:10309000801BA8421AD8206801680906F6D5E1E726
:1030A00001680906DED4016809065CBF01685FEAB1
:1030B0000161D7D401680906F2D5D3E737F8021BBE
:1030C0004FF000086FF35F21D1E700BF206850E8A0
:1030D000030F216820F4D07041E80302BAB32068DE
:1030E00050E8030F216820F4D07041E8030272B366
:1030F000206850E8030F216820F4D07041E80302F3
:103100002AB3206850E8030F216820F4D07041E80A
:103110000302002ADAD11AE0206850E8050F21687E
:1031200020F0010041E80502DAB1206850E8050FFF
:10313000216820F0010041E8050292B1206850E8C2
:10314000050F216820F0010041E805024AB120681E
:1031500050E8050F216820F0010041E80502002A2F
:10316000DAD1202084F83D0084F83E00002084F865
:103170003C00032001B0BDE8F08300BF01684906B0
:1031800019D4FDB1691C0DD10168490613D4016839
:1031900049065CBF01685FEA41610CD401684906D9
:1031A000F2D508E0FEF7CCFC801BA8420AD82068C4
:1031B00000684006F6D5202084F83D00002001B0CC
:1031C000BDE8F083206850E8030F216820F4D07038
:1031D00041E80302E2B3206850E8030F216820F4BD
:1031E000D07041E803029AB3206850E8030F2168C9
:1031F00020F4D07041E8030252B3206850E8030F76
:10320000216820F4D07041E80302002ADAD11FE0DF
:10321000206850E8050F216820F0010041E8050210
:10322000002A9ED0206850E8050F216820F0010098
:1032300041E80502002A3FF494AF206850E8050FEA
:10324000216820F0010041E80502002A3FF489AF1F
:10325000206850E8050F216820F0010041E80502D0
:10326000002AD5D17DE700BF4FF00008EEE6000050
:1032700070470000FEE7000010B582B04FF42851FF
:10328000ADF80010E2218DF80210E4218DF8051050
:1032900040F214710022C2F2000140F2A41408238B
:1032A000C1E90002C2F2000440F2D820ADF80320C8
:1032B000ADF80620C1E902220B6104F10C03C2F251
:1032C00000006A46FDF78EFE4FF41670FDF76EFBA8
:1032D000B4F81B00C0BAFDF759F99FED0F0B53EC82
:1032E000102BFDF7C9F8FDF794F9E18B6060C8BABF
:1032F000FDF74CF99FED0A0B53EC102BFDF74AF844
:103300009FED090B53EC102BFDF744F8FDF781F905
:10331000A06002B010BD00BF0000000000005940D6
:10332000000000000000203F000000000070A740E7
:1033300010B582B04FF42851ADF80010E8218DF897
:103340000210E9218DF8051040F214710022C2F23A
:10335000000140F2A4140823C1E90002C2F20004F3
:1033600040F2D820ADF80320ADF80620C1E90222D2
:103370000B6104F10C03C2F200006A46FDF732FE55
:103380004FF41670FDF712FBE18A227DE07C49BA0A
:1033900041EA024141EA006000EE100A9FED041A82
:1033A000B8EEC00A80EE010A84ED000A02B010BD3A
:1033B00000401C452DE9F04F81B02DED028B82B00D
:1033C0009FED3E1AB5EE002A20EE811A9FED3C3AA1
:1033D00021EE021A81EE031A9FED372A9FED393A4A
:1033E00020EE028A83461D2240F2147540F2D8284E
:1033F0008DF805204FF48072C2F20005C2F2000879
:103400004FF4D05A002721EE030ABDEEC00A10EE99
:10341000100A010A8DF8070040F2A410C2F2000061
:1034200000F10C06ADF803208DF806104FF00809E6
:103430006A46404629463346ADF800A08DF8027032
:10344000C5E900B7C5E90277C5F81090FDF7CAFDD8
:103450000120FDF77FFABDEEC80A10EE100A010C3C
:10346000020E030A50248DF8024005248DF8041042
:103470008DF803208DF807008DF806306A46404627
:1034800029463346ADF800A08DF80540C5E900B7E0
:10349000C5E90277C5F81090FDF7A4FD0120FDF7FE
:1034A00059FA4FF41670FDF781FA02B0BDEC028BA9
:1034B00001B0BDE8F08F00BF00401C450000704225
:1034C00000803B450000004670B584B040F22C708F
:1034D00042F2000101230024C2F20000C4F2010103
:1034E0000125C0F60073052603944FF4803204765C
:1034F00080F82050C0E90953C462C66180F83040AA
:1035000080E81600C0E903454561FDF721FB00286E
:1035100018BFFDF76DFA40F22C70C2F20000694648
:10352000CDE900650294FDF769FA002818BFFDF7A0
:103530005FFA062000900220019040F22C70C2F247
:1035400000006946FDF75AFA002818BFFDF750FA47
:10355000082000900320019040F22C70C2F200007D
:103560006946FDF74BFA002818BFFDF741FA09201C
:1035700000900420019040F22C70C2F200006946D5
:10358000FDF73CFA002818BFFDF732FA0A20009038
:103590000520019040F22C70C2F200006946FDF750
:1035A0002DFA002818BFFDF723FA04B070BD000003
:1035B00010B540F2D82046F20041C2F20000C4F239
:1035C000000140F2001403220023C0F2010480E84D
:1035D0000E0000F10C014FF4102C4FF4001E81E896
:1035E000085084618383FDF78FFF002808BF10BD5A
:1035F000BDE81040FDF7FCB981B0002043F6300172
:103600000090C4F202010A6842F080020A600A686F
:1036100002F080020092009A00900A6842F00402D0
:103620000A600A6802F004020092009A00900A6898
:1036300042F001020A600A6802F001020092009A58
:103640000090086840F002000860086800F002007E
:103650000090009801B0704780B586B040F2747059
:103660000021C2F200004FF0804242F2CF0340F24C
:10367000F31C0591CDE90311CDE90011C0E9002348
:10368000C0E9021C01618161FEF758FE002818BFE5
:10369000FDF7AEF94FF48050029040F27470C2F220
:1036A000000002A9FEF75AFF002818BFFDF7A0F995
:1036B00040F27470C2F200006946FEF7E3FD002894
:1036C00018BFFDF795F906B080BD000080B586B043
:1036D00040F2BC7040F200420021C2F20000C4F28D
:1036E000000253234FF6FF7C0591CDE90311CDE98C
:1036F0000011C0E90023C0E9021C01618161FEF7ED
:103700001DFE002818BFFDF773F94FF4805002909A
:1037100040F2BC70C2F2000002A9FEF71FFF0028B1
:1037200018BFFDF765F940F2BC70C2F200006946AF
:10373000FEF7A8FD002818BFFDF75AF906B080BDB6
:1037400080B586B040F6040040F600020021C2F2C7
:103750000000C4F2000244F29F1340F2F31C0591F2
:10376000CDE90311CDE90011C0E90023C0E9021C35
:1037700001618161FEF7E2FD002818BFFDF738F90D
:103780004FF48050029040F60400C2F2000002A9FB
:10379000FEF7E4FE002818BFFDF72AF940F6040002
:1037A000C2F200006946FEF76DFD002818BFFDF764
:1037B0001FF906B080BD000080B540F64C0041F214
:1037C0000001C2F20000C4F2010100234FF00C0C12
:1037D0004FF4E13280E80E00C0E90333C0E905C3CD
:1037E000C361FFF737FB002808BF80BDBDE88040FC
:1037F000FDF7FEB880B540F6900044F60001C2F235
:103800000000C4F2000100234FF00C0C4FF4E13231
:1038100080E80E00C0E90333C0E905C3C361FFF7C8
:1038200019FB002808BF80BDBDE88040FDF7E0B867
:10383000FEE70000FEE70000704700007047000050
:10384000FEF784B9B0B592B0002443F640000B9463
:10385000CDE90944CDE907440594CDE90344CDE918
:1038600001440094C4F202000168022541F0805135
:103870000160006800F080500090009847F200005E
:103880000094C4F20000016841F4804101600068C6
:1038900000F48040009000980120099010200A90C8
:1038A00008200E90A820CDE90F050420119006A84D
:1038B0000695CDE90C54FEF711FB28B1EFF310800B
:1038C00072B600BFFEE700BF0F20CDE901054FF43F
:1038D000A05004904FF48050059001A80521039456
:1038E000FEF7EEF920B1EFF3108072B6FEE700BFED
:1038F00012B0B0BD4EF68850CEF20000016841F41F
:10390000700101607047000040F27470C2F2000064
:10391000FEF7F4BE40F60400C2F20000FEF7EEBE71
:1039200010B540F6FF3E0368C4F2000E40F2004CB2
:103930007045C4F2010C27DCB0F1804F31D040F269
:103940000042C4F2000290422BD040F60002C4F2C2
:103950000002904225D041F6FF72C4F2000290426C
:1039600029DC70453CDCB0F1804F5FD040F2004272
:10397000C4F20002904259D040F60002C4F20002A4
:10398000904253D056E000BF40F60042C4F200021D
:10399000904206D0604504D00022C4F20102904259
:1039A000D9D14A6823F07003134341F6FF72C4F281
:1039B00000029042D5DD43F6FF72C4F2010290424C
:1039C00022DC42F20002C4F2000290422ED0002219
:1039D000C4F20102904229D0604527D02AE000BFFE
:1039E00040F60042C4F2000290421FD041F60002AD
:1039F000C4F20002904219D041F60042C4F2000223
:103A0000904213D016E000BF44F20002C4F201025B
:103A100090420BD044F60002C4F20102904205D05D
:103A200044F20042C4F20102904203D1CA6823F476
:103A30004073134323F080024B69D1F800E08C6897
:103A40001A430260C46240F48062C0F828E0624514
:103A500004BF096901630121416110BD806B002130
:103A6000C185C184FEF742BF81B090F83E10222983
:103A700021D183680246B3F5805F09D152F8281F2F
:103A800052F8183C002B63D003685B680AE000BF63
:103A900052F8281F13B90369002BF5D003685B683F
:103AA00003F07F030B70116801311160C18D013982
:103AB0000A04C18502D001B0704700BF0168CA681E
:103AC00022F02002CA60CA6822F48072CA604A6981
:103AD00022F001024A61202180F83E10016B012989
:103AE0003ED10021016300BF016851E8031F026855
:103AF00021F0100142E80313DBB1016851E8031F14
:103B0000026821F0100142E8031393B1016851E803
:103B1000031F026821F0100142E803134BB1016852
:103B200051E8031F026821F0100142E80313002B43
:103B3000DAD101680A68D20606D5002200920A6826
:103B40000092496800910099818D01B0FEF7CCBECA
:103B5000026852686FF35F2221F8022B8162A5E7A9
:103B600001B0FFF713BA000010B504460068D4E9AD
:103B700002C22369016921F4405111430161626964
:103B800043EA0C01E3691143C268194349F20C632B
:103B90009A431143C1604169A26921F4407141F225
:103BA0000043114340F48062C4F201039A42416130
:103BB00002D1FEF749F901E0FEF732F9E1696368E5
:103BC0001922B1F5004FA0FB020123D15A00DB0FEF
:103BD000FCF7F6FA48F21F51C5F2EB11A0FB0123E6
:103BE0005A094FF69C73C0F6FF7303F1805302FB32
:103BF0000300322303EBC000A0FB01014FF4F87077
:103C000000EA111000EB0210C1F3421108442168D0
:103C1000886010BD9A009B0FFCF7D2FA48F21F5142
:103C2000C5F2EB11A0FB01235A094FF69C73C0F6B5
:103C3000FF7302FB0300322303EB0010A0FB010122
:103C4000F02000EA511000EB0210C1F343110844C8
:103C50002168886010BD000040F64C00C2F20000F0
:103C6000FEF746BE10B582B040F69004C2F20004E2
:103C70002068012140688DF807000DF1070026F04B
:103C800047FD26F011FF2046FEF732FE02B010BDC0
:103C9000FEE70000F0B583B0044600200190A01EAE
:103CA000A421042800912FD8DFE800F0041A041A98
:103CB000360000BF9FED3E1A20EE010ABDEEC00A9D
:103CC00010EE100ABDEEE00A10EE107A07EBC70600
:103CD000010A020C030EB700C6F3871630E000BFDE
:103CE0009FED341A20EE010ABDEEC00A10EE100A54
:103CF000BDEEE00A10EE106A010A020C030EF70096
:103D0000C6F347161CE000BF4CF20170C0F602007B
:103D100028F076FB14E000BF9FED271A20EE010A81
:103D2000BDEEC00A10EE100ABDEEE00A10EE107AE9
:103D300007EB8706010A020C030E7700C6F3C716CD
:103D40008DF8040004F5A07040F214748DF805108D
:103D5000C2F200040021C4E9000140F2C4108DF851
:103D60000360C2F2000040F2D8268DF802708DF890
:103D700006200822051DC2F200066F468DF80730A6
:103D8000C4E902112261304621463A462B46FDF72E
:103D900029F900BF304621463A462B46FDF722F965
:103DA0000028F7D14FF41670FCF700FE03B0F0BD09
:103DB000000061450000484400007A440000000013
:103DC0002DE9F0472DED048B04460120FFF7B0FAF2
:103DD0000120FFF751FA40F2A035C2F200056868F1
:103DE000FCF704FC9FED620B53EC102BFCF72BFA55
:103DF000FCF70FFC40F22836C2F20006F060002704
:103E0000022006F10808B76206F12409776406F17A
:103E1000400A26F065FD022026F0B8FC95ED020A66
:103E20009FED578A9FED579A20EE080A80EE090A07
:103E30000320F762B76486ED040A26F051FD0320E3
:103E400026F0A4FC95ED030A042020EE080A80EE7B
:103E5000090A3763F76486ED050A26F041FD042060
:103E600026F094FC95ED040A9FED471A20EE080A0F
:103E700080EE090A05207763376530EE010A86ED8A
:103E8000060A26F02DFD052026F080FC95ED050A9A
:103E900020EE080A80EE090A10EE100AFCF7A6FBD5
:103EA0009FED350B53EC102BFCF7CDF9FCF7B1FB74
:103EB000F0610620B763776526F012FD062026F034
:103EC00065FC95ED060A404620EE080A80EE090AD8
:103ED000494652462346F763B76586ED080A00F067
:103EE00063F840F2D835042CC2F2000505D195EDF7
:103EF000040AB1EE400A85ED040A06EB84008068EE
:103F0000FCF774FB02464CF268500B46C0F6020008
:103F1000214627F0F5F840F21820C2F2000050F8D0
:103F20002400FCF763FB02460B4618A0214627F04D
:103F3000E7F840F2FC10C2F2000050F82400FCF751
:103F400055FB02460B4614A0214627F0D9F855F838
:103F50002400FCF74BFB02464CF2F4600B46C0F623
:103F600002002146BDEC048BBDE8F04727F0C8B83D
:103F70006666666666D6574022222252C6D7F63F4C
:103F8000DB0F494000003443DB0FC9BF7164256477
:103F90003D252E336609000063757272656E7425C7
:103FA000643D252E336609002DE9F04F81B02DEDDB
:103FB000108BE8B082461846581E40F2D8360528C5
:103FC000C2F200065A9326F2BA800C460FF208019C
:103FD00001EB80018F4600BF00F036B806F094BBBD
:103FE00016F096BC1DF0D0BD1FF08ABF25F0E0BCD6
:103FF0000000000000000080CCB526E50711ED3E72
:10400000CCB526E50711EDBEA6F8533E5F0E463F40
:10401000C74B37894160114092CB7F48BF7D3D3F00
:104020000000000080DAC2C00000000000989A4042
:104030000000000080DAC240000000000025C3C07C
:10404000000000000025C34094ED018A18EE100A1C
:10405000FCF7CCFAAFF26802B5EE408AF1EE10FA46
:1040600018BF083292ED000B1FED1B1B53EC102BF9
:104070001FED1B0B54EC116BB5EE408AF1EE10FAFC
:10408000DCBF1C46164653EC102BFCF783F90246A6
:104090000B4630462146FCF7D6F8CDE94510DAF854
:1040A0000800FCF7A3FA41EC100B27F0B5F8DAF89A
:1040B00008008DED420BFCF799FA41EC100B27F04C
:1040C000ABF8DAF80C008DED400BFCF78FFA41EC01
:1040D000100B27F03DF8DAF810008DED3E0BFCF7E1
:1040E00085FA41EC100B27F097F8DAF808008DED0F
:1040F0005C0BFCF77BFA41EC100B27F029F81FED65
:104100003C1B51EC100B53EC112B50934E92FCF7CF
:1041100041F95B90DAF810005691FCF767FA41EC30
:10412000100B27F015F8DAF814008DED540BFCF79E
:104130005DFA41EC100B27F06FF8DAF81800B0EEDA
:1041400040DAF0EE60DAFCF751FA41EC100B26F0A1
:10415000FFFF1FED4F1B51EC100B53EC112BCDE962
:104160005E23FCF717F9CDE95210DAF81800FCF7D6
:104170003DFA41EC100B27F04FF8DAF80800B0EEEA
:1041800040EAF0EE60EAFCF731FA41EC100B26F061
:10419000DFFFDAF80800B0EE408AF0EE608AFCF744
:1041A00025FA41EC100B27F037F8DAF80C00B0EEE6
:1041B000409AF0EE609AFCF719FA41EC100B27F0E8
:1041C0002BF8B0EE40AAF0EE60AA1FED6B0B51EC9D
:1041D000190B53EC102BCDE95832FCF7DBF853ECFC
:1041E0001A2BFCF7D7F81FED700B044655EC107B2B
:1041F0000E4651EC180B3A462B4662976595FCF734
:10420000C9F822463346FCF71EF8CDE94B10DAF820
:104210001800FCF7EBF941EC100B26F099FFDAF8E7
:104220001400B0EE40FAF0EE60FAFCF7DFF941EC72
:10423000100B26F08DFFDAF80800B0EE408AF0EEA1
:10424000608AFCF7D3F941EC100B26F081FF1FEDDB
:10425000881B51EC100B58EC11BB5A464346CDF865
:1042600098B1CDF89C81FCF795F88146DAF81000FA
:104270000E46FCF7BBF941EC100B26F0CDFFDAF847
:104280000800B0EE409AF0EE609AFCF7AFF941EC0E
:10429000100B26F0C1FF51EC100B3A462B46FCF7F1
:1042A00079F80746DAF80C000C46FCF79FF941EC68
:1042B000100B26F0B1FF53EC102B38462146FCF7CB
:1042C00069F80446DAF810000F46FCF78FF941EC64
:1042D000100B26F0A1FF53EC102B20463946FCF7BB
:1042E00059F804460F4653EC192B48463146FCF763
:1042F00051F822463B46FBF7A6FF0446DAF80C00CD
:104300000E46FCF773F941EC100B26F021FFDAF8AA
:104310001000B0EE409AF0EE609AFCF767F941ECBD
:10432000100B26F015FFDAF80800B0EE40AAF0EE08
:1043300060AAFCF75BF941EC100B26F06DFFB0EEC4
:1043400040BAF0EE60BA1FEDC40B51EC190B53EC00
:10435000102BCDE96323FCF71DF853EC1A2BFCF767
:1043600019F853EC1B2BFCF715F822463346FBF7E4
:104370006AFF4A90DAF814000D46FCF737F941EC71
:10438000100B26F049FFDAF80800B0EE409AF0EE84
:10439000609AFCF72BF941EC100B26F0D9FE51EC9A
:1043A000100B5A464346FBF7F5FFD3460746DBF8AA
:1043B00010008A46FCF71AF941EC100B26F0C8FEF3
:1043C000DBF80C00B0EE40AAF0EE60AAFCF70EF9A4
:1043D00041EC100B26F0BCFE1FEDE71B51EC100B5F
:1043E00053EC112BCDE96032FBF7D4FF0646DBF826
:1043F00008008846FCF7FAF841EC100B26F00CFF99
:1044000053EC102B30464146FBF7C4FF0646DBF861
:1044100010000C46FCF7EAF841EC100B26F0FCFE0D
:1044200053EC102B30462146FBF7B4FF04460E46F2
:1044300053EC1A2B38465146FBF7ACFF2246334665
:10444000FBF701FF8046DBF810000F46FCF7CEF8C3
:1044500041EC100B26F07CFEDDF88891DDF894A18C
:1044600051EC100B4A465346FBF794FF0646DBF827
:1044700008000C46FCF7BAF841EC100B26F0CCFE15
:1044800053EC102B30462146FBF784FF0446DBF843
:104490000C000E46FCF7AAF841EC100B26F0BCFE0F
:1044A00053EC102B20463146FBF774FF42463B4647
:1044B000FBF7C9FE02460B4651EC190BFBF76AFFEE
:1044C0004A9A04460E4651EC180B2B46FBF762FF46
:1044D00022463346FBF7B7FE02460B4651EC1F0B54
:1044E000FBF758FFDDE94B3204460E4651EC1E0B3C
:1044F000FBF750FF22463346FBF7A5FECDE94B10F4
:10450000DBF81800FCF772F841EC100B26F084FE83
:10451000DBF81800B0EE40EAF0EE60EAFCF766F86F
:1045200041EC100B26F014FEDBF80800B0EE40FA68
:10453000F0EE60FAFCF75AF841EC100B26F008FE9A
:10454000DBF80800B0EE408AF0EE608AFCF74EF827
:1045500041EC100B26F060FEDBF80C00B0EE409A48
:10456000F0EE609AFCF742F841EC100B26F054FE96
:10457000669D679FB0EE40AA51EC190B2A463B4658
:10458000F0EE60AAFBF706FF53EC1A2BFBF702FFD5
:1045900004460E4651EC180B4A465346FBF7FAFE0A
:1045A00002460B4620463146FBF7EEFE4A90DBF80A
:1045B00018004891FCF71AF841EC100B26F02CFE7D
:1045C000DBF81400B0EE408AF0EE608AFCF70EF8DB
:1045D00041EC100B26F0BCFDDBF80800B0EE409A71
:1045E000F0EE609AFCF702F841EC100B26F0B0FDFB
:1045F00051EC100B2A463B46FBF7CCFE8046DBF81D
:1046000010000E46FBF7F2FF41EC100B26F004FE03
:10461000DBF80800B0EE40AAF0EE60AAFBF7E6FF78
:1046200041EC100B26F0F8FD51EC100B4A465346B6
:10463000FBF7B0FE0746DBF80C000C46FBF7D6FF95
:1046400041EC100B26F0E8FD53EC102B38462146C8
:10465000FBF7A0FE0446DBF810000F46FBF7C6FF91
:1046600041EC100B26F0D8FD53EC102B20463946B8
:10467000FBF790FE04460F4653EC1A2B404631469A
:10468000FBF788FE22463B46FBF7DDFD0446DBF8E0
:104690000C000E46FBF7AAFF41EC100B26F058FD6C
:1046A000DBF81000B0EE40AAF0EE60AAFBF79EFF28
:1046B00041EC100B26F04CFDDBF80800B0EE40BAE0
:1046C000F0EE60BAFBF792FF41EC100B26F0A4FD70
:1046D000DDE96323B0EE40CA51EC1A0BF0EE60CA7C
:1046E000FBF758FE53EC1B2BFBF754FE53EC1C2B33
:1046F000FBF750FE22463346FBF7A5FDCDE93B1004
:10470000DBF81400FBF772FF41EC100B26F084FD80
:10471000DBF80800B0EE40AAF0EE60AAFBF766FFF7
:1047200041EC100B26F014FD679B51EC100B2A4650
:10473000FBF730FE0746DBF810008A46FBF756FF12
:1047400041EC100B26F004FDDBF80C00B0EE40BA93
:10475000F0EE60BAFBF74AFF41EC100B26F0F8FCD4
:10476000DDE9603251EC100BFBF714FE0446DBF878
:1047700008000E46FBF73AFF41EC100B26F04CFD0B
:1047800053EC102B20463146FBF704FE0446DBF8C1
:1047900010000E46FBF72AFF41EC100B26F03CFD03
:1047A00053EC102B20463146FBF7F4FD04460E4631
:1047B00053EC1B2B38465146FBF7ECFD22463346A3
:1047C000FBF741FD0746DBF810008A46FBF70EFFBA
:1047D00041EC100B26F0BCFCC8464A46DDF894912B
:1047E00051EC100B4B46FBF7D5FD0646DBF80800F5
:1047F0000C46FBF7FBFE41EC100B26F00DFD53ECD5
:10480000102B30462146FBF7C5FD0446DBF80C00B3
:104810000E46FBF7EBFE41EC100B26F0FDFC53ECD3
:10482000102B20463146FBF7B5FD3A465346FBF7C1
:104830000AFD02460B4651EC1A0BFBF7ABFDDDE916
:104840003B3204460E4651EC190BFBF7A3FD224602
:104850003346FBF7F8FC53EC182BFBF79BFD4A9A09
:10486000489B04460E4651EC1F0BFBF793FD024696
:104870000B4620463146FBF7E6FC5E9F5F9D0446F3
:104880000E4651EC1E0B3A462B46FBF783FD2246A3
:104890003346FBF77FFD04460E46DDE95210DDE9A5
:1048A0004B32FBF777FD02460B4620463146FBF7BD
:1048B000CAFCCDE95210DBF81400FBF797FE41EC7F
:1048C000100B26F045FC51EC100B3A462B46FBF73B
:1048D00061FDCDE94B10DBF80800FBF787FE41ECEA
:1048E000100B26F035FC669D679B51EC100B2A4699
:1048F000FBF750FD0646DBF810008A46FBF776FE14
:1049000041EC100B26F088FCDBF80800B0EE408A82
:10491000F0EE608AFBF76AFE41EC100B26F07CFC9F
:1049200051EC100B42464B46FBF734FD0746DBF8D3
:104930000C008846FBF75AFE41EC100B26F06CFC8D
:1049400053EC102B38464146FBF724FD0746DBF8B5
:1049500010000C46FBF74AFE41EC100B26F05CFC05
:1049600053EC102B38462146FBF714FD04460F4646
:1049700053EC182B30465146FBF70CFD22463B46C4
:10498000FBF761FC0446DBF80C000E46FBF72EFE3D
:1049900041EC100B26F0DCFBDBF81000B0EE408A97
:1049A000F0EE608AFBF722FE41EC100B26F0D0FB04
:1049B000DBF80800B0EE409AF0EE609AFBF716FEC6
:1049C00041EC100B26F028FCDDE96323B0EE40AA91
:1049D00051EC180BF0EE60AAFBF7DCFC53EC192B42
:1049E000FBF7D8FC53EC1A2BFBF7D4FC22463346DA
:1049F000FBF729FC02460B46DDE94B10FBF7CAFC2E
:104A000002460B46DDE95210FBF71DFCCDE95210C2
:104A1000DBF81400FBF7EAFD41EC100B26F0FCFB81
:104A2000DDE95E2351EC100BFBF7B4FCCDE94B1034
:104A3000DBF80800FBF7DAFD41EC100B26F088FBF1
:104A4000679B51EC100B2A46FBF7A4FC0746DBF8EA
:104A500010008A46FBF7CAFD41EC100B26F078FBEC
:104A6000DBF80C00B0EE408AF0EE608AFBF7BEFD8A
:104A700041EC100B26F06CFBDDF88491609D51EC4D
:104A8000100B4A462B46FBF785FC0646DBF8080070
:104A90008846FBF7ABFD41EC100B26F0BDFB53EC59
:104AA000102B30464146FBF775FC0646DBF810003C
:104AB0000C46FBF79BFD41EC100B26F0ADFB53ECD5
:104AC000102B30462146FBF765FC04460E4653EC9E
:104AD000182B38465146FBF75DFC22463346FBF760
:104AE000B2FB8046DBF810000F46FBF77FFD41EC80
:104AF000100B26F02DFB629A659B51EC100BFBF717
:104B000049FC0646DBF808000C46FBF76FFD41EC5C
:104B1000100B26F081FB53EC102B30462146FBF79F
:104B200039FC0446DBF80C000E46FBF75FFD41EC58
:104B3000100B26F071FB53EC102B20463146FBF78F
:104B400029FC42463B46FBF77EFB02460B46DDE96D
:104B50004B10FBF71FFCDDE95232FBF774FB0246FA
:104B60000B4651EC1D0BFBF715FC9DED540B044659
:104B70000E465B98569953EC102BFBF70BFC224624
:104B80003346FBF760FB5B90DBF814005391FBF7B7
:104B90002DFD41EC100B26F0DBFADBF81400B0EE33
:104BA00040CAF0EE60CAFBF721FD41EC100B26F085
:104BB000CFFA9FEDFD1B51EC100B53EC112B4B93D7
:104BC0005692FBF7E7FB5290DBF808004A91FBF79F
:104BD0000DFD41EC100B26F0BBFADDE9662A51EC25
:104BE000100B5346FBF7D6FB0646DBF81000884651
:104BF000FBF7FCFC41EC100B26F0AAFADBF80C00EA
:104C0000B0EE408AF0EE608AFBF7F0FC41EC100B4E
:104C100026F09EFA51EC100B4A462B46FBF7BAFBE6
:104C20000746DBF808000C46FBF7E0FC41EC100BF4
:104C300026F0F2FA53EC102B38462146FBF7AAFB7C
:104C40000446DBF810000F46FBF7D0FC41EC100BDC
:104C500026F0E2FA53EC102B20463946FBF79AFB7C
:104C600004460F4653EC182B30464146FBF792FBA7
:104C700022463B46FBF7E7FA8046DBF81000894600
:104C8000FBF7B4FC41EC100B26F062FA629E659DC6
:104C900051EC100B32462B46FBF77CFB0746DBF84A
:104CA00008000C46FBF7A2FC41EC100B26F0B4FA0E
:104CB00053EC102B38462146FBF76CFB0446DBF81F
:104CC0000C000F46FBF792FC41EC100B26F0A4FA07
:104CD00053EC102B20463946FBF75CFB42464B4613
:104CE000FBF7B1FA4890DBF814003C91FBF77EFC2F
:104CF00041EC100B26F090FADBF80800B0EE408A89
:104D0000F0EE608AFBF772FC41EC100B26F020FA03
:104D1000669A51EC100B5346FBF73CFB8246DBF8DE
:104D200010008846FBF762FC41EC100B26F074FA89
:104D3000DBF80800B0EE409AF0EE609AFBF756FC04
:104D400041EC100B26F068FA51EC100B32462B4662
:104D5000FBF720FB0746DBF80C008946FBF746FC17
:104D600041EC100B26F058FA53EC102B384649460C
:104D7000FBF710FB0746DBF810000C46FBF736FC90
:104D800041EC100B26F048FA53EC102B3846214624
:104D9000FBF700FB04460F4653EC192B50464146E7
:104DA000FBF7F8FA22463B46FBF74DFA0446DBF8E0
:104DB0000C000E46FBF71AFC41EC100B26F0C8F96C
:104DC000DBF81000B0EE409AF0EE609AFBF70EFCB4
:104DD00041EC100B26F0BCF9DBF80800B0EE40AA5D
:104DE000F0EE60AAFBF702FC41EC100B26F014FA7F
:104DF000DDE96323B0EE40BA51EC190BF0EE60BA76
:104E0000FBF7C8FA53EC1A2BFBF7C4FA53EC1B2B35
:104E1000FBF7C0FA22463346FBF715FA9FED640B09
:104E200004460E4651EC180B53EC102B4C93549245
:104E3000FBF7B0FA22463346FBF7ACFA04460E46BF
:104E400052984A99489A3C9BFBF7A4FA224633466B
:104E5000FBF7F9F902460B4651EC1C0BFBF79AFAEB
:104E60005B9A539BFBF7EFF98046DBF80C000E468C
:104E7000FBF7BCFB41EC100B26F06AF99FED4E1BD3
:104E800051EC100B55EC119B4A462B46CDF828915E
:104E90004895FBF77FFA0746DBF808000C46FBF75E
:104EA000A5FB41EC100B26F0B7F953EC102B38465C
:104EB0002146FBF76FFA0446DBF810000F46FBF7BC
:104EC00095FB41EC100B26F0A7F953EC102B204674
:104ED0003946FBF75FFA42463346FBF7B4F98046A2
:104EE000DBF810000E46FBF781FB41EC100B26F0BF
:104EF0002FF99FED331B51EC100B53EC112BCDE927
:104F00005223FBF747FA0746DBF808000C46FBF78D
:104F10006DFB41EC100B26F07FF953EC102B38465B
:104F20002146FBF737FA0446DBF80C000F46FBF787
:104F30005DFB41EC100B26F06FF953EC102B204673
:104F40003946FBF727FA42463346FBF77CF98046A1
:104F5000DBF80C000E46FBF749FB41EC100B26F08A
:104F6000F7F851EC100B4A462B46FBF713FA0746AD
:104F7000DBF808000C46FBF739FB41EC100B26F080
:104F80004BF953EC102B38462146FBF703FA9DED05
:104F90005C0B04460F4651EC100B4246334600F0C2
:104FA00017B800BF00BF00BF92CB7F48BF7D4D3F09
:104FB00092CB7F48BF7D4DBFBE9F1A2FDDA411400D
:104FC0006E3480B74082E83F92CB7F48BF7D3DBFC3
:104FD000FBF7E0F902460B4620463946FBF733F96A
:104FE000CDE93B10DBF81000FBF700FB41EC100BA8
:104FF00026F0AEF8DBF808008DED380BFBF7F6FA7B
:1050000041EC100B26F0A4F84E9A509B51EC100B7B
:10501000FBF7C0F93790DBF810003491FBF7E6FAA4
:1050200041EC100B26F0F8F8DBF814008DED320B94
:10503000FBF7DCFA41EC100B26F08AF8DBF81800DD
:10504000B0EE40DAF0EE60DAFBF7D0FA41EC100B8C
:1050500026F07EF81FED241B51EC100B53EC112BA6
:10506000CDE95B23FBF796F9CDE92F10DBF81800AB
:10507000FBF7BCFA41EC100B26F0CEF8DBF8080089
:10508000B0EE40EAF0EE60EAFBF7B0FA41EC100B4C
:1050900026F05EF8DBF80800B0EE408AF0EE608A99
:1050A000FBF7A4FA41EC100B26F0B6F8DBF80C0085
:1050B000B0EE409AF0EE609AFBF798FA41EC100BD4
:1050C00026F0AAF8DDE95832B0EE40AA51EC190BEF
:1050D000F0EE60AAFBF75EF953EC1A2BFBF75AF9D6
:1050E000629D659F04460E4651EC180B2A463B46CE
:1050F000FBF750F922463346FBF7A5F82C90DBF876
:1051000018002A91FBF772FA41EC100B26F020F8F8
:10511000DBF81400B0EE408AF0EE608AFBF766FA26
:1051200041EC100B26F014F8DBF80800B0EE409AC2
:10513000F0EE609AFBF75AFA41EC100B26F008F8F3
:10514000DDF898A1DDF89C8151EC100B52464346E6
:10515000FBF720F98146DBF810000E46FBF746FA14
:1051600041EC100B26F058F8DBF80800B0EE40AA2E
:10517000F0EE60AAFBF73AFA41EC100B26F04CF87F
:1051800051EC100B2A463B46FBF704F90746DBF8C7
:105190000C000C46FBF72AFA41EC100B26F03CF809
:1051A00053EC102B38462146FBF7F4F80446DBF8A5
:1051B00010000F46FBF71AFA41EC100B26F02CF802
:1051C00053EC102B20463946FBF7E4F804460F4613
:1051D00053EC1A2B48463146FBF7DCF822463B4697
:1051E000FBF731F80446DBF80C000E46FBF7FEF93E
:1051F00041EC100B25F0ACFFDBF81000B0EE40AA3C
:10520000F0EE60AAFBF7F2F941EC100B25F0A0FFDD
:10521000DBF80800B0EE40BAF0EE60BAFBF7E6F952
:1052200041EC100B25F0F8FFDDE96323B0EE40FA06
:1052300051EC1A0BF0EE60FAFBF7ACF853EC1B2BB9
:10524000FBF7A8F853EC1F2BFBF7A4F822463346D4
:10525000FAF7F9FF0546DBF814002891FBF7C6F9C9
:1052600041EC100B25F0D8FFDBF80800B0EE40AAA7
:10527000F0EE60AAFBF7BAF941EC100B25F068FFDD
:1052800051EC100B52464346FBF784F80746DBF817
:1052900010008A46FBF7AAF941EC100B25F058FFE5
:1052A000DBF80C00B0EE40FAF0EE60FAFBF79EF986
:1052B00041EC100B25F04CFFDDE9603251EC100B96
:1052C000FBF768F80646DBF808008846FBF78EF91E
:1052D00041EC100B25F0A0FF53EC102B304641465B
:1052E000FBF758F80646DBF810000C46FBF77EF992
:1052F00041EC100B25F090FF53EC102B304621466B
:10530000FBF748F804460E4653EC1F2B384651462F
:10531000FBF740F822463346FAF795FF8046DBF864
:1053200010000F46FBF762F941EC100B25F010FF5F
:10533000DDF88891DDF894A151EC100B4A465346F4
:10534000FBF728F80646DBF808000C46FBF74EF999
:1053500041EC100B25F060FF53EC102B304621463A
:10536000FBF718F80446DBF80C000E46FBF73EF995
:1053700041EC100B25F050FF53EC102B204631462A
:10538000FBF708F842463B46FAF75DFF02460B463C
:1053900051EC1A0BFAF7FEFF289B04460E4651EC1F
:1053A000190B2A46FAF7F6FF22463346FAF74BFF67
:1053B00002460B4651EC180BFAF7ECFF2C9A2A9B8D
:1053C00004460E4651EC1E0BFAF7E4FF2246334624
:1053D000FAF739FF2C90DBF818002A91FBF706F951
:1053E00041EC100B25F018FFDBF81800B0EE40EA96
:1053F000F0EE60EAFBF7FAF841EC100B25F0A8FE9E
:10540000DBF80800B0EE40FAF0EE60FAFBF7EEF8D9
:1054100041EC100B25F09CFEDBF80800B0EE408A52
:10542000F0EE608AFBF7E2F841EC100B25F0F4FE99
:10543000DBF80C00B0EE409AF0EE609AFBF7D6F87D
:1054400041EC100B25F0E8FE669D679FB0EE40AA88
:1054500051EC190B2A463B46F0EE60AAFAF79AFF88
:1054600053EC1A2BFAF796FF04460E4651EC180B34
:105470004A465346FAF78EFF02460B46204631460F
:10548000FAF782FFCDE92710DBF81800FBF7AEF83A
:1054900041EC100B25F0C0FEDBF81400B0EE408AA2
:1054A000F0EE608AFBF7A2F841EC100B25F050FEFD
:1054B000DBF80800B0EE409AF0EE609AFBF796F841
:1054C00041EC100B25F044FE51EC100B2A463B46F4
:1054D000FAF760FF8046DBF810000E46FBF786F80F
:1054E00041EC100B25F098FEDBF80800B0EE40AA66
:1054F000F0EE60AAFBF77AF841EC100B25F08CFE79
:1055000051EC100B4A465346FAF744FF0746DBF8C6
:105510000C000C46FBF76AF841EC100B25F07CFE02
:1055200053EC102B38462146FAF734FF0446DBF8DB
:1055300010000F46FBF75AF841EC100B25F06CFEFB
:1055400053EC102B20463946FAF724FF04460F4649
:1055500053EC1A2B40463146FAF71CFF22463B46D5
:10556000FAF771FE0446DBF80C000E46FBF73EF836
:1055700041EC100B25F0ECFDDBF81000B0EE40AA7A
:10558000F0EE60AAFBF732F841EC100B25F0E0FDDD
:10559000DBF80800B0EE40BAF0EE60BAFBF726F890
:1055A00041EC100B25F038FEDDE96323B0EE40CA74
:1055B00051EC1A0BF0EE60CAFAF7ECFE53EC1B2B21
:1055C000FAF7E8FE53EC1C2BFAF7E4FE22463346CA
:1055D000FAF739FECDE92510DBF81400FBF706F8E1
:1055E00041EC100B25F018FEDBF80800B0EE40AAE5
:1055F000F0EE60AAFAF7FAFF41EC100B25F0A8FDD7
:10560000679B51EC100B2A46FAF7C4FE0746DBF8FD
:1056100010008A46FAF7EAFF41EC100B25F098FDDE
:10562000DBF80C00B0EE40BAF0EE60BAFAF7DEFF3D
:1056300041EC100B25F08CFDDDE9603251EC100BD4
:10564000FAF7A8FE0446DBF808000E46FAF7CEFF8C
:1056500041EC100B25F0E0FD53EC102B20463146B9
:10566000FAF798FE0446DBF810000E46FAF7BEFF84
:1056700041EC100B25F0D0FD53EC102B20463146A9
:10568000FAF788FE04460E4653EC1B2B384651466B
:10569000FAF780FE22463346FAF7D5FD0746DBF8D7
:1056A00010008A46FAF7A2FF41EC100B25F050FDDE
:1056B000C8464A46DDF8949151EC100B4B46FAF778
:1056C00069FE0646DBF808000C46FAF78FFF41EC4E
:1056D000100B25F0A1FD53EC102B30462146FAF7B4
:1056E00059FE0446DBF80C000E46FAF77FFF41EC4A
:1056F000100B25F091FD53EC102B20463146FAF7A4
:1057000049FE3A465346FAF79EFD02460B4651ECD7
:105710001A0BFAF73FFEDDE9253204460E4651EC3E
:10572000190BFAF737FE22463346FAF78CFD53EC95
:10573000182BFAF72FFEDDE9273204460E4651EC0E
:105740001F0BFAF727FE02460B4620463146FAF7B2
:105750007AFD5B9D5C9F04460E4651EC1E0B2A466B
:105760003B46FAF717FE22463346FAF713FE044685
:105770000E46DDE92F102C9A2A9BFAF70BFE024603
:105780000B4620463146FAF75EFDCDE92F10DBF8D7
:105790001400FAF72BFF41EC100B25F0D9FC51EC6B
:1057A000100B2A463B46FAF7F5FD2C90DBF8080073
:1057B0002A91FAF71BFF41EC100B25F0C9FC669DFE
:1057C000679B51EC100B2A46FAF7E4FD0646DBF81E
:1057D00010008A46FAF70AFF41EC100B25F01CFD79
:1057E000DBF80800B0EE408AF0EE608AFAF7FEFEC1
:1057F00041EC100B25F010FD51EC100B42464B46CE
:10580000FAF7C8FD0746DBF80C008846FAF7EEFE0B
:1058100041EC100B25F000FD53EC102B38464146AF
:10582000FAF7B8FD0746DBF810000C46FAF7DEFE83
:1058300041EC100B25F0F0FC53EC102B38462146C0
:10584000FAF7A8FD04460F4653EC182B3046514694
:10585000FAF7A0FD22463B46FAF7F5FC0446DBF8D2
:105860000C000E46FAF7C2FE41EC100B25F070FC5E
:10587000DBF81000B0EE408AF0EE608AFAF7B6FE70
:1058800041EC100B25F064FCDBF80800B0EE409A08
:10589000F0EE609AFAF7AAFE41EC100B25F0BCFC82
:1058A000DDE96323B0EE40AA51EC180BF0EE60AADC
:1058B000FAF770FD53EC192BFAF76CFD53EC1A2B29
:1058C000FAF768FD22463346FAF7BDFC02460B465E
:1058D0002C982A99FAF75EFD02460B46DDE92F1057
:1058E000FAF7B1FCCDE92F10DBF81400FAF77EFED1
:1058F00041EC100B25F090FCDDE95B2351EC100B23
:10590000FAF748FD8146DBF808002C91FAF76EFEA5
:1059100041EC100B25F01CFC679B51EC100B2A4648
:10592000FAF738FD0746DBF810008A46FAF75EFE04
:1059300041EC100B25F00CFCDBF80C00B0EE408ABB
:10594000F0EE608AFAF752FE41EC100B25F000FCF5
:10595000DDE9605251EC100B2B46FAF71BFD0646B1
:10596000DBF808008846FAF741FE41EC100B25F001
:1059700053FC53EC102B30464146FAF70BFD06461C
:10598000DBF810000C46FAF731FE41EC100B25F065
:1059900043FC53EC102B30462146FAF7FBFC04463F
:1059A0000E4653EC182B38465146FAF7F3FC2246C4
:1059B0003346FAF748FC8046DBF810000F46FAF74A
:1059C00015FE41EC100B25F0C3FB629A659B51EC70
:1059D000100BFAF7DFFC0646DBF808000C46FAF776
:1059E00005FE41EC100B25F017FC53EC102B304654
:1059F0002146FAF7CFFC0446DBF80C000E46FAF716
:105A0000F5FD41EC100B25F007FC53EC102B204664
:105A10003146FAF7BFFC42463B46FAF714FC0B4608
:105A20002C9902464846FAF7B5FCDDE92F32FAF721
:105A30000AFC02460B4651EC1D0BFAF7ABFC9DED40
:105A4000320B04460E463798349953EC102BFAF774
:105A5000A1FC02460B4620463146FAF795FC3790EA
:105A6000DBF814003491D946FAF7C0FD41EC100B75
:105A700025F0D2FBDBF81400B0EE40CAF0EE60CAAD
:105A8000FAF7B4FD41EC100B25F062FB569A4B9BE4
:105A900051EC100BFAF77EFC3290DBF808003091E5
:105AA000FAF7A4FD41EC100B25F052FBDDE9662A64
:105AB00051EC100B5346FAF76DFC8046DBF81000F2
:105AC0000E46FAF793FD41EC100B25F041FBDBF895
:105AD0000C00B0EE408AF0EE608AFAF787FD41ECE8
